{
  "contractName": "ERC721TokenVault",
  "abi": [
    {
      "inputs": [
        {
          "internalType": "address",
          "name": "_settings",
          "type": "address"
        }
      ],
      "stateMutability": "nonpayable",
      "type": "constructor"
    },
    {
      "anonymous": false,
      "inputs": [
        {
          "indexed": true,
          "internalType": "address",
          "name": "owner",
          "type": "address"
        },
        {
          "indexed": true,
          "internalType": "address",
          "name": "spender",
          "type": "address"
        },
        {
          "indexed": false,
          "internalType": "uint256",
          "name": "value",
          "type": "uint256"
        }
      ],
      "name": "Approval",
      "type": "event"
    },
    {
      "anonymous": false,
      "inputs": [
        {
          "indexed": true,
          "internalType": "address",
          "name": "buyer",
          "type": "address"
        },
        {
          "indexed": false,
          "internalType": "uint256",
          "name": "price",
          "type": "uint256"
        }
      ],
      "name": "Bid",
      "type": "event"
    },
    {
      "anonymous": false,
      "inputs": [
        {
          "indexed": true,
          "internalType": "address",
          "name": "owner",
          "type": "address"
        },
        {
          "indexed": false,
          "internalType": "uint256",
          "name": "shares",
          "type": "uint256"
        }
      ],
      "name": "Cash",
      "type": "event"
    },
    {
      "anonymous": false,
      "inputs": [
        {
          "indexed": false,
          "internalType": "uint8",
          "name": "version",
          "type": "uint8"
        }
      ],
      "name": "Initialized",
      "type": "event"
    },
    {
      "anonymous": false,
      "inputs": [
        {
          "indexed": true,
          "internalType": "address",
          "name": "user",
          "type": "address"
        },
        {
          "indexed": false,
          "internalType": "uint256",
          "name": "price",
          "type": "uint256"
        }
      ],
      "name": "PriceUpdate",
      "type": "event"
    },
    {
      "anonymous": false,
      "inputs": [
        {
          "indexed": true,
          "internalType": "address",
          "name": "redeemer",
          "type": "address"
        }
      ],
      "name": "Redeem",
      "type": "event"
    },
    {
      "anonymous": false,
      "inputs": [
        {
          "indexed": true,
          "internalType": "address",
          "name": "buyer",
          "type": "address"
        },
        {
          "indexed": false,
          "internalType": "uint256",
          "name": "price",
          "type": "uint256"
        }
      ],
      "name": "Start",
      "type": "event"
    },
    {
      "anonymous": false,
      "inputs": [
        {
          "indexed": true,
          "internalType": "address",
          "name": "from",
          "type": "address"
        },
        {
          "indexed": true,
          "internalType": "address",
          "name": "to",
          "type": "address"
        },
        {
          "indexed": false,
          "internalType": "uint256",
          "name": "value",
          "type": "uint256"
        }
      ],
      "name": "Transfer",
      "type": "event"
    },
    {
      "anonymous": false,
      "inputs": [
        {
          "indexed": true,
          "internalType": "address",
          "name": "buyer",
          "type": "address"
        },
        {
          "indexed": false,
          "internalType": "uint256",
          "name": "price",
          "type": "uint256"
        }
      ],
      "name": "Won",
      "type": "event"
    },
    {
      "inputs": [
        {
          "internalType": "address",
          "name": "owner",
          "type": "address"
        },
        {
          "internalType": "address",
          "name": "spender",
          "type": "address"
        }
      ],
      "name": "allowance",
      "outputs": [
        {
          "internalType": "uint256",
          "name": "",
          "type": "uint256"
        }
      ],
      "stateMutability": "view",
      "type": "function"
    },
    {
      "inputs": [
        {
          "internalType": "address",
          "name": "spender",
          "type": "address"
        },
        {
          "internalType": "uint256",
          "name": "amount",
          "type": "uint256"
        }
      ],
      "name": "approve",
      "outputs": [
        {
          "internalType": "bool",
          "name": "",
          "type": "bool"
        }
      ],
      "stateMutability": "nonpayable",
      "type": "function"
    },
    {
      "inputs": [],
      "name": "auctionEnd",
      "outputs": [
        {
          "internalType": "uint256",
          "name": "",
          "type": "uint256"
        }
      ],
      "stateMutability": "view",
      "type": "function"
    },
    {
      "inputs": [],
      "name": "auctionLength",
      "outputs": [
        {
          "internalType": "uint256",
          "name": "",
          "type": "uint256"
        }
      ],
      "stateMutability": "view",
      "type": "function"
    },
    {
      "inputs": [],
      "name": "auctionState",
      "outputs": [
        {
          "internalType": "enum ERC721TokenVault.State",
          "name": "",
          "type": "uint8"
        }
      ],
      "stateMutability": "view",
      "type": "function"
    },
    {
      "inputs": [
        {
          "internalType": "address",
          "name": "account",
          "type": "address"
        }
      ],
      "name": "balanceOf",
      "outputs": [
        {
          "internalType": "uint256",
          "name": "",
          "type": "uint256"
        }
      ],
      "stateMutability": "view",
      "type": "function"
    },
    {
      "inputs": [],
      "name": "curator",
      "outputs": [
        {
          "internalType": "address",
          "name": "",
          "type": "address"
        }
      ],
      "stateMutability": "view",
      "type": "function"
    },
    {
      "inputs": [],
      "name": "decimals",
      "outputs": [
        {
          "internalType": "uint8",
          "name": "",
          "type": "uint8"
        }
      ],
      "stateMutability": "view",
      "type": "function"
    },
    {
      "inputs": [
        {
          "internalType": "address",
          "name": "spender",
          "type": "address"
        },
        {
          "internalType": "uint256",
          "name": "subtractedValue",
          "type": "uint256"
        }
      ],
      "name": "decreaseAllowance",
      "outputs": [
        {
          "internalType": "bool",
          "name": "",
          "type": "bool"
        }
      ],
      "stateMutability": "nonpayable",
      "type": "function"
    },
    {
      "inputs": [],
      "name": "fee",
      "outputs": [
        {
          "internalType": "uint256",
          "name": "",
          "type": "uint256"
        }
      ],
      "stateMutability": "view",
      "type": "function"
    },
    {
      "inputs": [],
      "name": "id",
      "outputs": [
        {
          "internalType": "uint256",
          "name": "",
          "type": "uint256"
        }
      ],
      "stateMutability": "view",
      "type": "function"
    },
    {
      "inputs": [
        {
          "internalType": "address",
          "name": "spender",
          "type": "address"
        },
        {
          "internalType": "uint256",
          "name": "addedValue",
          "type": "uint256"
        }
      ],
      "name": "increaseAllowance",
      "outputs": [
        {
          "internalType": "bool",
          "name": "",
          "type": "bool"
        }
      ],
      "stateMutability": "nonpayable",
      "type": "function"
    },
    {
      "inputs": [],
      "name": "lastClaimed",
      "outputs": [
        {
          "internalType": "uint256",
          "name": "",
          "type": "uint256"
        }
      ],
      "stateMutability": "view",
      "type": "function"
    },
    {
      "inputs": [],
      "name": "livePrice",
      "outputs": [
        {
          "internalType": "uint256",
          "name": "",
          "type": "uint256"
        }
      ],
      "stateMutability": "view",
      "type": "function"
    },
    {
      "inputs": [],
      "name": "logic",
      "outputs": [
        {
          "internalType": "address",
          "name": "",
          "type": "address"
        }
      ],
      "stateMutability": "view",
      "type": "function"
    },
    {
      "inputs": [],
      "name": "name",
      "outputs": [
        {
          "internalType": "string",
          "name": "",
          "type": "string"
        }
      ],
      "stateMutability": "view",
      "type": "function"
    },
    {
      "inputs": [
        {
          "internalType": "address",
          "name": "",
          "type": "address"
        },
        {
          "internalType": "address",
          "name": "",
          "type": "address"
        },
        {
          "internalType": "uint256",
          "name": "",
          "type": "uint256"
        },
        {
          "internalType": "bytes",
          "name": "",
          "type": "bytes"
        }
      ],
      "name": "onERC721Received",
      "outputs": [
        {
          "internalType": "bytes4",
          "name": "",
          "type": "bytes4"
        }
      ],
      "stateMutability": "nonpayable",
      "type": "function"
    },
    {
      "inputs": [],
      "name": "reserveTotal",
      "outputs": [
        {
          "internalType": "uint256",
          "name": "",
          "type": "uint256"
        }
      ],
      "stateMutability": "view",
      "type": "function"
    },
    {
      "inputs": [],
      "name": "settings",
      "outputs": [
        {
          "internalType": "address",
          "name": "",
          "type": "address"
        }
      ],
      "stateMutability": "view",
      "type": "function"
    },
    {
      "inputs": [],
      "name": "symbol",
      "outputs": [
        {
          "internalType": "string",
          "name": "",
          "type": "string"
        }
      ],
      "stateMutability": "view",
      "type": "function"
    },
    {
      "inputs": [],
      "name": "token",
      "outputs": [
        {
          "internalType": "address",
          "name": "",
          "type": "address"
        }
      ],
      "stateMutability": "view",
      "type": "function"
    },
    {
      "inputs": [],
      "name": "totalSupply",
      "outputs": [
        {
          "internalType": "uint256",
          "name": "",
          "type": "uint256"
        }
      ],
      "stateMutability": "view",
      "type": "function"
    },
    {
      "inputs": [
        {
          "internalType": "address",
          "name": "to",
          "type": "address"
        },
        {
          "internalType": "uint256",
          "name": "amount",
          "type": "uint256"
        }
      ],
      "name": "transfer",
      "outputs": [
        {
          "internalType": "bool",
          "name": "",
          "type": "bool"
        }
      ],
      "stateMutability": "nonpayable",
      "type": "function"
    },
    {
      "inputs": [
        {
          "internalType": "address",
          "name": "from",
          "type": "address"
        },
        {
          "internalType": "address",
          "name": "to",
          "type": "address"
        },
        {
          "internalType": "uint256",
          "name": "amount",
          "type": "uint256"
        }
      ],
      "name": "transferFrom",
      "outputs": [
        {
          "internalType": "bool",
          "name": "",
          "type": "bool"
        }
      ],
      "stateMutability": "nonpayable",
      "type": "function"
    },
    {
      "inputs": [
        {
          "internalType": "address",
          "name": "",
          "type": "address"
        }
      ],
      "name": "userPrices",
      "outputs": [
        {
          "internalType": "uint256",
          "name": "",
          "type": "uint256"
        }
      ],
      "stateMutability": "view",
      "type": "function"
    },
    {
      "inputs": [],
      "name": "vaultClosed",
      "outputs": [
        {
          "internalType": "bool",
          "name": "",
          "type": "bool"
        }
      ],
      "stateMutability": "view",
      "type": "function"
    },
    {
      "inputs": [],
      "name": "votingTokens",
      "outputs": [
        {
          "internalType": "uint256",
          "name": "",
          "type": "uint256"
        }
      ],
      "stateMutability": "view",
      "type": "function"
    },
    {
      "inputs": [],
      "name": "winning",
      "outputs": [
        {
          "internalType": "address payable",
          "name": "",
          "type": "address"
        }
      ],
      "stateMutability": "view",
      "type": "function"
    },
    {
      "inputs": [],
      "name": "wmovr",
      "outputs": [
        {
          "internalType": "address",
          "name": "",
          "type": "address"
        }
      ],
      "stateMutability": "view",
      "type": "function"
    },
    {
      "inputs": [
        {
          "internalType": "address",
          "name": "_curator",
          "type": "address"
        },
        {
          "internalType": "address",
          "name": "_token",
          "type": "address"
        },
        {
          "internalType": "uint256",
          "name": "_id",
          "type": "uint256"
        },
        {
          "internalType": "uint256",
          "name": "_supply",
          "type": "uint256"
        },
        {
          "internalType": "uint256",
          "name": "_listPrice",
          "type": "uint256"
        },
        {
          "internalType": "uint256",
          "name": "_fee",
          "type": "uint256"
        },
        {
          "internalType": "string",
          "name": "_name",
          "type": "string"
        },
        {
          "internalType": "string",
          "name": "_symbol",
          "type": "string"
        }
      ],
      "name": "initialize",
      "outputs": [],
      "stateMutability": "nonpayable",
      "type": "function"
    },
    {
      "inputs": [],
      "name": "reservePrice",
      "outputs": [
        {
          "internalType": "uint256",
          "name": "",
          "type": "uint256"
        }
      ],
      "stateMutability": "view",
      "type": "function"
    },
    {
      "inputs": [
        {
          "internalType": "address",
          "name": "_curator",
          "type": "address"
        }
      ],
      "name": "kickCurator",
      "outputs": [],
      "stateMutability": "nonpayable",
      "type": "function"
    },
    {
      "inputs": [
        {
          "internalType": "address",
          "name": "_user",
          "type": "address"
        }
      ],
      "name": "removeReserve",
      "outputs": [],
      "stateMutability": "nonpayable",
      "type": "function"
    },
    {
      "inputs": [
        {
          "internalType": "address",
          "name": "_curator",
          "type": "address"
        }
      ],
      "name": "updateCurator",
      "outputs": [],
      "stateMutability": "nonpayable",
      "type": "function"
    },
    {
      "inputs": [
        {
          "internalType": "uint256",
          "name": "_length",
          "type": "uint256"
        }
      ],
      "name": "updateAuctionLength",
      "outputs": [],
      "stateMutability": "nonpayable",
      "type": "function"
    },
    {
      "inputs": [
        {
          "internalType": "uint256",
          "name": "_fee",
          "type": "uint256"
        }
      ],
      "name": "updateFee",
      "outputs": [],
      "stateMutability": "nonpayable",
      "type": "function"
    },
    {
      "inputs": [],
      "name": "claimFees",
      "outputs": [],
      "stateMutability": "nonpayable",
      "type": "function"
    },
    {
      "inputs": [
        {
          "internalType": "uint256",
          "name": "_new",
          "type": "uint256"
        }
      ],
      "name": "updateUserPrice",
      "outputs": [],
      "stateMutability": "nonpayable",
      "type": "function"
    },
    {
      "inputs": [],
      "name": "start",
      "outputs": [],
      "stateMutability": "payable",
      "type": "function"
    },
    {
      "inputs": [],
      "name": "bid",
      "outputs": [],
      "stateMutability": "payable",
      "type": "function"
    },
    {
      "inputs": [],
      "name": "end",
      "outputs": [],
      "stateMutability": "nonpayable",
      "type": "function"
    },
    {
      "inputs": [],
      "name": "redeem",
      "outputs": [],
      "stateMutability": "nonpayable",
      "type": "function"
    },
    {
      "inputs": [],
      "name": "cash",
      "outputs": [],
      "stateMutability": "nonpayable",
      "type": "function"
    }
  ],
  "bytecode": "0x60806040523480156200001157600080fd5b50604051620033ac380380620033ac83398101604081905262000034916200005a565b609f8054600160a060020a031916600160a060020a03929092169190911790556200008c565b6000602082840312156200006d57600080fd5b8151600160a060020a03811681146200008557600080fd5b9392505050565b613310806200009c6000396000f3fe6080604052600436106102605760003560e060020a90048063853a1b9011610148578063c91de649116100ba578063ddca3f431161007e578063ddca3f43146106ef578063e06174e414610705578063e66f53b714610725578063efbe1c1c14610745578063fa0c6fb51461075a578063fc0c546a1461078257600080fd5b8063c91de64914610658578063d294f09314610685578063d7dfa0dd1461069a578063db2e1eed146106ba578063dd62ed3e146106cf57600080fd5b8063a457c2d71161010c578063a457c2d7146105cf578063a9059cbb146105ef578063adc1b9561461060f578063af640d0f14610625578063be040fb01461063b578063be9a65551461065057600080fd5b8063853a1b90146105375780639012c4a81461056f57806395d89b411461058f578063961be391146105a45780639a4e6d34146105b957600080fd5b8063313ce567116101e15780636a775714116101a55780636a7757141461047d5780636da84e6c1461049d57806370a08231146104b35780637b5581ed146104d35780637fb45099146104e957806380436fe01461051757600080fd5b8063313ce567146103f1578063325c25a21461040d57806339509351146104235780635c9920fc14610443578063626fb2f01461045d57600080fd5b80631998aeef116102285780631998aeef1461037357806323b872dd1461037b5780632a24f46c1461039b5780632a44f120146103b15780632bf33bd9146103d157600080fd5b806306fdde0314610265578063095ea7b3146102905780630c6a62dd146102c0578063150b7a02146102e257806318160ddd14610354575b600080fd5b34801561027157600080fd5b5061027a6107a2565b6040516102879190612c0f565b60405180910390f35b34801561029c57600080fd5b506102b06102ab366004612c7c565b610834565b6040519015158152602001610287565b3480156102cc57600080fd5b506102e06102db366004612ca8565b61084c565b005b3480156102ee57600080fd5b506103266102fd366004612d5b565b7f150b7a0200000000000000000000000000000000000000000000000000000000949350505050565b6040517bffffffffffffffffffffffffffffffffffffffffffffffffffffffff199091168152602001610287565b34801561036057600080fd5b506035545b604051908152602001610287565b6102e06108a4565b34801561038757600080fd5b506102b0610396366004612ddb565b610b04565b3480156103a757600080fd5b50610365609a5481565b3480156103bd57600080fd5b506102e06103cc366004612ca8565b610b28565b3480156103dd57600080fd5b506102e06103ec366004612e1c565b610c05565b3480156103fd57600080fd5b5060405160128152602001610287565b34801561041957600080fd5b50610365609b5481565b34801561042f57600080fd5b506102b061043e366004612c7c565b610d8c565b34801561044f57600080fd5b5060a3546102b09060ff1681565b34801561046957600080fd5b506102e0610478366004612e55565b610dae565b34801561048957600080fd5b506102e0610498366004612e1c565b610ed4565b3480156104a957600080fd5b50610365609d5481565b3480156104bf57600080fd5b506103656104ce366004612ca8565b6113d4565b3480156104df57600080fd5b50610365609c5481565b3480156104f557600080fd5b50609e5461050a9060a060020a900460ff1681565b6040516102879190612f1e565b34801561052357600080fd5b506102e0610532366004612ca8565b6113ef565b34801561054357600080fd5b50609e5461055790600160a060020a031681565b604051600160a060020a039091168152602001610287565b34801561057b57600080fd5b506102e061058a366004612e1c565b6115d7565b34801561059b57600080fd5b5061027a611704565b3480156105b057600080fd5b506102e0611713565b3480156105c557600080fd5b5061036560a45481565b3480156105db57600080fd5b506102b06105ea366004612c7c565b611852565b3480156105fb57600080fd5b506102b061060a366004612c7c565b6118e8565b34801561061b57600080fd5b5061036560a25481565b34801561063157600080fd5b5061036560995481565b34801561064757600080fd5b506102e06118f6565b6102e0611a36565b34801561066457600080fd5b50610365610673366004612ca8565b60a56020526000908152604090205481565b34801561069157600080fd5b506102e0611c60565b3480156106a657600080fd5b5060975461055790600160a060020a031681565b3480156106c657600080fd5b50610365611c6a565b3480156106db57600080fd5b506103656106ea366004612f49565b611c91565b3480156106fb57600080fd5b5061036560a15481565b34801561071157600080fd5b50609f5461055790600160a060020a031681565b34801561073157600080fd5b5060a05461055790600160a060020a031681565b34801561075157600080fd5b506102e0611cbc565b34801561076657600080fd5b506105577398878b06940ae243284ca214f92bb71a2b032b8a81565b34801561078e57600080fd5b5060985461055790600160a060020a031681565b6060603680546107b190612f82565b80601f01602080910402602001604051908101604052809291908181526020018280546107dd90612f82565b801561082a5780601f106107ff5761010080835404028352916020019161082a565b820191906000526020600020905b81548152906001019060200180831161080d57829003601f168201915b5050505050905090565b600033610842818585611e61565b5060019392505050565b60a054600160a060020a031633146108825760405160e560020a62461bcd02815260040161087990612fbf565b60405180910390fd5b60a08054600160a060020a031916600160a060020a0392909216919091179055565b6001609e5460a060020a900460ff1660038111156108c4576108c4612f05565b146109145760405160e560020a62461bcd02815260206004820152601760248201527f6269643a61756374696f6e206973206e6f74206c6976650000000000000000006044820152606401610879565b609f54604080517f7c513c0f0000000000000000000000000000000000000000000000000000000081529051600092600160a060020a031691637c513c0f916004808301926020929190829003018187875af1158015610978573d6000803e3d6000fd5b505050506040513d601f19601f8201168201806040525081019061099c9190612ff6565b6109a8906103e8613028565b905080609d546109b89190613040565b6109c4346103e8613040565b1015610a155760405160e560020a62461bcd02815260206004820152600f60248201527f6269643a746f6f206c6f772062696400000000000000000000000000000000006044820152606401610879565b609a544210610a695760405160e560020a62461bcd02815260206004820152601160248201527f6269643a61756374696f6e20656e6465640000000000000000000000000000006044820152606401610879565b61038442609a54610a7a919061305f565b11610a9957610384609a6000828254610a939190613028565b90915550505b609e54609d54610ab291600160a060020a031690611fbf565b34609d819055609e8054600160a060020a03191633908117909155604051918252907fe684a55f31b79eca403df938249029212a5925ec6be8012e099b45bc1019e5d29060200160405180910390a250565b600033610b12858285612132565b610b1d8585856121af565b506001949350505050565b609f60009054906101000a9004600160a060020a0316600160a060020a0316638da5cb5b6040518163ffffffff1660e060020a028152600401602060405180830381865afa158015610b7e573d6000803e3d6000fd5b505050506040513d601f19601f82011682018060405250810190610ba29190613076565b600160a060020a031633600160a060020a0316146108825760405160e560020a62461bcd02815260206004820152600c60248201527f6b69636b3a6e6f7420676f7600000000000000000000000000000000000000006044820152606401610879565b60a054600160a060020a03163314610c325760405160e560020a62461bcd02815260040161087990612fbf565b609f60009054906101000a9004600160a060020a0316600160a060020a031663a0b335e36040518163ffffffff1660e060020a0281526004016020604051808303816000875af1158015610c8a573d6000803e3d6000fd5b505050506040513d601f19601f82011682018060405250810190610cae9190612ff6565b8110158015610d385750609f60009054906101000a9004600160a060020a0316600160a060020a0316630e519ef96040518163ffffffff1660e060020a0281526004016020604051808303816000875af1158015610d10573d6000803e3d6000fd5b505050506040513d601f19601f82011682018060405250810190610d349190612ff6565b8111155b610d875760405160e560020a62461bcd02815260206004820152601d60248201527f7570646174653a696e76616c69642061756374696f6e206c656e6774680000006044820152606401610879565b609b55565b600033610842818585610d9f8383611c91565b610da99190613028565b611e61565b6000610dba60016123c8565b90508015610dd2576000805461ff0019166101001790555b610ddc8383612456565b610de461248e565b60988054600160a060020a031916600160a060020a038a161790556099879055610e0e8686613040565b609c5562093a80609b5560a08054600160a060020a031916600160a060020a038b1617905560a18490554260a2558415610e485785610e4b565b60005b60a455609e805460a060020a60ff0219169055610e6889876124b8565b600160a060020a038916600090815260a5602052604090208590558015610ec9576000805461ff0019169055604051600181527f7f26b83ff96e1f2b6a682f133852f6798a09c465da95921460cefb38474024989060200160405180910390a15b505050505050505050565b6000609e5460a060020a900460ff166003811115610ef457610ef4612f05565b14610f145760405160e560020a62461bcd02815260040161087990613093565b33600090815260a56020526040902054808203610f465760405160e560020a62461bcd028152600401610879906130f0565b6000610f51336113d4565b905060a454600003610f745760a4819055610f6c8382613040565b609c55611383565b60a45481148015610f8457508115155b15610f9357610f6c8382613040565b8160000361116457600060a454609c54610fad9190613127565b905060006103e8609f60009054906101000a9004600160a060020a0316600160a060020a03166309990a966040518163ffffffff1660e060020a0281526004016020604051808303816000875af115801561100c573d6000803e3d6000fd5b505050506040513d601f19601f820116820180604052508101906110309190612ff6565b61103a9084613040565b6110449190613127565b9050808510156110695760405160e560020a62461bcd0281526004016108799061314c565b60006103e8609f60009054906101000a9004600160a060020a0316600160a060020a0316635410bfc96040518163ffffffff1660e060020a0281526004016020604051808303816000875af11580156110c6573d6000803e3d6000fd5b505050506040513d601f19601f820116820180604052508101906110ea9190612ff6565b6110f49085613040565b6110fe9190613127565b9050808611156111235760405160e560020a62461bcd02815260040161087990613183565b8360a460008282546111359190613028565b9091555061114590508685613040565b609c60008282546111569190613028565b909155506113839350505050565b826000036111aa578060a4600082825461117e919061305f565b9091555061118e90508282613040565b609c600082825461119f919061305f565b909155506113839050565b60008160a4546111ba919061305f565b6111c48385613040565b609c546111d1919061305f565b6111db9190613127565b905060006103e8609f60009054906101000a9004600160a060020a0316600160a060020a03166309990a966040518163ffffffff1660e060020a0281526004016020604051808303816000875af115801561123a573d6000803e3d6000fd5b505050506040513d601f19601f8201168201806040525081019061125e9190612ff6565b6112689084613040565b6112729190613127565b9050808510156112975760405160e560020a62461bcd0281526004016108799061314c565b60006103e8609f60009054906101000a9004600160a060020a0316600160a060020a0316635410bfc96040518163ffffffff1660e060020a0281526004016020604051808303816000875af11580156112f4573d6000803e3d6000fd5b505050506040513d601f19601f820116820180604052508101906113189190612ff6565b6113229085613040565b61132c9190613127565b9050808611156113515760405160e560020a62461bcd02815260040161087990613183565b61135b8585613040565b6113658786613040565b609c546113729190613028565b61137c919061305f565b609c555050505b33600081815260a5602052604090819020859055517f64e6e7bd72b853c4e62fd6ceaca05a104700c70a4cb567c75c7f2242ba7f037c906113c79086815260200190565b60405180910390a2505050565b600160a060020a031660009081526033602052604090205490565b609f60009054906101000a9004600160a060020a0316600160a060020a0316638da5cb5b6040518163ffffffff1660e060020a028152600401602060405180830381865afa158015611445573d6000803e3d6000fd5b505050506040513d601f19601f820116820180604052508101906114699190613076565b600160a060020a031633600160a060020a0316146114cc5760405160e560020a62461bcd02815260206004820152600e60248201527f72656d6f76653a6e6f7420676f760000000000000000000000000000000000006044820152606401610879565b6000609e5460a060020a900460ff1660038111156114ec576114ec612f05565b1461150c5760405160e560020a62461bcd02815260040161087990613093565b600160a060020a038116600090815260a56020526040812054908190036115485760405160e560020a62461bcd028152600401610879906130f0565b6000611553836113d4565b90508060a46000828254611567919061305f565b9091555061157790508282613040565b609c6000828254611588919061305f565b9091555050600160a060020a038316600081815260a560209081526040808320839055519182527f64e6e7bd72b853c4e62fd6ceaca05a104700c70a4cb567c75c7f2242ba7f037c91016113c7565b60a054600160a060020a031633146116045760405160e560020a62461bcd02815260040161087990612fbf565b609f60009054906101000a9004600160a060020a0316600160a060020a0316638a364bc16040518163ffffffff1660e060020a0281526004016020604051808303816000875af115801561165c573d6000803e3d6000fd5b505050506040513d601f19601f820116820180604052508101906116809190612ff6565b8111156116f75760405160e560020a62461bcd028152602060048201526024808201527f7570646174653a63616e6e6f7420696e6372656173652066656520746869732060448201527f68696768000000000000000000000000000000000000000000000000000000006064820152608401610879565b6116ff612594565b60a155565b6060603780546107b190612f82565b6002609e5460a060020a900460ff16600381111561173357611733612f05565b146117835760405160e560020a62461bcd02815260206004820152601960248201527f636173683a7661756c74206e6f7420636c6f73656420796574000000000000006044820152606401610879565b600061178e336113d4565b9050600081116117e35760405160e560020a62461bcd02815260206004820152601a60248201527f636173683a6e6f20746f6b656e7320746f2063617368206f75740000000000006044820152606401610879565b60006117ee60355490565b6117f9303184613040565b6118039190613127565b905061180f33836127f1565b6118193382612976565b60405181815233907f730831a1e4aa2d187ddd8e03d7beeac760a3927da5f112d645e0f8df7494b3679060200160405180910390a25050565b600033816118608286611c91565b9050838110156118db5760405160e560020a62461bcd02815260206004820152602560248201527f45524332303a2064656372656173656420616c6c6f77616e63652062656c6f7760448201527f207a65726f0000000000000000000000000000000000000000000000000000006064820152608401610879565b610b1d8286868403611e61565b6000336108428185856121af565b6000609e5460a060020a900460ff16600381111561191657611916612f05565b146119665760405160e560020a62461bcd02815260206004820152601360248201527f72656465656d3a6e6f2072656465656d696e67000000000000000000000000006044820152606401610879565b6119783361197360355490565b6127f1565b60985460995460405160e060020a6323b872dd028152600160a060020a03909216916323b872dd916119b091309133916004016131ba565b600060405180830381600087803b1580156119ca57600080fd5b505af11580156119de573d6000803e3d6000fd5b5050609e805460a060020a60ff02191674030000000000000000000000000000000000000000179055505060405133907fd1b5ea7fe0f1c2fa09d49c2aa9b2200664ba57a734f1d95481d95b7f99af991c90600090a2565b6000609e5460a060020a900460ff166003811115611a5657611a56612f05565b14611aa65760405160e560020a62461bcd02815260206004820152601760248201527f73746172743a6e6f2061756374696f6e207374617274730000000000000000006044820152606401610879565b611aae611c6a565b341015611b005760405160e560020a62461bcd02815260206004820152601160248201527f73746172743a746f6f206c6f77206269640000000000000000000000000000006044820152606401610879565b603554609f60009054906101000a9004600160a060020a0316600160a060020a03166332977c736040518163ffffffff1660e060020a0281526004016020604051808303816000875af1158015611b5b573d6000803e3d6000fd5b505050506040513d601f19601f82011682018060405250810190611b7f9190612ff6565b611b899190613040565b60a454611b98906103e8613040565b1015611be95760405160e560020a62461bcd02815260206004820152601760248201527f73746172743a6e6f7420656e6f75676820766f746572730000000000000000006044820152606401610879565b609b54611bf69042613028565b609a55609e805434609d81905574ffffffffffffffffffffffffffffffffffffffffff199091163390811760a060020a179092556040519081527fcfb9c5312b25ec7b809d61e638df25f749eae5d5c25399e1c93d1d319bfd5821906020015b60405180910390a2565b611c68612594565b565b600060a454600014611c8b5760a454609c54611c869190613127565b905090565b50600090565b600160a060020a03918216600090815260346020908152604080832093909416825291909152205490565b6001609e5460a060020a900460ff166003811115611cdc57611cdc612f05565b14611d2c5760405160e560020a62461bcd02815260206004820152601c60248201527f656e643a7661756c742068617320616c726561647920636c6f736564000000006044820152606401610879565b609a54421015611d815760405160e560020a62461bcd02815260206004820152601060248201527f656e643a61756374696f6e206c697665000000000000000000000000000000006044820152606401610879565b611d89612594565b609854609e5460995460405160e060020a6323b872dd028152600160a060020a03938416936323b872dd93611dc793309392909116916004016131ba565b600060405180830381600087803b158015611de157600080fd5b505af1158015611df5573d6000803e3d6000fd5b5050609e80547402000000000000000000000000000000000000000060a060020a60ff0219821617909155609d54604051908152600160a060020a0390911692507f8b01f9dd0400d6a1e84369a5fb8f6033934856ffa8ebadd707dca302ab5516959150602001611c56565b600160a060020a038316611edf5760405160e560020a62461bcd028152602060048201526024808201527f45524332303a20617070726f76652066726f6d20746865207a65726f2061646460448201527f72657373000000000000000000000000000000000000000000000000000000006064820152608401610879565b600160a060020a038216611f5e5760405160e560020a62461bcd02815260206004820152602260248201527f45524332303a20617070726f766520746f20746865207a65726f20616464726560448201527f73730000000000000000000000000000000000000000000000000000000000006064820152608401610879565b600160a060020a0383811660008181526034602090815260408083209487168084529482529182902085905590518481527f8c5be1e5ebec7d5bd14f71427d1e84f3dd0314c0f7b2291e5b200ac8c7c3b925910160405180910390a3505050565b7398878b06940ae243284ca214f92bb71a2b032b8a600160a060020a031663d0e30db0826040518263ffffffff1660e060020a0281526004016000604051808303818588803b15801561201157600080fd5b505af1158015612025573d6000803e3d6000fd5b50506040517f70a082310000000000000000000000000000000000000000000000000000000081523060048201527398878b06940ae243284ca214f92bb71a2b032b8a935063a9059cbb925085915083906370a0823190602401602060405180830381865afa15801561209c573d6000803e3d6000fd5b505050506040513d601f19601f820116820180604052508101906120c09190612ff6565b60405160e060020a63ffffffff8516028152600160a060020a03909216600483015260248201526044016020604051808303816000875af1158015612109573d6000803e3d6000fd5b505050506040513d601f19601f8201168201806040525081019061212d91906131de565b505050565b600061213e8484611c91565b905060001981146121a9578181101561219c5760405160e560020a62461bcd02815260206004820152601d60248201527f45524332303a20696e73756666696369656e7420616c6c6f77616e63650000006044820152606401610879565b6121a98484848403611e61565b50505050565b600160a060020a03831661222e5760405160e560020a62461bcd02815260206004820152602560248201527f45524332303a207472616e736665722066726f6d20746865207a65726f20616460448201527f64726573730000000000000000000000000000000000000000000000000000006064820152608401610879565b600160a060020a0382166122ad5760405160e560020a62461bcd02815260206004820152602360248201527f45524332303a207472616e7366657220746f20746865207a65726f206164647260448201527f65737300000000000000000000000000000000000000000000000000000000006064820152608401610879565b6122b8838383612a0e565b600160a060020a0383166000908152603360205260409020548181101561234a5760405160e560020a62461bcd02815260206004820152602660248201527f45524332303a207472616e7366657220616d6f756e742065786365656473206260448201527f616c616e636500000000000000000000000000000000000000000000000000006064820152608401610879565b600160a060020a03808516600090815260336020526040808220858503905591851681529081208054849290612381908490613028565b9250508190555082600160a060020a031684600160a060020a03166000805160206132bb833981519152846040516123bb91815260200190565b60405180910390a36121a9565b60008054610100900460ff1615612412578160ff1660011480156123eb5750303b155b61240a5760405160e560020a62461bcd02815260040161087990613200565b506000919050565b60005460ff80841691161061243c5760405160e560020a62461bcd02815260040161087990613200565b506000805460ff191660ff92909216919091179055600190565b600054610100900460ff166124805760405160e560020a62461bcd0281526004016108799061325d565b61248a8282612b29565b5050565b600054610100900460ff16611c685760405160e560020a62461bcd0281526004016108799061325d565b600160a060020a0382166125115760405160e560020a62461bcd02815260206004820152601f60248201527f45524332303a206d696e7420746f20746865207a65726f2061646472657373006044820152606401610879565b61251d60008383612a0e565b806035600082825461252f9190613028565b9091555050600160a060020a0382166000908152603360205260408120805483929061255c908490613028565b9091555050604051818152600160a060020a038316906000906000805160206132bb8339815191529060200160405180910390a35050565b6002609e5460a060020a900460ff1660038111156125b4576125b4612f05565b0361262a5760405160e560020a62461bcd02815260206004820152602560248201527f636c61696d3a63616e6e6f7420636c61696d2061667465722061756374696f6e60448201527f20656e64730000000000000000000000000000000000000000000000000000006064820152608401610879565b60006103e861263860355490565b60a1546126459190613040565b61264f9190613127565b905060006126616301e1338083613127565b9050600060a25442612673919061305f565b905060006126818383613040565b90506000609f60009054906101000a9004600160a060020a0316600160a060020a031663b3f006746040518163ffffffff1660e060020a0281526004016020604051808303816000875af11580156126dd573d6000803e3d6000fd5b505050506040513d601f19601f820116820180604052508101906127019190613076565b90506000609f60009054906101000a9004600160a060020a0316600160a060020a0316630ea90a126040518163ffffffff1660e060020a0281526004016020604051808303816000875af115801561275d573d6000803e3d6000fd5b505050506040513d601f19601f820116820180604052508101906127819190612ff6565b90506103e861278f60355490565b6127999083613040565b6127a39190613127565b95506127b36301e1338087613127565b945060006127c18686613040565b4260a25560a0549091506127de90600160a060020a0316856124b8565b6127e883826124b8565b50505050505050565b600160a060020a0382166128705760405160e560020a62461bcd02815260206004820152602160248201527f45524332303a206275726e2066726f6d20746865207a65726f2061646472657360448201527f73000000000000000000000000000000000000000000000000000000000000006064820152608401610879565b61287c82600083612a0e565b600160a060020a0382166000908152603360205260409020548181101561290e5760405160e560020a62461bcd02815260206004820152602260248201527f45524332303a206275726e20616d6f756e7420657863656564732062616c616e60448201527f63650000000000000000000000000000000000000000000000000000000000006064820152608401610879565b600160a060020a038316600090815260336020526040812083830390556035805484929061293d90849061305f565b9091555050604051828152600090600160a060020a038516906000805160206132bb8339815191529060200160405180910390a3505050565b600160a060020a0382163b156129d8577398878b06940ae243284ca214f92bb71a2b032b8a600160a060020a031663d0e30db0826040518263ffffffff1660e060020a0281526004016000604051808303818588803b15801561201157600080fd5b604051600160a060020a0383169082156108fc029083906000818181858888f1935050505015801561212d573d6000803e3d6000fd5b600160a060020a03831615801590612a4357506000609e5460a060020a900460ff166003811115612a4157612a41612f05565b145b1561212d57600160a060020a03808416600090815260a56020526040808220549285168252902054808214612b225780600003612ab8578260a46000828254612a8c919061305f565b90915550612a9c90508284613040565b609c6000828254612aad919061305f565b90915550612b229050565b81600003612af3578260a46000828254612ad29190613028565b90915550612ae290508184613040565b609c6000828254612aad9190613028565b612afd8284613040565b612b078285613040565b609c54612b149190613028565b612b1e919061305f565b609c555b5050505050565b600054610100900460ff16612b535760405160e560020a62461bcd0281526004016108799061325d565b8151612b66906036906020850190612b76565b50805161212d9060379060208401905b828054612b8290612f82565b90600052602060002090601f016020900481019282612ba45760008555612bea565b82601f10612bbd57805160ff1916838001178555612bea565b82800160010185558215612bea579182015b82811115612bea578251825591602001919060010190612bcf565b50612bf6929150612bfa565b5090565b5b80821115612bf65760008155600101612bfb565b600060208083528351808285015260005b81811015612c3c57858101830151858201604001528201612c20565b81811115612c4e576000604083870101525b50601f01601f1916929092016040019392505050565b600160a060020a0381168114612c7957600080fd5b50565b60008060408385031215612c8f57600080fd5b8235612c9a81612c64565b946020939093013593505050565b600060208284031215612cba57600080fd5b8135612cc581612c64565b9392505050565b60e060020a634e487b7102600052604160045260246000fd5b600067ffffffffffffffff80841115612d0057612d00612ccc565b604051601f8501601f19908116603f01168101908282118183101715612d2857612d28612ccc565b81604052809350858152868686011115612d4157600080fd5b858560208301376000602087830101525050509392505050565b60008060008060808587031215612d7157600080fd5b8435612d7c81612c64565b93506020850135612d8c81612c64565b925060408501359150606085013567ffffffffffffffff811115612daf57600080fd5b8501601f81018713612dc057600080fd5b612dcf87823560208401612ce5565b91505092959194509250565b600080600060608486031215612df057600080fd5b8335612dfb81612c64565b92506020840135612e0b81612c64565b929592945050506040919091013590565b600060208284031215612e2e57600080fd5b5035919050565b600082601f830112612e4657600080fd5b612cc583833560208501612ce5565b600080600080600080600080610100898b031215612e7257600080fd5b8835612e7d81612c64565b97506020890135612e8d81612c64565b965060408901359550606089013594506080890135935060a0890135925060c089013567ffffffffffffffff80821115612ec657600080fd5b612ed28c838d01612e35565b935060e08b0135915080821115612ee857600080fd5b50612ef58b828c01612e35565b9150509295985092959890939650565b60e060020a634e487b7102600052602160045260246000fd5b6020810160048310612f435760e060020a634e487b7102600052602160045260246000fd5b91905290565b60008060408385031215612f5c57600080fd5b8235612f6781612c64565b91506020830135612f7781612c64565b809150509250929050565b600281046001821680612f9657607f821691505b602082108103612fb95760e060020a634e487b7102600052602260045260246000fd5b50919050565b60208082526012908201527f7570646174653a6e6f742063757261746f720000000000000000000000000000604082015260600190565b60006020828403121561300857600080fd5b5051919050565b60e060020a634e487b7102600052601160045260246000fd5b6000821982111561303b5761303b61300f565b500190565b600081600019048311821515161561305a5761305a61300f565b500290565b6000828210156130715761307161300f565b500390565b60006020828403121561308857600080fd5b8151612cc581612c64565b60208082526027908201527f7570646174653a61756374696f6e206c6976652063616e6e6f7420757064617460408201527f6520707269636500000000000000000000000000000000000000000000000000606082015260800190565b60208082526014908201527f7570646174653a6e6f7420616e20757064617465000000000000000000000000604082015260600190565b6000826131475760e060020a634e487b7102600052601260045260246000fd5b500490565b6020808252601c908201527f7570646174653a7265736572766520707269636520746f6f206c6f7700000000604082015260600190565b6020808252601d908201527f7570646174653a7265736572766520707269636520746f6f2068696768000000604082015260600190565b600160a060020a039384168152919092166020820152604081019190915260600190565b6000602082840312156131f057600080fd5b81518015158114612cc557600080fd5b6020808252602e908201527f496e697469616c697a61626c653a20636f6e747261637420697320616c72656160408201527f647920696e697469616c697a6564000000000000000000000000000000000000606082015260800190565b6020808252602b908201527f496e697469616c697a61626c653a20636f6e7472616374206973206e6f74206960408201527f6e697469616c697a696e6700000000000000000000000000000000000000000060608201526080019056feddf252ad1be2c89b69c2b068fc378daa952ba7f163c4a11628f55a4df523b3efa2646970667358221220cdd95322408e8263f3a64ab36378e3b4d2fd7761c19e29b7709e7e8b491683de64736f6c634300080d0033",
  "immutableReferences": {},
  "source": "//SPDX-License-Identifier: MIT\npragma solidity ^0.8.0;\n\nimport \"./Interfaces/IWMOVR.sol\";\nimport \"@openzeppelin/contracts/utils/math/Math.sol\";\nimport \"@openzeppelin/contracts/token/ERC20/ERC20.sol\";\nimport \"@openzeppelin/contracts/token/ERC721/ERC721.sol\";\nimport \"@openzeppelin/contracts/token/ERC721/utils/ERC721Holder.sol\";\n\nimport \"./Settings.sol\";\nimport \"./SharedStorage.sol\";\n\nimport \"@openzeppelin/contracts-upgradeable/token/ERC721/utils/ERC721HolderUpgradeable.sol\";\nimport \"@openzeppelin/contracts-upgradeable/token/ERC20/ERC20Upgradeable.sol\";\n\ncontract ERC721TokenVault is ERC20Upgradeable, ERC721HolderUpgradeable {\n  // address of logic contract\n  address public logic;\n\n  /// -----------------------------------\n  /// -------- BASIC INFORMATION --------\n  /// -----------------------------------\n\n  /// @notice wmovr address\n  address public constant wmovr = 0x98878B06940aE243284CA214f92Bb71a2b032B8A;\n\n  /// -----------------------------------\n  /// -------- TOKEN INFORMATION --------\n  /// -----------------------------------\n\n  /// @notice the ERC721 token address of the vault's token\n  address public token;\n\n  /// @notice the ERC721 token ID of the vault's token\n  uint256 public id;\n\n  /// -------------------------------------\n  /// -------- AUCTION INFORMATION --------\n  /// -------------------------------------\n\n  /// @notice the unix timestamp end time of the token auction\n  uint256 public auctionEnd;\n\n  /// @notice the length of auctions\n  uint256 public auctionLength;\n\n  /// @notice reservePrice * votingTokens\n  uint256 public reserveTotal;\n\n  /// @notice the current price of the token during an auction\n  uint256 public livePrice;\n\n  /// @notice the current user winning the token auction\n  address payable public winning;\n\n  enum State {\n    inactive,\n    live,\n    ended,\n    redeemed\n  }\n\n  State public auctionState;\n\n  /// -----------------------------------\n  /// -------- VAULT INFORMATION --------\n  /// -----------------------------------\n\n  /// @notice the governance contract which gets paid in MOVR\n  address public settings;\n\n  /// @notice the address who initially deposited the NFT\n  address public curator;\n\n  /// @notice the AUM fee paid to the curator yearly. 3 decimals. ie. 100 = 10%\n  uint256 public fee;\n\n  /// @notice the last timestamp where fees were claimed\n  uint256 public lastClaimed;\n\n  /// @notice a boolean to indicate if the vault has closed\n  bool public vaultClosed;\n\n  /// @notice the number of ownership tokens voting on the reserve price at any given time\n  uint256 public votingTokens;\n\n  /// @notice a mapping of users to their desired token price\n  mapping(address => uint256) public userPrices;\n\n  /// ------------------------\n  /// -------- EVENTS --------\n  /// ------------------------\n\n  /// @notice An event emitted when a user updates their price\n  event PriceUpdate(address indexed user, uint256 price);\n\n  /// @notice An event emitted when an auction starts\n  event Start(address indexed buyer, uint256 price);\n\n  /// @notice An event emitted when a bid is made\n  event Bid(address indexed buyer, uint256 price);\n\n  /// @notice An event emitted when an auction is won\n  event Won(address indexed buyer, uint256 price);\n\n  /// @notice An event emitted when someone redeems all tokens for the NFT\n  event Redeem(address indexed redeemer);\n\n  /// @notice An event emitted when someone cashes in ERC20 tokens for MOVR from an ERC721 token sale\n  event Cash(address indexed owner, uint256 shares);\n\n  using Address for address;\n\n  constructor(address _settings) {\n    settings = _settings;\n  }\n\n  function initialize(\n    address _curator,\n    address _token,\n    uint256 _id,\n    uint256 _supply,\n    uint256 _listPrice,\n    uint256 _fee,\n    string memory _name,\n    string memory _symbol\n  ) external initializer {\n    // initialize inherited contracts\n    __ERC20_init(_name, _symbol);\n    __ERC721Holder_init();\n    // set storage variables\n    token = _token;\n    id = _id;\n    reserveTotal = _listPrice * _supply;\n    auctionLength = 7 days;\n    curator = _curator;\n    fee = _fee;\n    lastClaimed = block.timestamp;\n    votingTokens = _listPrice == 0 ? 0 : _supply;\n\n    auctionState = State.inactive;\n\n    _mint(_curator, _supply);\n    userPrices[_curator] = _listPrice;\n  }\n\n  /// --------------------------------\n  /// -------- VIEW FUNCTIONS --------\n  /// --------------------------------\n\n  function reservePrice() public view returns (uint256) {\n    return votingTokens == 0 ? 0 : reserveTotal / votingTokens;\n  }\n\n  /// -------------------------------\n  /// -------- GOV FUNCTIONS --------\n  /// -------------------------------\n\n  /// @notice allow governance to boot a bad actor curator\n  /// @param _curator the new curator\n  function kickCurator(address _curator) external {\n    require(msg.sender == Ownable(settings).owner(), \"kick:not gov\");\n\n    curator = _curator;\n  }\n\n  /// @notice allow governance to remove bad reserve prices\n  function removeReserve(address _user) external {\n    require(msg.sender == Ownable(settings).owner(), \"remove:not gov\");\n    require(\n      auctionState == State.inactive,\n      \"update:auction live cannot update price\"\n    );\n\n    uint256 old = userPrices[_user];\n    require(0 != old, \"update:not an update\");\n    uint256 weight = balanceOf(_user);\n\n    votingTokens -= weight;\n    reserveTotal -= weight * old;\n\n    userPrices[_user] = 0;\n\n    emit PriceUpdate(_user, 0);\n  }\n\n  /// -----------------------------------\n  /// -------- CURATOR FUNCTIONS --------\n  /// -----------------------------------\n\n  /// @notice allow curator to update the curator address\n  /// @param _curator the new curator\n  function updateCurator(address _curator) external {\n    require(msg.sender == curator, \"update:not curator\");\n\n    curator = _curator;\n  }\n\n  /// @notice allow curator to update the auction length\n  /// @param _length the new base price\n  function updateAuctionLength(uint256 _length) external {\n    require(msg.sender == curator, \"update:not curator\");\n    require(\n      _length >= ISettings(settings).minAuctionLength() &&\n        _length <= ISettings(settings).maxAuctionLength(),\n      \"update:invalid auction length\"\n    );\n\n    auctionLength = _length;\n  }\n\n  /// @notice allow the curator to change their fee\n  /// @param _fee the new fee\n  function updateFee(uint256 _fee) external {\n    require(msg.sender == curator, \"update:not curator\");\n    require(\n      _fee <= ISettings(settings).maxCuratorFee(),\n      \"update:cannot increase fee this high\"\n    );\n\n    _claimFees();\n\n    fee = _fee;\n  }\n\n  /// @notice external function to claim fees for the curator and governance\n  function claimFees() external {\n    _claimFees();\n  }\n\n  /// @dev interal fuction to calculate and mint fees\n  function _claimFees() internal {\n    require(\n      auctionState != State.ended,\n      \"claim:cannot claim after auction ends\"\n    );\n\n    // get how much in fees the curator would make in a year\n    uint256 currentAnnualFee = (fee * totalSupply()) / 1000;\n    // get how much that is per second;\n    uint256 feePerSecond = currentAnnualFee / 31536000;\n    // get how many seconds they are eligible to claim\n    uint256 sinceLastClaim = block.timestamp - lastClaimed;\n    // get the amount of tokens to mint\n    uint256 curatorMint = sinceLastClaim * feePerSecond;\n\n    // now lets do the same for governance\n    address govAddress = ISettings(settings).feeReceiver();\n    uint256 govFee = ISettings(settings).governanceFee();\n    currentAnnualFee = (govFee * totalSupply()) / 1000;\n    feePerSecond = currentAnnualFee / 31536000;\n    uint256 govMint = sinceLastClaim * feePerSecond;\n\n    lastClaimed = block.timestamp;\n\n    _mint(curator, curatorMint);\n    _mint(govAddress, govMint);\n  }\n\n  /// --------------------------------\n  /// -------- CORE FUNCTIONS --------\n  /// --------------------------------\n\n  /// @notice a function for an end user to update their desired sale price\n  /// @param _new the desired price in MOVR\n  function updateUserPrice(uint256 _new) external {\n    require(\n      auctionState == State.inactive,\n      \"update:auction live cannot update price\"\n    );\n    uint256 old = userPrices[msg.sender];\n    require(_new != old, \"update:not an update\");\n    uint256 weight = balanceOf(msg.sender);\n\n    if (votingTokens == 0) {\n      votingTokens = weight;\n      reserveTotal = weight * _new;\n    }\n    // they are the only one voting\n    else if (weight == votingTokens && old != 0) {\n      reserveTotal = weight * _new;\n    }\n    // previously they were not voting\n    else if (old == 0) {\n      uint256 averageReserve = reserveTotal / votingTokens;\n\n      uint256 reservePriceMin = (averageReserve *\n        ISettings(settings).minReserveFactor()) / 1000;\n      require(_new >= reservePriceMin, \"update:reserve price too low\");\n      uint256 reservePriceMax = (averageReserve *\n        ISettings(settings).maxReserveFactor()) / 1000;\n      require(_new <= reservePriceMax, \"update:reserve price too high\");\n\n      votingTokens += weight;\n      reserveTotal += weight * _new;\n    }\n    // they no longer want to vote\n    else if (_new == 0) {\n      votingTokens -= weight;\n      reserveTotal -= weight * old;\n    }\n    // they are updating their vote\n    else {\n      uint256 averageReserve = (reserveTotal - (old * weight)) /\n        (votingTokens - weight);\n\n      uint256 reservePriceMin = (averageReserve *\n        ISettings(settings).minReserveFactor()) / 1000;\n      require(_new >= reservePriceMin, \"update:reserve price too low\");\n      uint256 reservePriceMax = (averageReserve *\n        ISettings(settings).maxReserveFactor()) / 1000;\n      require(_new <= reservePriceMax, \"update:reserve price too high\");\n\n      reserveTotal = reserveTotal + (weight * _new) - (weight * old);\n    }\n\n    userPrices[msg.sender] = _new;\n\n    emit PriceUpdate(msg.sender, _new);\n  }\n\n  /// @notice an internal function used to update sender and receivers price on token transfer\n  /// @param _from the ERC20 token sender\n  /// @param _to the ERC20 token receiver\n  /// @param _amount the ERC20 token amount\n  function _beforeTokenTransfer(\n    address _from,\n    address _to,\n    uint256 _amount\n  ) internal virtual override {\n    if (_from != address(0) && auctionState == State.inactive) {\n      uint256 fromPrice = userPrices[_from];\n      uint256 toPrice = userPrices[_to];\n\n      // only do something if users have different reserve price\n      if (toPrice != fromPrice) {\n        // new holder is not a voter\n        if (toPrice == 0) {\n          // get the average reserve price ignoring the senders amount\n          votingTokens -= _amount;\n          reserveTotal -= _amount * fromPrice;\n        }\n        // old holder is not a voter\n        else if (fromPrice == 0) {\n          votingTokens += _amount;\n          reserveTotal += _amount * toPrice;\n        }\n        // both holders are voters\n        else {\n          reserveTotal =\n            reserveTotal +\n            (_amount * toPrice) -\n            (_amount * fromPrice);\n        }\n      }\n    }\n  }\n\n  /// @notice kick off an auction. Must send reservePrice in MOVR\n  function start() external payable {\n    require(auctionState == State.inactive, \"start:no auction starts\");\n    require(msg.value >= reservePrice(), \"start:too low bid\");\n    require(\n      votingTokens * 1000 >=\n        ISettings(settings).minVotePercentage() * totalSupply(),\n      \"start:not enough voters\"\n    );\n\n    auctionEnd = block.timestamp + auctionLength;\n    auctionState = State.live;\n\n    livePrice = msg.value;\n    winning = payable(msg.sender);\n\n    emit Start(msg.sender, msg.value);\n  }\n\n  /// @notice an external function to bid on purchasing the vaults NFT. The msg.value is the bid amount\n  function bid() external payable {\n    require(auctionState == State.live, \"bid:auction is not live\");\n    uint256 increase = ISettings(settings).minBidIncrease() + 1000;\n    require(msg.value * 1000 >= livePrice * increase, \"bid:too low bid\");\n    require(block.timestamp < auctionEnd, \"bid:auction ended\");\n\n    // If bid is within 15 minutes of auction end, extend auction\n    if (auctionEnd - block.timestamp <= 15 minutes) {\n      auctionEnd += 15 minutes;\n    }\n\n    _sendWMOVR(winning, livePrice);\n\n    livePrice = msg.value;\n    winning = payable(msg.sender);\n\n    emit Bid(msg.sender, msg.value);\n  }\n\n  /// @notice an external function to end an auction after the timer has run out\n  function end() external {\n    require(auctionState == State.live, \"end:vault has already closed\");\n    require(block.timestamp >= auctionEnd, \"end:auction live\");\n\n    _claimFees();\n\n    // transfer erc721 to winner\n    IERC721(token).transferFrom(address(this), winning, id);\n\n    auctionState = State.ended;\n\n    emit Won(winning, livePrice);\n  }\n\n  /// @notice an external function to burn all ERC20 tokens to receive the ERC721 token\n  function redeem() external {\n    require(auctionState == State.inactive, \"redeem:no redeeming\");\n    _burn(msg.sender, totalSupply());\n\n    // transfer erc721 to redeemer\n    IERC721(token).transferFrom(address(this), msg.sender, id);\n\n    auctionState = State.redeemed;\n\n    emit Redeem(msg.sender);\n  }\n\n  /// @notice an external function to burn ERC20 tokens to receive MOVR from ERC721 token purchase\n  function cash() external {\n    require(auctionState == State.ended, \"cash:vault not closed yet\");\n    uint256 bal = balanceOf(msg.sender);\n    require(bal > 0, \"cash:no tokens to cash out\");\n    uint256 share = (bal * address(this).balance) / totalSupply();\n    _burn(msg.sender, bal);\n\n    _sendMOVROrWMOVR(payable(msg.sender), share);\n\n    emit Cash(msg.sender, share);\n  }\n\n  /// @dev internal helper function to send MOVR and WMOVR on failure\n  function _sendWMOVR(address who, uint256 amount) internal {\n    IWMOVR(wmovr).deposit{ value: amount }();\n    IWMOVR(wmovr).transfer(who, IWMOVR(wmovr).balanceOf(address(this)));\n  }\n\n  /// @dev internal helper function to send MOVR and WMOVR on failure\n  function _sendMOVROrWMOVR(address who, uint256 amount) internal {\n    // contracts get bet WMOVR because they can be mean\n    if (who.isContract()) {\n      IWMOVR(wmovr).deposit{ value: amount }();\n      IWMOVR(wmovr).transfer(who, IWMOVR(wmovr).balanceOf(address(this)));\n    } else {\n      payable(who).transfer(amount);\n    }\n  }\n}\n",
  "sourcePath": "/Users/drewhyte/Sites/SOLIDITY/openland-contract-moonriver/contracts/ERC721TokenVault.sol",
  "compiler": {
    "name": "solc",
    "version": "0.8.13+commit.abaa5c0e.Emscripten.clang"
  },
  "schemaVersion": "3.4.6",
  "updatedAt": "2022-05-15T21:24:29.670Z",
  "devdoc": {
    "kind": "dev",
    "methods": {
      "allowance(address,address)": {
        "details": "See {IERC20-allowance}."
      },
      "approve(address,uint256)": {
        "details": "See {IERC20-approve}. NOTE: If `amount` is the maximum `uint256`, the allowance is not updated on `transferFrom`. This is semantically equivalent to an infinite approval. Requirements: - `spender` cannot be the zero address."
      },
      "balanceOf(address)": {
        "details": "See {IERC20-balanceOf}."
      },
      "decimals()": {
        "details": "Returns the number of decimals used to get its user representation. For example, if `decimals` equals `2`, a balance of `505` tokens should be displayed to a user as `5.05` (`505 / 10 ** 2`). Tokens usually opt for a value of 18, imitating the relationship between Ether and Wei. This is the value {ERC20} uses, unless this function is overridden; NOTE: This information is only used for _display_ purposes: it in no way affects any of the arithmetic of the contract, including {IERC20-balanceOf} and {IERC20-transfer}."
      },
      "decreaseAllowance(address,uint256)": {
        "details": "Atomically decreases the allowance granted to `spender` by the caller. This is an alternative to {approve} that can be used as a mitigation for problems described in {IERC20-approve}. Emits an {Approval} event indicating the updated allowance. Requirements: - `spender` cannot be the zero address. - `spender` must have allowance for the caller of at least `subtractedValue`."
      },
      "increaseAllowance(address,uint256)": {
        "details": "Atomically increases the allowance granted to `spender` by the caller. This is an alternative to {approve} that can be used as a mitigation for problems described in {IERC20-approve}. Emits an {Approval} event indicating the updated allowance. Requirements: - `spender` cannot be the zero address."
      },
      "kickCurator(address)": {
        "params": {
          "_curator": "the new curator"
        }
      },
      "name()": {
        "details": "Returns the name of the token."
      },
      "onERC721Received(address,address,uint256,bytes)": {
        "details": "See {IERC721Receiver-onERC721Received}. Always returns `IERC721Receiver.onERC721Received.selector`."
      },
      "symbol()": {
        "details": "Returns the symbol of the token, usually a shorter version of the name."
      },
      "totalSupply()": {
        "details": "See {IERC20-totalSupply}."
      },
      "transfer(address,uint256)": {
        "details": "See {IERC20-transfer}. Requirements: - `to` cannot be the zero address. - the caller must have a balance of at least `amount`."
      },
      "transferFrom(address,address,uint256)": {
        "details": "See {IERC20-transferFrom}. Emits an {Approval} event indicating the updated allowance. This is not required by the EIP. See the note at the beginning of {ERC20}. NOTE: Does not update the allowance if the current allowance is the maximum `uint256`. Requirements: - `from` and `to` cannot be the zero address. - `from` must have a balance of at least `amount`. - the caller must have allowance for ``from``'s tokens of at least `amount`."
      },
      "updateAuctionLength(uint256)": {
        "params": {
          "_length": "the new base price"
        }
      },
      "updateCurator(address)": {
        "params": {
          "_curator": "the new curator"
        }
      },
      "updateFee(uint256)": {
        "params": {
          "_fee": "the new fee"
        }
      },
      "updateUserPrice(uint256)": {
        "params": {
          "_new": "the desired price in MOVR"
        }
      }
    },
    "version": 1
  },
  "userdoc": {
    "events": {
      "Bid(address,uint256)": {
        "notice": "An event emitted when a bid is made"
      },
      "Cash(address,uint256)": {
        "notice": "An event emitted when someone cashes in ERC20 tokens for MOVR from an ERC721 token sale"
      },
      "PriceUpdate(address,uint256)": {
        "notice": "An event emitted when a user updates their price"
      },
      "Redeem(address)": {
        "notice": "An event emitted when someone redeems all tokens for the NFT"
      },
      "Start(address,uint256)": {
        "notice": "An event emitted when an auction starts"
      },
      "Won(address,uint256)": {
        "notice": "An event emitted when an auction is won"
      }
    },
    "kind": "user",
    "methods": {
      "auctionEnd()": {
        "notice": "the unix timestamp end time of the token auction"
      },
      "auctionLength()": {
        "notice": "the length of auctions"
      },
      "bid()": {
        "notice": "an external function to bid on purchasing the vaults NFT. The msg.value is the bid amount"
      },
      "cash()": {
        "notice": "an external function to burn ERC20 tokens to receive MOVR from ERC721 token purchase"
      },
      "claimFees()": {
        "notice": "external function to claim fees for the curator and governance"
      },
      "curator()": {
        "notice": "the address who initially deposited the NFT"
      },
      "end()": {
        "notice": "an external function to end an auction after the timer has run out"
      },
      "fee()": {
        "notice": "the AUM fee paid to the curator yearly. 3 decimals. ie. 100 = 10%"
      },
      "id()": {
        "notice": "the ERC721 token ID of the vault's token"
      },
      "kickCurator(address)": {
        "notice": "allow governance to boot a bad actor curator"
      },
      "lastClaimed()": {
        "notice": "the last timestamp where fees were claimed"
      },
      "livePrice()": {
        "notice": "the current price of the token during an auction"
      },
      "redeem()": {
        "notice": "an external function to burn all ERC20 tokens to receive the ERC721 token"
      },
      "removeReserve(address)": {
        "notice": "allow governance to remove bad reserve prices"
      },
      "reservePrice()": {
        "notice": "-------------------------------- -------- VIEW FUNCTIONS -------- --------------------------------"
      },
      "reserveTotal()": {
        "notice": "reservePrice * votingTokens"
      },
      "settings()": {
        "notice": "the governance contract which gets paid in MOVR"
      },
      "start()": {
        "notice": "kick off an auction. Must send reservePrice in MOVR"
      },
      "token()": {
        "notice": "the ERC721 token address of the vault's token"
      },
      "updateAuctionLength(uint256)": {
        "notice": "allow curator to update the auction length"
      },
      "updateCurator(address)": {
        "notice": "allow curator to update the curator address"
      },
      "updateFee(uint256)": {
        "notice": "allow the curator to change their fee"
      },
      "updateUserPrice(uint256)": {
        "notice": "a function for an end user to update their desired sale price"
      },
      "userPrices(address)": {
        "notice": "a mapping of users to their desired token price"
      },
      "vaultClosed()": {
        "notice": "a boolean to indicate if the vault has closed"
      },
      "votingTokens()": {
        "notice": "the number of ownership tokens voting on the reserve price at any given time"
      },
      "winning()": {
        "notice": "the current user winning the token auction"
      },
      "wmovr()": {
        "notice": "wmovr address"
      }
    },
    "version": 1
  }
}