{
  "contractName": "ERC721VaultFactory",
  "abi": [
    {
      "inputs": [
        {
          "internalType": "address",
          "name": "_settings",
          "type": "address"
        }
      ],
      "stateMutability": "nonpayable",
      "type": "constructor"
    },
    {
      "anonymous": false,
      "inputs": [
        {
          "indexed": true,
          "internalType": "address",
          "name": "token",
          "type": "address"
        },
        {
          "indexed": false,
          "internalType": "uint256",
          "name": "id",
          "type": "uint256"
        },
        {
          "indexed": false,
          "internalType": "uint256",
          "name": "price",
          "type": "uint256"
        },
        {
          "indexed": false,
          "internalType": "address",
          "name": "vault",
          "type": "address"
        },
        {
          "indexed": false,
          "internalType": "uint256",
          "name": "vaultId",
          "type": "uint256"
        }
      ],
      "name": "Mint",
      "type": "event"
    },
    {
      "anonymous": false,
      "inputs": [
        {
          "indexed": true,
          "internalType": "address",
          "name": "previousOwner",
          "type": "address"
        },
        {
          "indexed": true,
          "internalType": "address",
          "name": "newOwner",
          "type": "address"
        }
      ],
      "name": "OwnershipTransferred",
      "type": "event"
    },
    {
      "anonymous": false,
      "inputs": [
        {
          "indexed": false,
          "internalType": "address",
          "name": "account",
          "type": "address"
        }
      ],
      "name": "Paused",
      "type": "event"
    },
    {
      "anonymous": false,
      "inputs": [
        {
          "indexed": false,
          "internalType": "address",
          "name": "account",
          "type": "address"
        }
      ],
      "name": "Unpaused",
      "type": "event"
    },
    {
      "inputs": [],
      "name": "logic",
      "outputs": [
        {
          "internalType": "address",
          "name": "",
          "type": "address"
        }
      ],
      "stateMutability": "view",
      "type": "function"
    },
    {
      "inputs": [],
      "name": "owner",
      "outputs": [
        {
          "internalType": "address",
          "name": "",
          "type": "address"
        }
      ],
      "stateMutability": "view",
      "type": "function"
    },
    {
      "inputs": [],
      "name": "paused",
      "outputs": [
        {
          "internalType": "bool",
          "name": "",
          "type": "bool"
        }
      ],
      "stateMutability": "view",
      "type": "function"
    },
    {
      "inputs": [],
      "name": "renounceOwnership",
      "outputs": [],
      "stateMutability": "nonpayable",
      "type": "function"
    },
    {
      "inputs": [],
      "name": "settings",
      "outputs": [
        {
          "internalType": "address",
          "name": "",
          "type": "address"
        }
      ],
      "stateMutability": "view",
      "type": "function"
    },
    {
      "inputs": [
        {
          "internalType": "address",
          "name": "newOwner",
          "type": "address"
        }
      ],
      "name": "transferOwnership",
      "outputs": [],
      "stateMutability": "nonpayable",
      "type": "function"
    },
    {
      "inputs": [],
      "name": "vaultCount",
      "outputs": [
        {
          "internalType": "uint256",
          "name": "",
          "type": "uint256"
        }
      ],
      "stateMutability": "view",
      "type": "function"
    },
    {
      "inputs": [
        {
          "internalType": "uint256",
          "name": "",
          "type": "uint256"
        }
      ],
      "name": "vaults",
      "outputs": [
        {
          "internalType": "address",
          "name": "",
          "type": "address"
        }
      ],
      "stateMutability": "view",
      "type": "function"
    },
    {
      "inputs": [
        {
          "internalType": "string",
          "name": "_name",
          "type": "string"
        },
        {
          "internalType": "string",
          "name": "_symbol",
          "type": "string"
        },
        {
          "internalType": "address",
          "name": "_token",
          "type": "address"
        },
        {
          "internalType": "uint256",
          "name": "_id",
          "type": "uint256"
        },
        {
          "internalType": "uint256",
          "name": "_supply",
          "type": "uint256"
        },
        {
          "internalType": "uint256",
          "name": "_listPrice",
          "type": "uint256"
        },
        {
          "internalType": "uint256",
          "name": "_fee",
          "type": "uint256"
        }
      ],
      "name": "mint",
      "outputs": [
        {
          "internalType": "uint256",
          "name": "",
          "type": "uint256"
        }
      ],
      "stateMutability": "nonpayable",
      "type": "function"
    },
    {
      "inputs": [],
      "name": "pause",
      "outputs": [],
      "stateMutability": "nonpayable",
      "type": "function"
    },
    {
      "inputs": [],
      "name": "unpause",
      "outputs": [],
      "stateMutability": "nonpayable",
      "type": "function"
    },
    {
      "inputs": [
        {
          "internalType": "uint256",
          "name": "_id",
          "type": "uint256"
        }
      ],
      "name": "getVault",
      "outputs": [
        {
          "internalType": "address",
          "name": "",
          "type": "address"
        }
      ],
      "stateMutability": "view",
      "type": "function"
    }
  ],
  "bytecode": "0x60c06040523480156200001157600080fd5b50604051620079fe380380620079fe83398181016040528101906200003791906200026e565b62000069620000546200012a640100000000026401000000009004565b62000132640100000000026401000000009004565b60008060146101000a81548160ff0219169083151502179055508073ffffffffffffffffffffffffffffffffffffffff1660808173ffffffffffffffffffffffffffffffffffffffff168152505080604051620000c690620001f6565b620000d29190620002b1565b604051809103906000f080158015620000ef573d6000803e3d6000fd5b5073ffffffffffffffffffffffffffffffffffffffff1660a08173ffffffffffffffffffffffffffffffffffffffff168152505050620002ce565b600033905090565b60008060009054906101000a900473ffffffffffffffffffffffffffffffffffffffff169050816000806101000a81548173ffffffffffffffffffffffffffffffffffffffff021916908373ffffffffffffffffffffffffffffffffffffffff1602179055508173ffffffffffffffffffffffffffffffffffffffff168173ffffffffffffffffffffffffffffffffffffffff167f8be0079c531659141344cd1fd0a4f28419497f9722a3daafe3b4186f6b6457e060405160405180910390a35050565b615d048062001cfa83390190565b600080fd5b600073ffffffffffffffffffffffffffffffffffffffff82169050919050565b6000620002368262000209565b9050919050565b620002488162000229565b81146200025457600080fd5b50565b60008151905062000268816200023d565b92915050565b60006020828403121562000287576200028662000204565b5b6000620002978482850162000257565b91505092915050565b620002ab8162000229565b82525050565b6000602082019050620002c86000830184620002a0565b92915050565b60805160a0516119ff620002fb600039600081816105cf01526107a0015260006107c401526119ff6000f3fe60806040523480156200001157600080fd5b5060043610620000e1576000357c0100000000000000000000000000000000000000000000000000000000900480639403b63411620000985780639403b6341462000184578063a7c6a10014620001ba578063bdc0111014620001dc578063d7dfa0dd1462000212578063e06174e41462000234578063f2fde38b146200025657620000e1565b80633f4ba83a14620000e65780635c975abb14620000f2578063715018a614620001145780638456cb5914620001205780638c64ea4a146200012c5780638da5cb5b1462000162575b600080fd5b620000f062000276565b005b620000fc62000305565b6040516200010b919062000b36565b60405180910390f35b6200011e6200031b565b005b6200012a620003ac565b005b6200014a600480360381019062000144919062000ba2565b6200043b565b60405162000159919062000c19565b60405180910390f35b6200016c6200046e565b6040516200017b919062000c19565b60405180910390f35b620001a260048036038101906200019c919062000ba2565b62000497565b604051620001b1919062000c19565b60405180910390f35b620001c4620004d4565b604051620001d3919062000c47565b60405180910390f35b620001fa6004803603810190620001f4919062000df7565b620004da565b60405162000209919062000c47565b60405180910390f35b6200021c6200079e565b6040516200022b919062000c19565b60405180910390f35b6200023e620007c2565b6040516200024d919062000c19565b60405180910390f35b6200027460048036038101906200026e919062000ee8565b620007e6565b005b62000280620008e9565b73ffffffffffffffffffffffffffffffffffffffff16620002a06200046e565b73ffffffffffffffffffffffffffffffffffffffff1614620002f9576040517f08c379a0000000000000000000000000000000000000000000000000000000008152600401620002f09062000f7b565b60405180910390fd5b62000303620008f1565b565b60008060149054906101000a900460ff16905090565b62000325620008e9565b73ffffffffffffffffffffffffffffffffffffffff16620003456200046e565b73ffffffffffffffffffffffffffffffffffffffff16146200039e576040517f08c379a0000000000000000000000000000000000000000000000000000000008152600401620003959062000f7b565b60405180910390fd5b620003aa60006200099b565b565b620003b6620008e9565b73ffffffffffffffffffffffffffffffffffffffff16620003d66200046e565b73ffffffffffffffffffffffffffffffffffffffff16146200042f576040517f08c379a0000000000000000000000000000000000000000000000000000000008152600401620004269062000f7b565b60405180910390fd5b6200043962000a5f565b565b60026020528060005260406000206000915054906101000a900473ffffffffffffffffffffffffffffffffffffffff1681565b60008060009054906101000a900473ffffffffffffffffffffffffffffffffffffffff16905090565b60006002600083815260200190815260200160002060009054906101000a900473ffffffffffffffffffffffffffffffffffffffff169050919050565b60015481565b6000620004e662000305565b1562000529576040517f08c379a0000000000000000000000000000000000000000000000000000000008152600401620005209062000fed565b60405180910390fd5b60003387878787878e8e6040516024016200054c98979695949392919062001091565b6040516020818303038152906040527f626fb2f0000000000000000000000000000000000000000000000000000000007bffffffffffffffffffffffffffffffffffffffffffffffffffffffff19166020820180517bffffffffffffffffffffffffffffffffffffffffffffffffffffffff8381831617835250505050905060007f000000000000000000000000000000000000000000000000000000000000000082604051620005fd9062000b0b565b6200060a9291906200118a565b604051809103906000f08015801562000627573d6000803e3d6000fd5b5090508773ffffffffffffffffffffffffffffffffffffffff167ff9c32fbc56ff04f32a233ebc26e388564223745e28abd8d0781dd906537f563e8887846001546040516200067a9493929190620011be565b60405180910390a28773ffffffffffffffffffffffffffffffffffffffff166342842e0e33838a6040518463ffffffff167c0100000000000000000000000000000000000000000000000000000000028152600401620006dd939291906200120b565b600060405180830381600087803b158015620006f857600080fd5b505af11580156200070d573d6000803e3d6000fd5b505050508060026000600154815260200190815260200160002060006101000a81548173ffffffffffffffffffffffffffffffffffffffff021916908373ffffffffffffffffffffffffffffffffffffffff160217905550600160008154809291906200077a9062001277565b9190505550600180546200078f9190620012c4565b92505050979650505050505050565b7f000000000000000000000000000000000000000000000000000000000000000081565b7f000000000000000000000000000000000000000000000000000000000000000081565b620007f0620008e9565b73ffffffffffffffffffffffffffffffffffffffff16620008106200046e565b73ffffffffffffffffffffffffffffffffffffffff161462000869576040517f08c379a0000000000000000000000000000000000000000000000000000000008152600401620008609062000f7b565b60405180910390fd5b600073ffffffffffffffffffffffffffffffffffffffff168173ffffffffffffffffffffffffffffffffffffffff1603620008db576040517f08c379a0000000000000000000000000000000000000000000000000000000008152600401620008d29062001375565b60405180910390fd5b620008e6816200099b565b50565b600033905090565b620008fb62000305565b6200093d576040517f08c379a00000000000000000000000000000000000000000000000000000000081526004016200093490620013e7565b60405180910390fd5b60008060146101000a81548160ff0219169083151502179055507f5db9ee0a495bf2e6ff9c91a7834c1ba4fdd244a5e8aa4e537bd38aeae4b073aa62000982620008e9565b60405162000991919062000c19565b60405180910390a1565b60008060009054906101000a900473ffffffffffffffffffffffffffffffffffffffff169050816000806101000a81548173ffffffffffffffffffffffffffffffffffffffff021916908373ffffffffffffffffffffffffffffffffffffffff1602179055508173ffffffffffffffffffffffffffffffffffffffff168173ffffffffffffffffffffffffffffffffffffffff167f8be0079c531659141344cd1fd0a4f28419497f9722a3daafe3b4186f6b6457e060405160405180910390a35050565b62000a6962000305565b1562000aac576040517f08c379a000000000000000000000000000000000000000000000000000000000815260040162000aa39062000fed565b60405180910390fd5b6001600060146101000a81548160ff0219169083151502179055507f62e78cea01bee320cd4e420270b5ea74000d11b0c9f74754ebdbfc544b05a25862000af2620008e9565b60405162000b01919062000c19565b60405180910390a1565b6105c0806200140a83390190565b60008115159050919050565b62000b308162000b19565b82525050565b600060208201905062000b4d600083018462000b25565b92915050565b6000604051905090565b600080fd5b600080fd5b6000819050919050565b62000b7c8162000b67565b811462000b8857600080fd5b50565b60008135905062000b9c8162000b71565b92915050565b60006020828403121562000bbb5762000bba62000b5d565b5b600062000bcb8482850162000b8b565b91505092915050565b600073ffffffffffffffffffffffffffffffffffffffff82169050919050565b600062000c018262000bd4565b9050919050565b62000c138162000bf4565b82525050565b600060208201905062000c30600083018462000c08565b92915050565b62000c418162000b67565b82525050565b600060208201905062000c5e600083018462000c36565b92915050565b600080fd5b600080fd5b6000601f19601f8301169050919050565b7f4e487b7100000000000000000000000000000000000000000000000000000000600052604160045260246000fd5b62000cb98262000c6e565b810181811067ffffffffffffffff8211171562000cdb5762000cda62000c7f565b5b80604052505050565b600062000cf062000b53565b905062000cfe828262000cae565b919050565b600067ffffffffffffffff82111562000d215762000d2062000c7f565b5b62000d2c8262000c6e565b9050602081019050919050565b82818337600083830152505050565b600062000d5f62000d598462000d03565b62000ce4565b90508281526020810184848401111562000d7e5762000d7d62000c69565b5b62000d8b84828562000d39565b509392505050565b600082601f83011262000dab5762000daa62000c64565b5b813562000dbd84826020860162000d48565b91505092915050565b62000dd18162000bf4565b811462000ddd57600080fd5b50565b60008135905062000df18162000dc6565b92915050565b600080600080600080600060e0888a03121562000e195762000e1862000b5d565b5b600088013567ffffffffffffffff81111562000e3a5762000e3962000b62565b5b62000e488a828b0162000d93565b975050602088013567ffffffffffffffff81111562000e6c5762000e6b62000b62565b5b62000e7a8a828b0162000d93565b965050604062000e8d8a828b0162000de0565b955050606062000ea08a828b0162000b8b565b945050608062000eb38a828b0162000b8b565b93505060a062000ec68a828b0162000b8b565b92505060c062000ed98a828b0162000b8b565b91505092959891949750929550565b60006020828403121562000f015762000f0062000b5d565b5b600062000f118482850162000de0565b91505092915050565b600082825260208201905092915050565b7f4f776e61626c653a2063616c6c6572206973206e6f7420746865206f776e6572600082015250565b600062000f6360208362000f1a565b915062000f708262000f2b565b602082019050919050565b6000602082019050818103600083015262000f968162000f54565b9050919050565b7f5061757361626c653a2070617573656400000000000000000000000000000000600082015250565b600062000fd560108362000f1a565b915062000fe28262000f9d565b602082019050919050565b60006020820190508181036000830152620010088162000fc6565b9050919050565b600081519050919050565b60005b838110156200103a5780820151818401526020810190506200101d565b838111156200104a576000848401525b50505050565b60006200105d826200100f565b62001069818562000f1a565b93506200107b8185602086016200101a565b620010868162000c6e565b840191505092915050565b600061010082019050620010a9600083018b62000c08565b620010b8602083018a62000c08565b620010c7604083018962000c36565b620010d6606083018862000c36565b620010e5608083018762000c36565b620010f460a083018662000c36565b81810360c083015262001108818562001050565b905081810360e08301526200111e818462001050565b90509998505050505050505050565b600081519050919050565b600082825260208201905092915050565b600062001156826200112d565b62001162818562001138565b9350620011748185602086016200101a565b6200117f8162000c6e565b840191505092915050565b6000604082019050620011a1600083018562000c08565b8181036020830152620011b5818462001149565b90509392505050565b6000608082019050620011d5600083018762000c36565b620011e4602083018662000c36565b620011f3604083018562000c08565b62001202606083018462000c36565b95945050505050565b600060608201905062001222600083018662000c08565b62001231602083018562000c08565b62001240604083018462000c36565b949350505050565b7f4e487b7100000000000000000000000000000000000000000000000000000000600052601160045260246000fd5b6000620012848262000b67565b91507fffffffffffffffffffffffffffffffffffffffffffffffffffffffffffffffff8203620012b957620012b862001248565b5b600182019050919050565b6000620012d18262000b67565b9150620012de8362000b67565b925082821015620012f457620012f362001248565b5b828203905092915050565b7f4f776e61626c653a206e6577206f776e657220697320746865207a65726f206160008201527f6464726573730000000000000000000000000000000000000000000000000000602082015250565b60006200135d60268362000f1a565b91506200136a82620012ff565b604082019050919050565b6000602082019050818103600083015262001390816200134e565b9050919050565b7f5061757361626c653a206e6f7420706175736564000000000000000000000000600082015250565b6000620013cf60148362000f1a565b9150620013dc8262001397565b602082019050919050565b600060208201905081810360008301526200140281620013c0565b905091905056fe60a060405234801561001057600080fd5b506040516105c03803806105c0833981810160405281019061003291906102fc565b8173ffffffffffffffffffffffffffffffffffffffff1660808173ffffffffffffffffffffffffffffffffffffffff16815250506000808373ffffffffffffffffffffffffffffffffffffffff168360405161008e919061039f565b600060405180830381855af49150503d80600081146100c9576040519150601f19603f3d011682016040523d82523d6000602084013e6100ce565b606091505b5091509150818190610116576040517f08c379a000000000000000000000000000000000000000000000000000000000815260040161010d919061040b565b60405180910390fd5b505050505061042d565b6000604051905090565b600080fd5b600080fd5b600073ffffffffffffffffffffffffffffffffffffffff82169050919050565b600061015f82610134565b9050919050565b61016f81610154565b811461017a57600080fd5b50565b60008151905061018c81610166565b92915050565b600080fd5b600080fd5b6000601f19601f8301169050919050565b7f4e487b7100000000000000000000000000000000000000000000000000000000600052604160045260246000fd5b6101e58261019c565b810181811067ffffffffffffffff82111715610204576102036101ad565b5b80604052505050565b6000610217610120565b905061022382826101dc565b919050565b600067ffffffffffffffff821115610243576102426101ad565b5b61024c8261019c565b9050602081019050919050565b60005b8381101561027757808201518184015260208101905061025c565b83811115610286576000848401525b50505050565b600061029f61029a84610228565b61020d565b9050828152602081018484840111156102bb576102ba610197565b5b6102c6848285610259565b509392505050565b600082601f8301126102e3576102e2610192565b5b81516102f384826020860161028c565b91505092915050565b600080604083850312156103135761031261012a565b5b60006103218582860161017d565b925050602083015167ffffffffffffffff8111156103425761034161012f565b5b61034e858286016102ce565b9150509250929050565b600081519050919050565b600081905092915050565b600061037982610358565b6103838185610363565b9350610393818560208601610259565b80840191505092915050565b60006103ab828461036e565b915081905092915050565b600081519050919050565b600082825260208201905092915050565b60006103dd826103b6565b6103e781856103c1565b93506103f7818560208601610259565b6104008161019c565b840191505092915050565b6000602082019050818103600083015261042581846103d2565b905092915050565b60805161017361044d60003960008181604a015260bf01526101736000f3fe60806040526004361061003f576000357c010000000000000000000000000000000000000000000000000000000090048063d7dfa0dd1461009257610046565b3661004657005b60007f0000000000000000000000000000000000000000000000000000000000000000905060405136600082376000803683855af43d806000843e816000811461008e578184f35b8184fd5b34801561009e57600080fd5b506100a76100bd565b6040516100b49190610122565b60405180910390f35b7f000000000000000000000000000000000000000000000000000000000000000081565b600073ffffffffffffffffffffffffffffffffffffffff82169050919050565b600061010c826100e1565b9050919050565b61011c81610101565b82525050565b60006020820190506101376000830184610113565b9291505056fea26469706673582212202ae4af5257518211e11366af3ae8001308ace502aa9fbc4358486b4e1a9e883e64736f6c634300080d0033a264697066735822122028defb8c875e548a12aea2276257315dd886db3ab27d72ebdd60694b73a67d2b64736f6c634300080d003360a06040523480156200001157600080fd5b5060405162005d0438038062005d048339818101604052810190620000379190620000dc565b8073ffffffffffffffffffffffffffffffffffffffff1660808173ffffffffffffffffffffffffffffffffffffffff1681525050506200010e565b600080fd5b600073ffffffffffffffffffffffffffffffffffffffff82169050919050565b6000620000a48262000077565b9050919050565b620000b68162000097565b8114620000c257600080fd5b50565b600081519050620000d681620000ab565b92915050565b600060208284031215620000f557620000f462000072565b5b60006200010584828501620000c5565b91505092915050565b608051615b7f6200018560003960008181610bc301528181610e4b01528181611037015281816110ee015281816115c2015281816116ce0152818161189e015281816119aa01528181611bec01528181611f9a015281816125ac01528181612862015281816135a301526136540152615b7f6000f3fe60806040526004361061026e576000357c01000000000000000000000000000000000000000000000000000000009004806380436fe011610156578063be040fb0116100d3578063dd62ed3e11610097578063dd62ed3e14610883578063ddca3f43146108c0578063e06174e4146108eb578063e66f53b714610916578063efbe1c1c14610941578063fc0c546a146109585761026e565b8063be040fb0146107e3578063be9a6555146107fa578063c91de64914610804578063d294f09314610841578063db2e1eed146108585761026e565b80639a4e6d341161011a5780639a4e6d34146106e8578063a457c2d714610713578063a9059cbb14610750578063adc1b9561461078d578063af640d0f146107b85761026e565b806380436fe014610629578063853a1b90146106525780639012c4a81461067d57806395d89b41146106a6578063961be391146106d15761026e565b8063313ce567116101ef578063626fb2f0116101b3578063626fb2f0146105195780636a775714146105425780636da84e6c1461056b57806370a08231146105965780637b5581ed146105d35780637fb45099146105fe5761026e565b8063313ce56714610430578063325c25a21461045b57806339509351146104865780633fc8cef3146104c35780635c9920fc146104ee5761026e565b80631998aeef116102365780631998aeef1461036c57806323b872dd146103765780632a24f46c146103b35780632a44f120146103de5780632bf33bd9146104075761026e565b806306fdde0314610273578063095ea7b31461029e5780630c6a62dd146102db578063150b7a021461030457806318160ddd14610341575b600080fd5b34801561027f57600080fd5b50610288610983565b6040516102959190613fa1565b60405180910390f35b3480156102aa57600080fd5b506102c560048036038101906102c0919061406b565b610a15565b6040516102d291906140c6565b60405180910390f35b3480156102e757600080fd5b5061030260048036038101906102fd91906140e1565b610a38565b005b34801561031057600080fd5b5061032b60048036038101906103269190614243565b610b0c565b6040516103389190614301565b60405180910390f35b34801561034d57600080fd5b50610356610b3c565b604051610363919061432b565b60405180910390f35b610374610b46565b005b34801561038257600080fd5b5061039d60048036038101906103989190614346565b610e14565b6040516103aa91906140c6565b60405180910390f35b3480156103bf57600080fd5b506103c8610e43565b6040516103d5919061432b565b60405180910390f35b3480156103ea57600080fd5b50610405600480360381019061040091906140e1565b610e49565b005b34801561041357600080fd5b5061042e60048036038101906104299190614399565b610fa5565b005b34801561043c57600080fd5b506104456111e6565b60405161045291906143e2565b60405180910390f35b34801561046757600080fd5b506104706111ef565b60405161047d919061432b565b60405180910390f35b34801561049257600080fd5b506104ad60048036038101906104a8919061406b565b6111f5565b6040516104ba91906140c6565b60405180910390f35b3480156104cf57600080fd5b506104d861122c565b6040516104e5919061440c565b60405180910390f35b3480156104fa57600080fd5b50610503611244565b60405161051091906140c6565b60405180910390f35b34801561052557600080fd5b50610540600480360381019061053b91906144c8565b611257565b005b34801561054e57600080fd5b5061056960048036038101906105649190614399565b611440565b005b34801561057757600080fd5b50610580611b82565b60405161058d919061432b565b60405180910390f35b3480156105a257600080fd5b506105bd60048036038101906105b891906140e1565b611b88565b6040516105ca919061432b565b60405180910390f35b3480156105df57600080fd5b506105e8611bd1565b6040516105f5919061432b565b60405180910390f35b34801561060a57600080fd5b50610613611bd7565b604051610620919061462d565b60405180910390f35b34801561063557600080fd5b50610650600480360381019061064b91906140e1565b611bea565b005b34801561065e57600080fd5b50610667611ee2565b6040516106749190614669565b60405180910390f35b34801561068957600080fd5b506106a4600480360381019061069f9190614399565b611f08565b005b3480156106b257600080fd5b506106bb612099565b6040516106c89190613fa1565b60405180910390f35b3480156106dd57600080fd5b506106e661212b565b005b3480156106f457600080fd5b506106fd612290565b60405161070a919061432b565b60405180910390f35b34801561071f57600080fd5b5061073a6004803603810190610735919061406b565b612296565b60405161074791906140c6565b60405180910390f35b34801561075c57600080fd5b506107776004803603810190610772919061406b565b61230d565b60405161078491906140c6565b60405180910390f35b34801561079957600080fd5b506107a2612330565b6040516107af919061432b565b60405180910390f35b3480156107c457600080fd5b506107cd612336565b6040516107da919061432b565b60405180910390f35b3480156107ef57600080fd5b506107f861233c565b005b6108026124e2565b005b34801561081057600080fd5b5061082b600480360381019061082691906140e1565b612789565b604051610838919061432b565b60405180910390f35b34801561084d57600080fd5b506108566127a1565b005b34801561086457600080fd5b5061086d6127ab565b60405161087a919061432b565b60405180910390f35b34801561088f57600080fd5b506108aa60048036038101906108a59190614684565b6127d3565b6040516108b7919061432b565b60405180910390f35b3480156108cc57600080fd5b506108d561285a565b6040516108e2919061432b565b60405180910390f35b3480156108f757600080fd5b50610900612860565b60405161090d919061440c565b60405180910390f35b34801561092257600080fd5b5061092b612884565b604051610938919061440c565b60405180910390f35b34801561094d57600080fd5b506109566128aa565b005b34801561096457600080fd5b5061096d612add565b60405161097a919061440c565b60405180910390f35b606060368054610992906146f3565b80601f01602080910402602001604051908101604052809291908181526020018280546109be906146f3565b8015610a0b5780601f106109e057610100808354040283529160200191610a0b565b820191906000526020600020905b8154815290600101906020018083116109ee57829003601f168201915b5050505050905090565b600080610a20612b03565b9050610a2d818585612b0b565b600191505092915050565b609e60009054906101000a900473ffffffffffffffffffffffffffffffffffffffff1673ffffffffffffffffffffffffffffffffffffffff163373ffffffffffffffffffffffffffffffffffffffff1614610ac8576040517f08c379a0000000000000000000000000000000000000000000000000000000008152600401610abf90614770565b60405180910390fd5b80609e60006101000a81548173ffffffffffffffffffffffffffffffffffffffff021916908373ffffffffffffffffffffffffffffffffffffffff16021790555050565b600063150b7a027c0100000000000000000000000000000000000000000000000000000000029050949350505050565b6000603554905090565b60016003811115610b5a57610b596145b6565b5b609d60149054906101000a900460ff166003811115610b7c57610b7b6145b6565b5b14610bbc576040517f08c379a0000000000000000000000000000000000000000000000000000000008152600401610bb3906147dc565b60405180910390fd5b60006103e87f000000000000000000000000000000000000000000000000000000000000000073ffffffffffffffffffffffffffffffffffffffff16637c513c0f6040518163ffffffff167c01000000000000000000000000000000000000000000000000000000000281526004016020604051808303816000875af1158015610c4a573d6000803e3d6000fd5b505050506040513d601f19601f82011682018060405250810190610c6e9190614811565b610c78919061486d565b905080609c54610c8891906148c3565b6103e834610c9691906148c3565b1015610cd7576040517f08c379a0000000000000000000000000000000000000000000000000000000008152600401610cce90614969565b60405180910390fd5b6099544210610d1b576040517f08c379a0000000000000000000000000000000000000000000000000000000008152600401610d12906149d5565b60405180910390fd5b61038442609954610d2c91906149f5565b11610d4d5761038460996000828254610d45919061486d565b925050819055505b610d7b609d60009054906101000a900473ffffffffffffffffffffffffffffffffffffffff16609c54612cd4565b34609c8190555033609d60006101000a81548173ffffffffffffffffffffffffffffffffffffffff021916908373ffffffffffffffffffffffffffffffffffffffff1602179055503373ffffffffffffffffffffffffffffffffffffffff167fe684a55f31b79eca403df938249029212a5925ec6be8012e099b45bc1019e5d234604051610e09919061432b565b60405180910390a250565b600080610e1f612b03565b9050610e2c858285612ec1565b610e37858585612f4d565b60019150509392505050565b60995481565b7f000000000000000000000000000000000000000000000000000000000000000073ffffffffffffffffffffffffffffffffffffffff16638da5cb5b6040518163ffffffff167c0100000000000000000000000000000000000000000000000000000000028152600401602060405180830381865afa158015610ed0573d6000803e3d6000fd5b505050506040513d601f19601f82011682018060405250810190610ef49190614a3e565b73ffffffffffffffffffffffffffffffffffffffff163373ffffffffffffffffffffffffffffffffffffffff1614610f61576040517f08c379a0000000000000000000000000000000000000000000000000000000008152600401610f5890614ab7565b60405180910390fd5b80609e60006101000a81548173ffffffffffffffffffffffffffffffffffffffff021916908373ffffffffffffffffffffffffffffffffffffffff16021790555050565b609e60009054906101000a900473ffffffffffffffffffffffffffffffffffffffff1673ffffffffffffffffffffffffffffffffffffffff163373ffffffffffffffffffffffffffffffffffffffff1614611035576040517f08c379a000000000000000000000000000000000000000000000000000000000815260040161102c90614770565b60405180910390fd5b7f000000000000000000000000000000000000000000000000000000000000000073ffffffffffffffffffffffffffffffffffffffff1663a0b335e36040518163ffffffff167c01000000000000000000000000000000000000000000000000000000000281526004016020604051808303816000875af11580156110be573d6000803e3d6000fd5b505050506040513d601f19601f820116820180604052508101906110e29190614811565b811015801561119d57507f000000000000000000000000000000000000000000000000000000000000000073ffffffffffffffffffffffffffffffffffffffff16630e519ef96040518163ffffffff167c01000000000000000000000000000000000000000000000000000000000281526004016020604051808303816000875af1158015611175573d6000803e3d6000fd5b505050506040513d601f19601f820116820180604052508101906111999190614811565b8111155b6111dc576040517f08c379a00000000000000000000000000000000000000000000000000000000081526004016111d390614b23565b60405180910390fd5b80609a8190555050565b60006012905090565b609a5481565b600080611200612b03565b905061122181858561121285896127d3565b61121c919061486d565b612b0b565b600191505092915050565b73c02aaa39b223fe8d0a0e5c4f27ead9083c756cc281565b60a160009054906101000a900460ff1681565b600061126360016131cf565b90508015611287576001600060016101000a81548160ff0219169083151502179055505b61129183836132bf565b61129961331c565b87609760006101000a81548173ffffffffffffffffffffffffffffffffffffffff021916908373ffffffffffffffffffffffffffffffffffffffff1602179055508660988190555085856112ed91906148c3565b609b8190555062093a80609a8190555088609e60006101000a81548173ffffffffffffffffffffffffffffffffffffffff021916908373ffffffffffffffffffffffffffffffffffffffff16021790555083609f819055504260a0819055506000851461135a578561135d565b60005b60a2819055506000609d60146101000a81548160ff02191690836003811115611389576113886145b6565b5b0217905550611398898761336d565b8460a360008b73ffffffffffffffffffffffffffffffffffffffff1673ffffffffffffffffffffffffffffffffffffffff1681526020019081526020016000208190555080156114355760008060016101000a81548160ff0219169083151502179055507f7f26b83ff96e1f2b6a682f133852f6798a09c465da95921460cefb3847402498600160405161142c9190614b88565b60405180910390a15b505050505050505050565b60006003811115611454576114536145b6565b5b609d60149054906101000a900460ff166003811115611476576114756145b6565b5b146114b6576040517f08c379a00000000000000000000000000000000000000000000000000000000081526004016114ad90614c15565b60405180910390fd5b600060a360003373ffffffffffffffffffffffffffffffffffffffff1673ffffffffffffffffffffffffffffffffffffffff16815260200190815260200160002054905080820361153c576040517f08c379a000000000000000000000000000000000000000000000000000000000815260040161153390614c81565b60405180910390fd5b600061154733611b88565b9050600060a25403611571578060a281905550828161156691906148c3565b609b81905550611aeb565b60a25481148015611583575060008214155b1561159f57828161159491906148c3565b609b81905550611aea565b6000820361181857600060a254609b546115b99190614cd0565b905060006103e87f000000000000000000000000000000000000000000000000000000000000000073ffffffffffffffffffffffffffffffffffffffff166309990a966040518163ffffffff167c01000000000000000000000000000000000000000000000000000000000281526004016020604051808303816000875af1158015611649573d6000803e3d6000fd5b505050506040513d601f19601f8201168201806040525081019061166d9190614811565b8361167891906148c3565b6116829190614cd0565b9050808510156116c7576040517f08c379a00000000000000000000000000000000000000000000000000000000081526004016116be90614d4d565b60405180910390fd5b60006103e87f000000000000000000000000000000000000000000000000000000000000000073ffffffffffffffffffffffffffffffffffffffff16635410bfc96040518163ffffffff167c01000000000000000000000000000000000000000000000000000000000281526004016020604051808303816000875af1158015611755573d6000803e3d6000fd5b505050506040513d601f19601f820116820180604052508101906117799190614811565b8461178491906148c3565b61178e9190614cd0565b9050808611156117d3576040517f08c379a00000000000000000000000000000000000000000000000000000000081526004016117ca90614db9565b60405180910390fd5b8360a260008282546117e5919061486d565b9250508190555085846117f891906148c3565b609b6000828254611809919061486d565b92505081905550505050611ae9565b60008303611862578060a2600082825461183291906149f5565b92505081905550818161184591906148c3565b609b600082825461185691906149f5565b92505081905550611ae8565b60008160a25461187291906149f5565b828461187e91906148c3565b609b5461188b91906149f5565b6118959190614cd0565b905060006103e87f000000000000000000000000000000000000000000000000000000000000000073ffffffffffffffffffffffffffffffffffffffff166309990a966040518163ffffffff167c01000000000000000000000000000000000000000000000000000000000281526004016020604051808303816000875af1158015611925573d6000803e3d6000fd5b505050506040513d601f19601f820116820180604052508101906119499190614811565b8361195491906148c3565b61195e9190614cd0565b9050808510156119a3576040517f08c379a000000000000000000000000000000000000000000000000000000000815260040161199a90614d4d565b60405180910390fd5b60006103e87f000000000000000000000000000000000000000000000000000000000000000073ffffffffffffffffffffffffffffffffffffffff16635410bfc96040518163ffffffff167c01000000000000000000000000000000000000000000000000000000000281526004016020604051808303816000875af1158015611a31573d6000803e3d6000fd5b505050506040513d601f19601f82011682018060405250810190611a559190614811565b84611a6091906148c3565b611a6a9190614cd0565b905080861115611aaf576040517f08c379a0000000000000000000000000000000000000000000000000000000008152600401611aa690614db9565b60405180910390fd5b8484611abb91906148c3565b8685611ac791906148c3565b609b54611ad4919061486d565b611ade91906149f5565b609b819055505050505b5b5b5b8260a360003373ffffffffffffffffffffffffffffffffffffffff1673ffffffffffffffffffffffffffffffffffffffff168152602001908152602001600020819055503373ffffffffffffffffffffffffffffffffffffffff167f64e6e7bd72b853c4e62fd6ceaca05a104700c70a4cb567c75c7f2242ba7f037c84604051611b75919061432b565b60405180910390a2505050565b609c5481565b6000603360008373ffffffffffffffffffffffffffffffffffffffff1673ffffffffffffffffffffffffffffffffffffffff168152602001908152602001600020549050919050565b609b5481565b609d60149054906101000a900460ff1681565b7f000000000000000000000000000000000000000000000000000000000000000073ffffffffffffffffffffffffffffffffffffffff16638da5cb5b6040518163ffffffff167c0100000000000000000000000000000000000000000000000000000000028152600401602060405180830381865afa158015611c71573d6000803e3d6000fd5b505050506040513d601f19601f82011682018060405250810190611c959190614a3e565b73ffffffffffffffffffffffffffffffffffffffff163373ffffffffffffffffffffffffffffffffffffffff1614611d02576040517f08c379a0000000000000000000000000000000000000000000000000000000008152600401611cf990614e25565b60405180910390fd5b60006003811115611d1657611d156145b6565b5b609d60149054906101000a900460ff166003811115611d3857611d376145b6565b5b14611d78576040517f08c379a0000000000000000000000000000000000000000000000000000000008152600401611d6f90614c15565b60405180910390fd5b600060a360008373ffffffffffffffffffffffffffffffffffffffff1673ffffffffffffffffffffffffffffffffffffffff16815260200190815260200160002054905080600003611dff576040517f08c379a0000000000000000000000000000000000000000000000000000000008152600401611df690614c81565b60405180910390fd5b6000611e0a83611b88565b90508060a26000828254611e1e91906149f5565b925050819055508181611e3191906148c3565b609b6000828254611e4291906149f5565b92505081905550600060a360008573ffffffffffffffffffffffffffffffffffffffff1673ffffffffffffffffffffffffffffffffffffffff168152602001908152602001600020819055508273ffffffffffffffffffffffffffffffffffffffff167f64e6e7bd72b853c4e62fd6ceaca05a104700c70a4cb567c75c7f2242ba7f037c6000604051611ed59190614e80565b60405180910390a2505050565b609d60009054906101000a900473ffffffffffffffffffffffffffffffffffffffff1681565b609e60009054906101000a900473ffffffffffffffffffffffffffffffffffffffff1673ffffffffffffffffffffffffffffffffffffffff163373ffffffffffffffffffffffffffffffffffffffff1614611f98576040517f08c379a0000000000000000000000000000000000000000000000000000000008152600401611f8f90614770565b60405180910390fd5b7f000000000000000000000000000000000000000000000000000000000000000073ffffffffffffffffffffffffffffffffffffffff16638a364bc16040518163ffffffff167c01000000000000000000000000000000000000000000000000000000000281526004016020604051808303816000875af1158015612021573d6000803e3d6000fd5b505050506040513d601f19601f820116820180604052508101906120459190614811565b811115612087576040517f08c379a000000000000000000000000000000000000000000000000000000000815260040161207e90614f0d565b60405180910390fd5b61208f6134cd565b80609f8190555050565b6060603780546120a8906146f3565b80601f01602080910402602001604051908101604052809291908181526020018280546120d4906146f3565b80156121215780601f106120f657610100808354040283529160200191612121565b820191906000526020600020905b81548152906001019060200180831161210457829003601f168201915b5050505050905090565b6002600381111561213f5761213e6145b6565b5b609d60149054906101000a900460ff166003811115612161576121606145b6565b5b146121a1576040517f08c379a000000000000000000000000000000000000000000000000000000000815260040161219890614f79565b60405180910390fd5b60006121ac33611b88565b9050600081116121f1576040517f08c379a00000000000000000000000000000000000000000000000000000000081526004016121e890614fe5565b60405180910390fd5b60006121fb610b3c565b3073ffffffffffffffffffffffffffffffffffffffff16318361221e91906148c3565b6122289190614cd0565b9050612234338361378b565b61223e3382613963565b3373ffffffffffffffffffffffffffffffffffffffff167f730831a1e4aa2d187ddd8e03d7beeac760a3927da5f112d645e0f8df7494b36782604051612284919061432b565b60405180910390a25050565b60a25481565b6000806122a1612b03565b905060006122af82866127d3565b9050838110156122f4576040517f08c379a00000000000000000000000000000000000000000000000000000000081526004016122eb90615077565b60405180910390fd5b6123018286868403612b0b565b60019250505092915050565b600080612318612b03565b9050612325818585612f4d565b600191505092915050565b60a05481565b60985481565b600060038111156123505761234f6145b6565b5b609d60149054906101000a900460ff166003811115612372576123716145b6565b5b146123b2576040517f08c379a00000000000000000000000000000000000000000000000000000000081526004016123a9906150e3565b60405180910390fd5b6123c3336123be610b3c565b61378b565b609760009054906101000a900473ffffffffffffffffffffffffffffffffffffffff1673ffffffffffffffffffffffffffffffffffffffff166323b872dd30336098546040518463ffffffff167c010000000000000000000000000000000000000000000000000000000002815260040161244093929190615103565b600060405180830381600087803b15801561245a57600080fd5b505af115801561246e573d6000803e3d6000fd5b505050506003609d60146101000a81548160ff02191690836003811115612498576124976145b6565b5b02179055503373ffffffffffffffffffffffffffffffffffffffff167fd1b5ea7fe0f1c2fa09d49c2aa9b2200664ba57a734f1d95481d95b7f99af991c60405160405180910390a2565b600060038111156124f6576124f56145b6565b5b609d60149054906101000a900460ff166003811115612518576125176145b6565b5b14612558576040517f08c379a000000000000000000000000000000000000000000000000000000000815260040161254f90615186565b60405180910390fd5b6125606127ab565b3410156125a2576040517f08c379a0000000000000000000000000000000000000000000000000000000008152600401612599906151f2565b60405180910390fd5b6125aa610b3c565b7f000000000000000000000000000000000000000000000000000000000000000073ffffffffffffffffffffffffffffffffffffffff166332977c736040518163ffffffff167c01000000000000000000000000000000000000000000000000000000000281526004016020604051808303816000875af1158015612633573d6000803e3d6000fd5b505050506040513d601f19601f820116820180604052508101906126579190614811565b61266191906148c3565b6103e860a25461267191906148c3565b10156126b2576040517f08c379a00000000000000000000000000000000000000000000000000000000081526004016126a99061525e565b60405180910390fd5b609a54426126c0919061486d565b6099819055506001609d60146101000a81548160ff021916908360038111156126ec576126eb6145b6565b5b021790555034609c8190555033609d60006101000a81548173ffffffffffffffffffffffffffffffffffffffff021916908373ffffffffffffffffffffffffffffffffffffffff1602179055503373ffffffffffffffffffffffffffffffffffffffff167fcfb9c5312b25ec7b809d61e638df25f749eae5d5c25399e1c93d1d319bfd58213460405161277f919061432b565b60405180910390a2565b60a36020528060005260406000206000915090505481565b6127a96134cd565b565b60008060a254146127cb5760a254609b546127c69190614cd0565b6127ce565b60005b905090565b6000603460008473ffffffffffffffffffffffffffffffffffffffff1673ffffffffffffffffffffffffffffffffffffffff16815260200190815260200160002060008373ffffffffffffffffffffffffffffffffffffffff1673ffffffffffffffffffffffffffffffffffffffff16815260200190815260200160002054905092915050565b609f5481565b7f000000000000000000000000000000000000000000000000000000000000000081565b609e60009054906101000a900473ffffffffffffffffffffffffffffffffffffffff1681565b600160038111156128be576128bd6145b6565b5b609d60149054906101000a900460ff1660038111156128e0576128df6145b6565b5b14612920576040517f08c379a0000000000000000000000000000000000000000000000000000000008152600401612917906152ca565b60405180910390fd5b609954421015612965576040517f08c379a000000000000000000000000000000000000000000000000000000000815260040161295c90615336565b60405180910390fd5b61296d6134cd565b609760009054906101000a900473ffffffffffffffffffffffffffffffffffffffff1673ffffffffffffffffffffffffffffffffffffffff166323b872dd30609d60009054906101000a900473ffffffffffffffffffffffffffffffffffffffff166098546040518463ffffffff167c0100000000000000000000000000000000000000000000000000000000028152600401612a0c939291906153ab565b600060405180830381600087803b158015612a2657600080fd5b505af1158015612a3a573d6000803e3d6000fd5b505050506002609d60146101000a81548160ff02191690836003811115612a6457612a636145b6565b5b0217905550609d60009054906101000a900473ffffffffffffffffffffffffffffffffffffffff1673ffffffffffffffffffffffffffffffffffffffff167f8b01f9dd0400d6a1e84369a5fb8f6033934856ffa8ebadd707dca302ab551695609c54604051612ad3919061432b565b60405180910390a2565b609760009054906101000a900473ffffffffffffffffffffffffffffffffffffffff1681565b600033905090565b600073ffffffffffffffffffffffffffffffffffffffff168373ffffffffffffffffffffffffffffffffffffffff1603612b7a576040517f08c379a0000000000000000000000000000000000000000000000000000000008152600401612b7190615454565b60405180910390fd5b600073ffffffffffffffffffffffffffffffffffffffff168273ffffffffffffffffffffffffffffffffffffffff1603612be9576040517f08c379a0000000000000000000000000000000000000000000000000000000008152600401612be0906154e6565b60405180910390fd5b80603460008573ffffffffffffffffffffffffffffffffffffffff1673ffffffffffffffffffffffffffffffffffffffff16815260200190815260200160002060008473ffffffffffffffffffffffffffffffffffffffff1673ffffffffffffffffffffffffffffffffffffffff168152602001908152602001600020819055508173ffffffffffffffffffffffffffffffffffffffff168373ffffffffffffffffffffffffffffffffffffffff167f8c5be1e5ebec7d5bd14f71427d1e84f3dd0314c0f7b2291e5b200ac8c7c3b92583604051612cc7919061432b565b60405180910390a3505050565b73c02aaa39b223fe8d0a0e5c4f27ead9083c756cc273ffffffffffffffffffffffffffffffffffffffff1663d0e30db0826040518263ffffffff167c01000000000000000000000000000000000000000000000000000000000281526004016000604051808303818588803b158015612d4c57600080fd5b505af1158015612d60573d6000803e3d6000fd5b505050505073c02aaa39b223fe8d0a0e5c4f27ead9083c756cc273ffffffffffffffffffffffffffffffffffffffff1663a9059cbb8373c02aaa39b223fe8d0a0e5c4f27ead9083c756cc273ffffffffffffffffffffffffffffffffffffffff166370a08231306040518263ffffffff167c0100000000000000000000000000000000000000000000000000000000028152600401612dff919061440c565b602060405180830381865afa158015612e1c573d6000803e3d6000fd5b505050506040513d601f19601f82011682018060405250810190612e409190614811565b6040518363ffffffff167c0100000000000000000000000000000000000000000000000000000000028152600401612e79929190615506565b6020604051808303816000875af1158015612e98573d6000803e3d6000fd5b505050506040513d601f19601f82011682018060405250810190612ebc919061555b565b505050565b6000612ecd84846127d3565b90507fffffffffffffffffffffffffffffffffffffffffffffffffffffffffffffffff8114612f475781811015612f39576040517f08c379a0000000000000000000000000000000000000000000000000000000008152600401612f30906155d4565b60405180910390fd5b612f468484848403612b0b565b5b50505050565b600073ffffffffffffffffffffffffffffffffffffffff168373ffffffffffffffffffffffffffffffffffffffff1603612fbc576040517f08c379a0000000000000000000000000000000000000000000000000000000008152600401612fb390615666565b60405180910390fd5b600073ffffffffffffffffffffffffffffffffffffffff168273ffffffffffffffffffffffffffffffffffffffff160361302b576040517f08c379a0000000000000000000000000000000000000000000000000000000008152600401613022906156f8565b60405180910390fd5b613036838383613bc1565b6000603360008573ffffffffffffffffffffffffffffffffffffffff1673ffffffffffffffffffffffffffffffffffffffff168152602001908152602001600020549050818110156130bd576040517f08c379a00000000000000000000000000000000000000000000000000000000081526004016130b49061578a565b60405180910390fd5b818103603360008673ffffffffffffffffffffffffffffffffffffffff1673ffffffffffffffffffffffffffffffffffffffff1681526020019081526020016000208190555081603360008573ffffffffffffffffffffffffffffffffffffffff1673ffffffffffffffffffffffffffffffffffffffff1681526020019081526020016000206000828254613152919061486d565b925050819055508273ffffffffffffffffffffffffffffffffffffffff168473ffffffffffffffffffffffffffffffffffffffff167fddf252ad1be2c89b69c2b068fc378daa952ba7f163c4a11628f55a4df523b3ef846040516131b6919061432b565b60405180910390a36131c9848484613d99565b50505050565b60008060019054906101000a900460ff16156132465760018260ff161480156131fe57506131fc30613d9e565b155b61323d576040517f08c379a00000000000000000000000000000000000000000000000000000000081526004016132349061581c565b60405180910390fd5b600090506132ba565b8160ff1660008054906101000a900460ff1660ff161061329b576040517f08c379a00000000000000000000000000000000000000000000000000000000081526004016132929061581c565b60405180910390fd5b816000806101000a81548160ff021916908360ff160217905550600190505b919050565b600060019054906101000a900460ff1661330e576040517f08c379a0000000000000000000000000000000000000000000000000000000008152600401613305906158ae565b60405180910390fd5b6133188282613dc1565b5050565b600060019054906101000a900460ff1661336b576040517f08c379a0000000000000000000000000000000000000000000000000000000008152600401613362906158ae565b60405180910390fd5b565b600073ffffffffffffffffffffffffffffffffffffffff168273ffffffffffffffffffffffffffffffffffffffff16036133dc576040517f08c379a00000000000000000000000000000000000000000000000000000000081526004016133d39061591a565b60405180910390fd5b6133e860008383613bc1565b80603560008282546133fa919061486d565b9250508190555080603360008473ffffffffffffffffffffffffffffffffffffffff1673ffffffffffffffffffffffffffffffffffffffff1681526020019081526020016000206000828254613450919061486d565b925050819055508173ffffffffffffffffffffffffffffffffffffffff16600073ffffffffffffffffffffffffffffffffffffffff167fddf252ad1be2c89b69c2b068fc378daa952ba7f163c4a11628f55a4df523b3ef836040516134b5919061432b565b60405180910390a36134c960008383613d99565b5050565b600260038111156134e1576134e06145b6565b5b609d60149054906101000a900460ff166003811115613503576135026145b6565b5b03613543576040517f08c379a000000000000000000000000000000000000000000000000000000000815260040161353a906159ac565b60405180910390fd5b60006103e8613550610b3c565b609f5461355d91906148c3565b6135679190614cd0565b905060006301e133808261357b9190614cd0565b9050600060a0544261358d91906149f5565b90506000828261359d91906148c3565b905060007f000000000000000000000000000000000000000000000000000000000000000073ffffffffffffffffffffffffffffffffffffffff1663b3f006746040518163ffffffff167c01000000000000000000000000000000000000000000000000000000000281526004016020604051808303816000875af115801561362a573d6000803e3d6000fd5b505050506040513d601f19601f8201168201806040525081019061364e91906159f8565b905060007f000000000000000000000000000000000000000000000000000000000000000073ffffffffffffffffffffffffffffffffffffffff16630ea90a126040518163ffffffff167c01000000000000000000000000000000000000000000000000000000000281526004016020604051808303816000875af11580156136db573d6000803e3d6000fd5b505050506040513d601f19601f820116820180604052508101906136ff9190614811565b90506103e861370c610b3c565b8261371791906148c3565b6137219190614cd0565b95506301e13380866137339190614cd0565b94506000858561374391906148c3565b90504260a081905550613778609e60009054906101000a900473ffffffffffffffffffffffffffffffffffffffff168561336d565b613782838261336d565b50505050505050565b600073ffffffffffffffffffffffffffffffffffffffff168273ffffffffffffffffffffffffffffffffffffffff16036137fa576040517f08c379a00000000000000000000000000000000000000000000000000000000081526004016137f190615a97565b60405180910390fd5b61380682600083613bc1565b6000603360008473ffffffffffffffffffffffffffffffffffffffff1673ffffffffffffffffffffffffffffffffffffffff1681526020019081526020016000205490508181101561388d576040517f08c379a000000000000000000000000000000000000000000000000000000000815260040161388490615b29565b60405180910390fd5b818103603360008573ffffffffffffffffffffffffffffffffffffffff1673ffffffffffffffffffffffffffffffffffffffff1681526020019081526020016000208190555081603560008282546138e591906149f5565b92505081905550600073ffffffffffffffffffffffffffffffffffffffff168373ffffffffffffffffffffffffffffffffffffffff167fddf252ad1be2c89b69c2b068fc378daa952ba7f163c4a11628f55a4df523b3ef8460405161394a919061432b565b60405180910390a361395e83600084613d99565b505050565b6139828273ffffffffffffffffffffffffffffffffffffffff16613e42565b15613b755773c02aaa39b223fe8d0a0e5c4f27ead9083c756cc273ffffffffffffffffffffffffffffffffffffffff1663d0e30db0826040518263ffffffff167c01000000000000000000000000000000000000000000000000000000000281526004016000604051808303818588803b1580156139ff57600080fd5b505af1158015613a13573d6000803e3d6000fd5b505050505073c02aaa39b223fe8d0a0e5c4f27ead9083c756cc273ffffffffffffffffffffffffffffffffffffffff1663a9059cbb8373c02aaa39b223fe8d0a0e5c4f27ead9083c756cc273ffffffffffffffffffffffffffffffffffffffff166370a08231306040518263ffffffff167c0100000000000000000000000000000000000000000000000000000000028152600401613ab2919061440c565b602060405180830381865afa158015613acf573d6000803e3d6000fd5b505050506040513d601f19601f82011682018060405250810190613af39190614811565b6040518363ffffffff167c0100000000000000000000000000000000000000000000000000000000028152600401613b2c929190615506565b6020604051808303816000875af1158015613b4b573d6000803e3d6000fd5b505050506040513d601f19601f82011682018060405250810190613b6f919061555b565b50613bbd565b8173ffffffffffffffffffffffffffffffffffffffff166108fc829081150290604051600060405180830381858888f19350505050158015613bbb573d6000803e3d6000fd5b505b5050565b600073ffffffffffffffffffffffffffffffffffffffff168373ffffffffffffffffffffffffffffffffffffffff1614158015613c31575060006003811115613c0d57613c0c6145b6565b5b609d60149054906101000a900460ff166003811115613c2f57613c2e6145b6565b5b145b15613d9457600060a360008573ffffffffffffffffffffffffffffffffffffffff1673ffffffffffffffffffffffffffffffffffffffff168152602001908152602001600020549050600060a360008573ffffffffffffffffffffffffffffffffffffffff1673ffffffffffffffffffffffffffffffffffffffff168152602001908152602001600020549050818114613d915760008103613d0f578260a26000828254613cdf91906149f5565b925050819055508183613cf291906148c3565b609b6000828254613d0391906149f5565b92505081905550613d90565b60008203613d59578260a26000828254613d29919061486d565b925050819055508083613d3c91906148c3565b609b6000828254613d4d919061486d565b92505081905550613d8f565b8183613d6591906148c3565b8184613d7191906148c3565b609b54613d7e919061486d565b613d8891906149f5565b609b819055505b5b5b50505b505050565b505050565b6000808273ffffffffffffffffffffffffffffffffffffffff163b119050919050565b600060019054906101000a900460ff16613e10576040517f08c379a0000000000000000000000000000000000000000000000000000000008152600401613e07906158ae565b60405180910390fd5b8160369080519060200190613e26929190613e65565b508060379080519060200190613e3d929190613e65565b505050565b6000808273ffffffffffffffffffffffffffffffffffffffff163b119050919050565b828054613e71906146f3565b90600052602060002090601f016020900481019282613e935760008555613eda565b82601f10613eac57805160ff1916838001178555613eda565b82800160010185558215613eda579182015b82811115613ed9578251825591602001919060010190613ebe565b5b509050613ee79190613eeb565b5090565b5b80821115613f04576000816000905550600101613eec565b5090565b600081519050919050565b600082825260208201905092915050565b60005b83811015613f42578082015181840152602081019050613f27565b83811115613f51576000848401525b50505050565b6000601f19601f8301169050919050565b6000613f7382613f08565b613f7d8185613f13565b9350613f8d818560208601613f24565b613f9681613f57565b840191505092915050565b60006020820190508181036000830152613fbb8184613f68565b905092915050565b6000604051905090565b600080fd5b600080fd5b600073ffffffffffffffffffffffffffffffffffffffff82169050919050565b600061400282613fd7565b9050919050565b61401281613ff7565b811461401d57600080fd5b50565b60008135905061402f81614009565b92915050565b6000819050919050565b61404881614035565b811461405357600080fd5b50565b6000813590506140658161403f565b92915050565b6000806040838503121561408257614081613fcd565b5b600061409085828601614020565b92505060206140a185828601614056565b9150509250929050565b60008115159050919050565b6140c0816140ab565b82525050565b60006020820190506140db60008301846140b7565b92915050565b6000602082840312156140f7576140f6613fcd565b5b600061410584828501614020565b91505092915050565b600080fd5b600080fd5b7f4e487b7100000000000000000000000000000000000000000000000000000000600052604160045260246000fd5b61415082613f57565b810181811067ffffffffffffffff8211171561416f5761416e614118565b5b80604052505050565b6000614182613fc3565b905061418e8282614147565b919050565b600067ffffffffffffffff8211156141ae576141ad614118565b5b6141b782613f57565b9050602081019050919050565b82818337600083830152505050565b60006141e66141e184614193565b614178565b90508281526020810184848401111561420257614201614113565b5b61420d8482856141c4565b509392505050565b600082601f83011261422a5761422961410e565b5b813561423a8482602086016141d3565b91505092915050565b6000806000806080858703121561425d5761425c613fcd565b5b600061426b87828801614020565b945050602061427c87828801614020565b935050604061428d87828801614056565b925050606085013567ffffffffffffffff8111156142ae576142ad613fd2565b5b6142ba87828801614215565b91505092959194509250565b60007fffffffff0000000000000000000000000000000000000000000000000000000082169050919050565b6142fb816142c6565b82525050565b600060208201905061431660008301846142f2565b92915050565b61432581614035565b82525050565b6000602082019050614340600083018461431c565b92915050565b60008060006060848603121561435f5761435e613fcd565b5b600061436d86828701614020565b935050602061437e86828701614020565b925050604061438f86828701614056565b9150509250925092565b6000602082840312156143af576143ae613fcd565b5b60006143bd84828501614056565b91505092915050565b600060ff82169050919050565b6143dc816143c6565b82525050565b60006020820190506143f760008301846143d3565b92915050565b61440681613ff7565b82525050565b600060208201905061442160008301846143fd565b92915050565b600067ffffffffffffffff82111561444257614441614118565b5b61444b82613f57565b9050602081019050919050565b600061446b61446684614427565b614178565b90508281526020810184848401111561448757614486614113565b5b6144928482856141c4565b509392505050565b600082601f8301126144af576144ae61410e565b5b81356144bf848260208601614458565b91505092915050565b600080600080600080600080610100898b0312156144e9576144e8613fcd565b5b60006144f78b828c01614020565b98505060206145088b828c01614020565b97505060406145198b828c01614056565b965050606061452a8b828c01614056565b955050608061453b8b828c01614056565b94505060a061454c8b828c01614056565b93505060c089013567ffffffffffffffff81111561456d5761456c613fd2565b5b6145798b828c0161449a565b92505060e089013567ffffffffffffffff81111561459a57614599613fd2565b5b6145a68b828c0161449a565b9150509295985092959890939650565b7f4e487b7100000000000000000000000000000000000000000000000000000000600052602160045260246000fd5b600481106145f6576145f56145b6565b5b50565b6000819050614607826145e5565b919050565b6000614617826145f9565b9050919050565b6146278161460c565b82525050565b6000602082019050614642600083018461461e565b92915050565b600061465382613fd7565b9050919050565b61466381614648565b82525050565b600060208201905061467e600083018461465a565b92915050565b6000806040838503121561469b5761469a613fcd565b5b60006146a985828601614020565b92505060206146ba85828601614020565b9150509250929050565b7f4e487b7100000000000000000000000000000000000000000000000000000000600052602260045260246000fd5b6000600282049050600182168061470b57607f821691505b60208210810361471e5761471d6146c4565b5b50919050565b7f7570646174653a6e6f742063757261746f720000000000000000000000000000600082015250565b600061475a601283613f13565b915061476582614724565b602082019050919050565b600060208201905081810360008301526147898161474d565b9050919050565b7f6269643a61756374696f6e206973206e6f74206c697665000000000000000000600082015250565b60006147c6601783613f13565b91506147d182614790565b602082019050919050565b600060208201905081810360008301526147f5816147b9565b9050919050565b60008151905061480b8161403f565b92915050565b60006020828403121561482757614826613fcd565b5b6000614835848285016147fc565b91505092915050565b7f4e487b7100000000000000000000000000000000000000000000000000000000600052601160045260246000fd5b600061487882614035565b915061488383614035565b9250827fffffffffffffffffffffffffffffffffffffffffffffffffffffffffffffffff038211156148b8576148b761483e565b5b828201905092915050565b60006148ce82614035565b91506148d983614035565b9250817fffffffffffffffffffffffffffffffffffffffffffffffffffffffffffffffff04831182151516156149125761491161483e565b5b828202905092915050565b7f6269643a746f6f206c6f77206269640000000000000000000000000000000000600082015250565b6000614953600f83613f13565b915061495e8261491d565b602082019050919050565b6000602082019050818103600083015261498281614946565b9050919050565b7f6269643a61756374696f6e20656e646564000000000000000000000000000000600082015250565b60006149bf601183613f13565b91506149ca82614989565b602082019050919050565b600060208201905081810360008301526149ee816149b2565b9050919050565b6000614a0082614035565b9150614a0b83614035565b925082821015614a1e57614a1d61483e565b5b828203905092915050565b600081519050614a3881614009565b92915050565b600060208284031215614a5457614a53613fcd565b5b6000614a6284828501614a29565b91505092915050565b7f6b69636b3a6e6f7420676f760000000000000000000000000000000000000000600082015250565b6000614aa1600c83613f13565b9150614aac82614a6b565b602082019050919050565b60006020820190508181036000830152614ad081614a94565b9050919050565b7f7570646174653a696e76616c69642061756374696f6e206c656e677468000000600082015250565b6000614b0d601d83613f13565b9150614b1882614ad7565b602082019050919050565b60006020820190508181036000830152614b3c81614b00565b9050919050565b6000819050919050565b6000819050919050565b6000614b72614b6d614b6884614b43565b614b4d565b6143c6565b9050919050565b614b8281614b57565b82525050565b6000602082019050614b9d6000830184614b79565b92915050565b7f7570646174653a61756374696f6e206c6976652063616e6e6f7420757064617460008201527f6520707269636500000000000000000000000000000000000000000000000000602082015250565b6000614bff602783613f13565b9150614c0a82614ba3565b604082019050919050565b60006020820190508181036000830152614c2e81614bf2565b9050919050565b7f7570646174653a6e6f7420616e20757064617465000000000000000000000000600082015250565b6000614c6b601483613f13565b9150614c7682614c35565b602082019050919050565b60006020820190508181036000830152614c9a81614c5e565b9050919050565b7f4e487b7100000000000000000000000000000000000000000000000000000000600052601260045260246000fd5b6000614cdb82614035565b9150614ce683614035565b925082614cf657614cf5614ca1565b5b828204905092915050565b7f7570646174653a7265736572766520707269636520746f6f206c6f7700000000600082015250565b6000614d37601c83613f13565b9150614d4282614d01565b602082019050919050565b60006020820190508181036000830152614d6681614d2a565b9050919050565b7f7570646174653a7265736572766520707269636520746f6f2068696768000000600082015250565b6000614da3601d83613f13565b9150614dae82614d6d565b602082019050919050565b60006020820190508181036000830152614dd281614d96565b9050919050565b7f72656d6f76653a6e6f7420676f76000000000000000000000000000000000000600082015250565b6000614e0f600e83613f13565b9150614e1a82614dd9565b602082019050919050565b60006020820190508181036000830152614e3e81614e02565b9050919050565b6000819050919050565b6000614e6a614e65614e6084614e45565b614b4d565b614035565b9050919050565b614e7a81614e4f565b82525050565b6000602082019050614e956000830184614e71565b92915050565b7f7570646174653a63616e6e6f7420696e6372656173652066656520746869732060008201527f6869676800000000000000000000000000000000000000000000000000000000602082015250565b6000614ef7602483613f13565b9150614f0282614e9b565b604082019050919050565b60006020820190508181036000830152614f2681614eea565b9050919050565b7f636173683a7661756c74206e6f7420636c6f7365642079657400000000000000600082015250565b6000614f63601983613f13565b9150614f6e82614f2d565b602082019050919050565b60006020820190508181036000830152614f9281614f56565b9050919050565b7f636173683a6e6f20746f6b656e7320746f2063617368206f7574000000000000600082015250565b6000614fcf601a83613f13565b9150614fda82614f99565b602082019050919050565b60006020820190508181036000830152614ffe81614fc2565b9050919050565b7f45524332303a2064656372656173656420616c6c6f77616e63652062656c6f7760008201527f207a65726f000000000000000000000000000000000000000000000000000000602082015250565b6000615061602583613f13565b915061506c82615005565b604082019050919050565b6000602082019050818103600083015261509081615054565b9050919050565b7f72656465656d3a6e6f2072656465656d696e6700000000000000000000000000600082015250565b60006150cd601383613f13565b91506150d882615097565b602082019050919050565b600060208201905081810360008301526150fc816150c0565b9050919050565b600060608201905061511860008301866143fd565b61512560208301856143fd565b615132604083018461431c565b949350505050565b7f73746172743a6e6f2061756374696f6e20737461727473000000000000000000600082015250565b6000615170601783613f13565b915061517b8261513a565b602082019050919050565b6000602082019050818103600083015261519f81615163565b9050919050565b7f73746172743a746f6f206c6f7720626964000000000000000000000000000000600082015250565b60006151dc601183613f13565b91506151e7826151a6565b602082019050919050565b6000602082019050818103600083015261520b816151cf565b9050919050565b7f73746172743a6e6f7420656e6f75676820766f74657273000000000000000000600082015250565b6000615248601783613f13565b915061525382615212565b602082019050919050565b600060208201905081810360008301526152778161523b565b9050919050565b7f656e643a7661756c742068617320616c726561647920636c6f73656400000000600082015250565b60006152b4601c83613f13565b91506152bf8261527e565b602082019050919050565b600060208201905081810360008301526152e3816152a7565b9050919050565b7f656e643a61756374696f6e206c69766500000000000000000000000000000000600082015250565b6000615320601083613f13565b915061532b826152ea565b602082019050919050565b6000602082019050818103600083015261534f81615313565b9050919050565b600061537161536c61536784613fd7565b614b4d565b613fd7565b9050919050565b600061538382615356565b9050919050565b600061539582615378565b9050919050565b6153a58161538a565b82525050565b60006060820190506153c060008301866143fd565b6153cd602083018561539c565b6153da604083018461431c565b949350505050565b7f45524332303a20617070726f76652066726f6d20746865207a65726f2061646460008201527f7265737300000000000000000000000000000000000000000000000000000000602082015250565b600061543e602483613f13565b9150615449826153e2565b604082019050919050565b6000602082019050818103600083015261546d81615431565b9050919050565b7f45524332303a20617070726f766520746f20746865207a65726f20616464726560008201527f7373000000000000000000000000000000000000000000000000000000000000602082015250565b60006154d0602283613f13565b91506154db82615474565b604082019050919050565b600060208201905081810360008301526154ff816154c3565b9050919050565b600060408201905061551b60008301856143fd565b615528602083018461431c565b9392505050565b615538816140ab565b811461554357600080fd5b50565b6000815190506155558161552f565b92915050565b60006020828403121561557157615570613fcd565b5b600061557f84828501615546565b91505092915050565b7f45524332303a20696e73756666696369656e7420616c6c6f77616e6365000000600082015250565b60006155be601d83613f13565b91506155c982615588565b602082019050919050565b600060208201905081810360008301526155ed816155b1565b9050919050565b7f45524332303a207472616e736665722066726f6d20746865207a65726f20616460008201527f6472657373000000000000000000000000000000000000000000000000000000602082015250565b6000615650602583613f13565b915061565b826155f4565b604082019050919050565b6000602082019050818103600083015261567f81615643565b9050919050565b7f45524332303a207472616e7366657220746f20746865207a65726f206164647260008201527f6573730000000000000000000000000000000000000000000000000000000000602082015250565b60006156e2602383613f13565b91506156ed82615686565b604082019050919050565b60006020820190508181036000830152615711816156d5565b9050919050565b7f45524332303a207472616e7366657220616d6f756e742065786365656473206260008201527f616c616e63650000000000000000000000000000000000000000000000000000602082015250565b6000615774602683613f13565b915061577f82615718565b604082019050919050565b600060208201905081810360008301526157a381615767565b9050919050565b7f496e697469616c697a61626c653a20636f6e747261637420697320616c72656160008201527f647920696e697469616c697a6564000000000000000000000000000000000000602082015250565b6000615806602e83613f13565b9150615811826157aa565b604082019050919050565b60006020820190508181036000830152615835816157f9565b9050919050565b7f496e697469616c697a61626c653a20636f6e7472616374206973206e6f74206960008201527f6e697469616c697a696e67000000000000000000000000000000000000000000602082015250565b6000615898602b83613f13565b91506158a38261583c565b604082019050919050565b600060208201905081810360008301526158c78161588b565b9050919050565b7f45524332303a206d696e7420746f20746865207a65726f206164647265737300600082015250565b6000615904601f83613f13565b915061590f826158ce565b602082019050919050565b60006020820190508181036000830152615933816158f7565b9050919050565b7f636c61696d3a63616e6e6f7420636c61696d2061667465722061756374696f6e60008201527f20656e6473000000000000000000000000000000000000000000000000000000602082015250565b6000615996602583613f13565b91506159a18261593a565b604082019050919050565b600060208201905081810360008301526159c581615989565b9050919050565b6159d581614648565b81146159e057600080fd5b50565b6000815190506159f2816159cc565b92915050565b600060208284031215615a0e57615a0d613fcd565b5b6000615a1c848285016159e3565b91505092915050565b7f45524332303a206275726e2066726f6d20746865207a65726f2061646472657360008201527f7300000000000000000000000000000000000000000000000000000000000000602082015250565b6000615a81602183613f13565b9150615a8c82615a25565b604082019050919050565b60006020820190508181036000830152615ab081615a74565b9050919050565b7f45524332303a206275726e20616d6f756e7420657863656564732062616c616e60008201527f6365000000000000000000000000000000000000000000000000000000000000602082015250565b6000615b13602283613f13565b9150615b1e82615ab7565b604082019050919050565b60006020820190508181036000830152615b4281615b06565b905091905056fea26469706673582212206a9c05dc52a425af84805d897375a5a1ba665220aeafc503cf073a96d6ad62ac64736f6c634300080d0033",
  "immutableReferences": {
    "5217": [
      {
        "length": 32,
        "start": 1988
      }
    ],
    "5220": [
      {
        "length": 32,
        "start": 1487
      },
      {
        "length": 32,
        "start": 1952
      }
    ]
  },
  "source": "//SPDX-License-Identifier: MIT\npragma solidity ^0.8.0;\n\nimport \"@openzeppelin/contracts/access/Ownable.sol\";\nimport \"@openzeppelin/contracts/security/Pausable.sol\";\n\nimport \"@openzeppelin/contracts/token/ERC721/ERC721.sol\";\nimport \"@openzeppelin/contracts/token/ERC721/utils/ERC721Holder.sol\";\n\nimport \"./InitializedProxy.sol\";\nimport \"./Settings.sol\";\nimport \"./ERC721TokenVault.sol\";\n\ncontract ERC721VaultFactory is Ownable, Pausable {\n  /// @notice the number of ERC721 vaults\n  uint256 public vaultCount;\n\n  /// @notice the mapping of vault number to vault contract\n  mapping(uint256 => address) public vaults;\n\n  /// @notice a settings contract controlled by governance\n  address public immutable settings;\n  /// @notice the TokenVault logic contract\n  address public immutable logic;\n\n  event Mint(\n    address indexed token,\n    uint256 id,\n    uint256 price,\n    address vault,\n    uint256 vaultId\n  );\n\n  constructor(address _settings) {\n    settings = _settings;\n    logic = address(new TokenVault(_settings));\n  }\n\n  /// @notice the function to mint a new vault\n  /// @param _name the desired name of the vault\n  /// @param _symbol the desired sumbol of the vault\n  /// @param _token the ERC721 token address fo the NFT\n  /// @param _id the uint256 ID of the token\n  /// @param _supply is the initial total supply of the token\n  /// @param _listPrice the initial price of the NFT\n  /// @param _fee is the curators fee on creation\n  /// @return the ID of the vault\n  function mint(\n    string memory _name,\n    string memory _symbol,\n    address _token,\n    uint256 _id,\n    uint256 _supply,\n    uint256 _listPrice,\n    uint256 _fee\n  ) external whenNotPaused returns (uint256) {\n    bytes memory _initializationCalldata = abi.encodeWithSignature(\n      \"initialize(address,address,uint256,uint256,uint256,uint256,string,string)\",\n      msg.sender,\n      _token,\n      _id,\n      _supply,\n      _listPrice,\n      _fee,\n      _name,\n      _symbol\n    );\n\n    address vault = address(\n      new InitializedProxy(logic, _initializationCalldata)\n    );\n\n    emit Mint(_token, _id, _listPrice, vault, vaultCount);\n\n    IERC721(_token).safeTransferFrom(msg.sender, vault, _id);\n\n    vaults[vaultCount] = vault;\n    vaultCount++;\n\n    return vaultCount - 1;\n  }\n\n  function pause() external onlyOwner {\n    _pause();\n  }\n\n  function unpause() external onlyOwner {\n    _unpause();\n  }\n\n  function getVault(uint256 _id) public view returns (address) {\n    return vaults[_id];\n  }\n}\n",
  "sourcePath": "/Users/drewhyte/Sites/SOLIDITY/openland-contract-moonriver/contracts/ERC721VaultFactory.sol",
  "compiler": {
    "name": "solc",
    "version": "0.8.13+commit.abaa5c0e.Emscripten.clang"
  },
  "schemaVersion": "3.4.6",
  "updatedAt": "2022-05-09T23:52:56.569Z",
  "devdoc": {
    "kind": "dev",
    "methods": {
      "mint(string,string,address,uint256,uint256,uint256,uint256)": {
        "params": {
          "_fee": "is the curators fee on creation",
          "_id": "the uint256 ID of the token",
          "_listPrice": "the initial price of the NFT",
          "_name": "the desired name of the vault",
          "_supply": "is the initial total supply of the token",
          "_symbol": "the desired sumbol of the vault",
          "_token": "the ERC721 token address fo the NFT"
        },
        "returns": {
          "_0": "the ID of the vault"
        }
      },
      "owner()": {
        "details": "Returns the address of the current owner."
      },
      "paused()": {
        "details": "Returns true if the contract is paused, and false otherwise."
      },
      "renounceOwnership()": {
        "details": "Leaves the contract without owner. It will not be possible to call `onlyOwner` functions anymore. Can only be called by the current owner. NOTE: Renouncing ownership will leave the contract without an owner, thereby removing any functionality that is only available to the owner."
      },
      "transferOwnership(address)": {
        "details": "Transfers ownership of the contract to a new account (`newOwner`). Can only be called by the current owner."
      }
    },
    "version": 1
  },
  "userdoc": {
    "kind": "user",
    "methods": {
      "logic()": {
        "notice": "the TokenVault logic contract"
      },
      "mint(string,string,address,uint256,uint256,uint256,uint256)": {
        "notice": "the function to mint a new vault"
      },
      "settings()": {
        "notice": "a settings contract controlled by governance"
      },
      "vaultCount()": {
        "notice": "the number of ERC721 vaults"
      },
      "vaults(uint256)": {
        "notice": "the mapping of vault number to vault contract"
      }
    },
    "version": 1
  }
}