{
  "contractName": "ERC721VaultFactory",
  "abi": [
    {
      "inputs": [
        {
          "internalType": "address",
          "name": "_settings",
          "type": "address"
        }
      ],
      "stateMutability": "nonpayable",
      "type": "constructor"
    },
    {
      "anonymous": false,
      "inputs": [
        {
          "indexed": true,
          "internalType": "address",
          "name": "token",
          "type": "address"
        },
        {
          "indexed": false,
          "internalType": "uint256",
          "name": "id",
          "type": "uint256"
        },
        {
          "indexed": false,
          "internalType": "uint256",
          "name": "price",
          "type": "uint256"
        },
        {
          "indexed": false,
          "internalType": "address",
          "name": "vault",
          "type": "address"
        },
        {
          "indexed": false,
          "internalType": "uint256",
          "name": "vaultId",
          "type": "uint256"
        }
      ],
      "name": "Mint",
      "type": "event"
    },
    {
      "anonymous": false,
      "inputs": [
        {
          "indexed": true,
          "internalType": "address",
          "name": "previousOwner",
          "type": "address"
        },
        {
          "indexed": true,
          "internalType": "address",
          "name": "newOwner",
          "type": "address"
        }
      ],
      "name": "OwnershipTransferred",
      "type": "event"
    },
    {
      "anonymous": false,
      "inputs": [
        {
          "indexed": false,
          "internalType": "address",
          "name": "account",
          "type": "address"
        }
      ],
      "name": "Paused",
      "type": "event"
    },
    {
      "anonymous": false,
      "inputs": [
        {
          "indexed": false,
          "internalType": "address",
          "name": "account",
          "type": "address"
        }
      ],
      "name": "Unpaused",
      "type": "event"
    },
    {
      "inputs": [],
      "name": "logic",
      "outputs": [
        {
          "internalType": "address",
          "name": "",
          "type": "address"
        }
      ],
      "stateMutability": "view",
      "type": "function",
      "constant": true
    },
    {
      "inputs": [],
      "name": "owner",
      "outputs": [
        {
          "internalType": "address",
          "name": "",
          "type": "address"
        }
      ],
      "stateMutability": "view",
      "type": "function",
      "constant": true
    },
    {
      "inputs": [],
      "name": "paused",
      "outputs": [
        {
          "internalType": "bool",
          "name": "",
          "type": "bool"
        }
      ],
      "stateMutability": "view",
      "type": "function",
      "constant": true
    },
    {
      "inputs": [],
      "name": "renounceOwnership",
      "outputs": [],
      "stateMutability": "nonpayable",
      "type": "function"
    },
    {
      "inputs": [],
      "name": "settings",
      "outputs": [
        {
          "internalType": "address",
          "name": "",
          "type": "address"
        }
      ],
      "stateMutability": "view",
      "type": "function",
      "constant": true
    },
    {
      "inputs": [
        {
          "internalType": "address",
          "name": "newOwner",
          "type": "address"
        }
      ],
      "name": "transferOwnership",
      "outputs": [],
      "stateMutability": "nonpayable",
      "type": "function"
    },
    {
      "inputs": [],
      "name": "vaultCount",
      "outputs": [
        {
          "internalType": "uint256",
          "name": "",
          "type": "uint256"
        }
      ],
      "stateMutability": "view",
      "type": "function",
      "constant": true
    },
    {
      "inputs": [
        {
          "internalType": "uint256",
          "name": "",
          "type": "uint256"
        }
      ],
      "name": "vaults",
      "outputs": [
        {
          "internalType": "address",
          "name": "",
          "type": "address"
        }
      ],
      "stateMutability": "view",
      "type": "function",
      "constant": true
    },
    {
      "inputs": [
        {
          "internalType": "string",
          "name": "_name",
          "type": "string"
        },
        {
          "internalType": "string",
          "name": "_symbol",
          "type": "string"
        },
        {
          "internalType": "address",
          "name": "_token",
          "type": "address"
        },
        {
          "internalType": "uint256",
          "name": "_id",
          "type": "uint256"
        },
        {
          "internalType": "uint256",
          "name": "_supply",
          "type": "uint256"
        },
        {
          "internalType": "uint256",
          "name": "_listPrice",
          "type": "uint256"
        },
        {
          "internalType": "uint256",
          "name": "_fee",
          "type": "uint256"
        }
      ],
      "name": "mint",
      "outputs": [
        {
          "internalType": "uint256",
          "name": "",
          "type": "uint256"
        }
      ],
      "stateMutability": "nonpayable",
      "type": "function"
    },
    {
      "inputs": [],
      "name": "pause",
      "outputs": [],
      "stateMutability": "nonpayable",
      "type": "function"
    },
    {
      "inputs": [],
      "name": "unpause",
      "outputs": [],
      "stateMutability": "nonpayable",
      "type": "function"
    }
  ],
  "bytecode": "0x60c060405234801561001057600080fd5b5060405161487338038061487383398101604081905261002f9161011c565b6100516100436401000000006100bb810204565b6401000000006100bf810204565b6000805460a060020a60ff0219169055600160a060020a038116608052604051819061007c9061010f565b600160a060020a039091168152602001604051809103906000f0801580156100a8573d6000803e3d6000fd5b50600160a060020a031660a0525061014c565b3390565b60008054600160a060020a03838116600160a060020a0319831681178455604051919092169283917f8be0079c531659141344cd1fd0a4f28419497f9722a3daafe3b4186f6b6457e09190a35050565b6133ac806114c783390190565b60006020828403121561012e57600080fd5b8151600160a060020a038116811461014557600080fd5b9392505050565b60805160a05161134f6101786000396000818161019d01526103b1015260006101c5015261134f6000f3fe60806040523480156200001157600080fd5b5060043610620000d4576000357c0100000000000000000000000000000000000000000000000000000000900480638da5cb5b11620000975780638da5cb5b146200015d578063a7c6a1001462000167578063bdc011101462000180578063d7dfa0dd1462000197578063e06174e414620001bf578063f2fde38b14620001e757600080fd5b80633f4ba83a14620000d95780635c975abb14620000e5578063715018a614620001045780638456cb59146200010e5780638c64ea4a1462000118575b600080fd5b620000e3620001fe565b005b620000ef6200024a565b60405190151581526020015b60405180910390f35b620000e36200026b565b620000e3620002ae565b6200014462000129366004620007d7565b600260205260009081526040902054600160a060020a031681565b604051600160a060020a039091168152602001620000fb565b62000144620002ef565b6200017160015481565b604051908152602001620000fb565b6200017162000191366004620008bc565b620002fe565b620001447f000000000000000000000000000000000000000000000000000000000000000081565b620001447f000000000000000000000000000000000000000000000000000000000000000081565b620000e3620001f83660046200095e565b62000562565b3362000209620002ef565b600160a060020a0316146200023e5760405160e560020a62461bcd028152600401620002359062000983565b60405180910390fd5b6200024862000628565b565b60005474010000000000000000000000000000000000000000900460ff1690565b3362000276620002ef565b600160a060020a031614620002a25760405160e560020a62461bcd028152600401620002359062000983565b620002486000620006e1565b33620002b9620002ef565b600160a060020a031614620002e55760405160e560020a62461bcd028152600401620002359062000983565b620002486200073e565b600054600160a060020a031690565b60006200030a6200024a565b156200032d5760405160e560020a62461bcd0281526004016200023590620009b8565b60003387878787878e8e6040516024016200035098979695949392919062000a3f565b60408051601f198184030181529181526020820180517bffffffffffffffffffffffffffffffffffffffffffffffffffffffff167f626fb2f000000000000000000000000000000000000000000000000000000000179052519091506000907f0000000000000000000000000000000000000000000000000000000000000000908390620003de90620007c9565b620003eb92919062000aab565b604051809103906000f08015801562000408573d6000803e3d6000fd5b50905087600160a060020a03167ff9c32fbc56ff04f32a233ebc26e388564223745e28abd8d0781dd906537f563e8887846001546040516200046c94939291909384526020840192909252600160a060020a03166040830152606082015260800190565b60405180910390a26040517f42842e0e000000000000000000000000000000000000000000000000000000008152336004820152600160a060020a038281166024830152604482018990528916906342842e0e90606401600060405180830381600087803b158015620004de57600080fd5b505af1158015620004f3573d6000803e3d6000fd5b5050600180546000908152600260205260408120805473ffffffffffffffffffffffffffffffffffffffff1916600160a060020a038716179055815493509091506200053f8362000af0565b91905055506001805462000554919062000b0c565b9a9950505050505050505050565b336200056d620002ef565b600160a060020a031614620005995760405160e560020a62461bcd028152600401620002359062000983565b600160a060020a0381166200061a5760405160e560020a62461bcd02815260206004820152602660248201527f4f776e61626c653a206e6577206f776e657220697320746865207a65726f206160448201527f6464726573730000000000000000000000000000000000000000000000000000606482015260840162000235565b6200062581620006e1565b50565b620006326200024a565b620006835760405160e560020a62461bcd02815260206004820152601460248201527f5061757361626c653a206e6f7420706175736564000000000000000000000000604482015260640162000235565b6000805474ff0000000000000000000000000000000000000000191690557f5db9ee0a495bf2e6ff9c91a7834c1ba4fdd244a5e8aa4e537bd38aeae4b073aa335b604051600160a060020a03909116815260200160405180910390a1565b60008054600160a060020a0383811673ffffffffffffffffffffffffffffffffffffffff19831681178455604051919092169283917f8be0079c531659141344cd1fd0a4f28419497f9722a3daafe3b4186f6b6457e09190a35050565b620007486200024a565b156200076b5760405160e560020a62461bcd0281526004016200023590620009b8565b6000805474ff00000000000000000000000000000000000000001916740100000000000000000000000000000000000000001790557f62e78cea01bee320cd4e420270b5ea74000d11b0c9f74754ebdbfc544b05a258620006c43390565b6107f38062000b2783390190565b600060208284031215620007ea57600080fd5b5035919050565b60e060020a634e487b7102600052604160045260246000fd5b600082601f8301126200081c57600080fd5b813567ffffffffffffffff808211156200083a576200083a620007f1565b604051601f8301601f19908116603f01168101908282118183101715620008655762000865620007f1565b816040528381528660208588010111156200087f57600080fd5b836020870160208301376000602085830101528094505050505092915050565b8035600160a060020a0381168114620008b757600080fd5b919050565b600080600080600080600060e0888a031215620008d857600080fd5b873567ffffffffffffffff80821115620008f157600080fd5b620008ff8b838c016200080a565b985060208a01359150808211156200091657600080fd5b50620009258a828b016200080a565b96505062000936604089016200089f565b969995985095966060810135965060808101359560a0820135955060c0909101359350915050565b6000602082840312156200097157600080fd5b6200097c826200089f565b9392505050565b6020808252818101527f4f776e61626c653a2063616c6c6572206973206e6f7420746865206f776e6572604082015260600190565b60208082526010908201527f5061757361626c653a2070617573656400000000000000000000000000000000604082015260600190565b6000815180845260005b8181101562000a1757602081850181015186830182015201620009f9565b8181111562000a2a576000602083870101525b50601f01601f19169290920160200192915050565b6000610100600160a060020a03808c168452808b166020850152508860408401528760608401528660808401528560a08401528060c084015262000a8681840186620009ef565b905082810360e084015262000a9c8185620009ef565b9b9a5050505050505050505050565b600160a060020a038316815260406020820152600062000acf6040830184620009ef565b949350505050565b60e060020a634e487b7102600052601160045260246000fd5b60006001820162000b055762000b0562000ad7565b5060010190565b60008282101562000b215762000b2162000ad7565b50039056fe608060405234801561001057600080fd5b506040516107f33803806107f383398101604081905261002f9161014e565b60008054600160a060020a031916600160a060020a038416908117825560405182919061005d90859061021d565b600060405180830381855af49150503d8060008114610098576040519150601f19603f3d011682016040523d82523d6000602084013e61009d565b606091505b50915091508181906100e5576040517f08c379a00000000000000000000000000000000000000000000000000000000081526004016100dc9190610239565b60405180910390fd5b505050505061026c565b7f4e487b7100000000000000000000000000000000000000000000000000000000600052604160045260246000fd5b60005b83811015610139578181015183820152602001610121565b83811115610148576000848401525b50505050565b6000806040838503121561016157600080fd5b8251600160a060020a038116811461017857600080fd5b602084015190925067ffffffffffffffff8082111561019657600080fd5b818501915085601f8301126101aa57600080fd5b8151818111156101bc576101bc6100ef565b604051601f8201601f19908116603f011681019083821181831017156101e4576101e46100ef565b816040528281528860208487010111156101fd57600080fd5b61020e83602083016020880161011e565b80955050505050509250929050565b6000825161022f81846020870161011e565b9190910192915050565b602081526000825180602084015261025881604085016020870161011e565b601f01601f19169190910160400192915050565b6105788061027b6000396000f3fe608060405260043610610049577c01000000000000000000000000000000000000000000000000000000006000350463d7dfa0dd8114610084578063e812ff75146100c157610050565b3661005057005b60008054604051600160a060020a0390911691369082376000803683855af43d806000843e818015610080578184f35b8184fd5b34801561009057600080fd5b506000546100a490600160a060020a031681565b604051600160a060020a0390911681526020015b60405180910390f35b3480156100cd57600080fd5b506100e16100dc366004610377565b6100ee565b6040516100b8919061046b565b60008054604051606092600160a060020a0390921691908190839061011490879061049e565b600060405180830381855af49150503d806000811461014f576040519150601f19603f3d011682016040523d82523d6000602084013e610154565b606091505b50915091508560ff166000036101b75760008180602001905181019061017a91906104ba565b604051909150600160a060020a038216907fb7882295b1d781eddcfd038eb53f3dbd39dd43f896c3bf68b21122d124233a7d90600090a250610321565b8560ff1660010361020c576000818060200190518101906101d891906104ea565b60405190915081907f6e645dac104d72443534d391ebf9941ec33ab5743685aa95b9bd87854706d63b90600090a250610321565b8560ff166002036102635760008180602001905181019061022d9190610503565b604051909150811515907f6578ae8a3600eb850cc00e2b156795dbac2dcb707789a45b10cc44a186f8ae8090600090a250610321565b8560ff166003036102bb576000818060200190518101906102849190610525565b60405190915060ff8216907f86e8c5b2faebf034f50e5544a4646fbf6214bd0cff1f74670284f081a201e15b90600090a250610321565b6040517f08c379a000000000000000000000000000000000000000000000000000000000815260206004820152601160248201527f496e76616c696420646174612074797065000000000000000000000000000000604482015260640160405180910390fd5b8161032d573d60208201fd5b95945050505050565b60ff8116811461034557600080fd5b50565b7f4e487b7100000000000000000000000000000000000000000000000000000000600052604160045260246000fd5b6000806040838503121561038a57600080fd5b823561039581610336565b9150602083013567ffffffffffffffff808211156103b257600080fd5b818501915085601f8301126103c657600080fd5b8135818111156103d8576103d8610348565b604051601f8201601f19908116603f0116810190838211818310171561040057610400610348565b8160405282815288602084870101111561041957600080fd5b8260208601602083013760006020848301015280955050505050509250929050565b60005b8381101561045657818101518382015260200161043e565b83811115610465576000848401525b50505050565b602081526000825180602084015261048a81604085016020870161043b565b601f01601f19169190910160400192915050565b600082516104b081846020870161043b565b9190910192915050565b6000602082840312156104cc57600080fd5b8151600160a060020a03811681146104e357600080fd5b9392505050565b6000602082840312156104fc57600080fd5b5051919050565b60006020828403121561051557600080fd5b815180151581146104e357600080fd5b60006020828403121561053757600080fd5b81516104e38161033656fea264697066735822122079674761b545567b6e2c89edecd11ee3949f30990a90cd29aeb5a0668d1dad7d64736f6c634300080d0033a2646970667358221220fb59922ccc40539d61d37a2edd9dd421b8adb58cb399a2b4e6da728c2f5f629464736f6c634300080d003360806040523480156200001157600080fd5b50604051620033ac380380620033ac83398101604081905262000034916200005a565b609f8054600160a060020a031916600160a060020a03929092169190911790556200008c565b6000602082840312156200006d57600080fd5b8151600160a060020a03811681146200008557600080fd5b9392505050565b613310806200009c6000396000f3fe6080604052600436106102605760003560e060020a90048063853a1b9011610148578063c91de649116100ba578063ddca3f431161007e578063ddca3f43146106ef578063e06174e414610705578063e66f53b714610725578063efbe1c1c14610745578063fa0c6fb51461075a578063fc0c546a1461078257600080fd5b8063c91de64914610658578063d294f09314610685578063d7dfa0dd1461069a578063db2e1eed146106ba578063dd62ed3e146106cf57600080fd5b8063a457c2d71161010c578063a457c2d7146105cf578063a9059cbb146105ef578063adc1b9561461060f578063af640d0f14610625578063be040fb01461063b578063be9a65551461065057600080fd5b8063853a1b90146105375780639012c4a81461056f57806395d89b411461058f578063961be391146105a45780639a4e6d34146105b957600080fd5b8063313ce567116101e15780636a775714116101a55780636a7757141461047d5780636da84e6c1461049d57806370a08231146104b35780637b5581ed146104d35780637fb45099146104e957806380436fe01461051757600080fd5b8063313ce567146103f1578063325c25a21461040d57806339509351146104235780635c9920fc14610443578063626fb2f01461045d57600080fd5b80631998aeef116102285780631998aeef1461037357806323b872dd1461037b5780632a24f46c1461039b5780632a44f120146103b15780632bf33bd9146103d157600080fd5b806306fdde0314610265578063095ea7b3146102905780630c6a62dd146102c0578063150b7a02146102e257806318160ddd14610354575b600080fd5b34801561027157600080fd5b5061027a6107a2565b6040516102879190612c0f565b60405180910390f35b34801561029c57600080fd5b506102b06102ab366004612c7c565b610834565b6040519015158152602001610287565b3480156102cc57600080fd5b506102e06102db366004612ca8565b61084c565b005b3480156102ee57600080fd5b506103266102fd366004612d5b565b7f150b7a0200000000000000000000000000000000000000000000000000000000949350505050565b6040517bffffffffffffffffffffffffffffffffffffffffffffffffffffffff199091168152602001610287565b34801561036057600080fd5b506035545b604051908152602001610287565b6102e06108a4565b34801561038757600080fd5b506102b0610396366004612ddb565b610b04565b3480156103a757600080fd5b50610365609a5481565b3480156103bd57600080fd5b506102e06103cc366004612ca8565b610b28565b3480156103dd57600080fd5b506102e06103ec366004612e1c565b610c05565b3480156103fd57600080fd5b5060405160128152602001610287565b34801561041957600080fd5b50610365609b5481565b34801561042f57600080fd5b506102b061043e366004612c7c565b610d8c565b34801561044f57600080fd5b5060a3546102b09060ff1681565b34801561046957600080fd5b506102e0610478366004612e55565b610dae565b34801561048957600080fd5b506102e0610498366004612e1c565b610ed4565b3480156104a957600080fd5b50610365609d5481565b3480156104bf57600080fd5b506103656104ce366004612ca8565b6113d4565b3480156104df57600080fd5b50610365609c5481565b3480156104f557600080fd5b50609e5461050a9060a060020a900460ff1681565b6040516102879190612f1e565b34801561052357600080fd5b506102e0610532366004612ca8565b6113ef565b34801561054357600080fd5b50609e5461055790600160a060020a031681565b604051600160a060020a039091168152602001610287565b34801561057b57600080fd5b506102e061058a366004612e1c565b6115d7565b34801561059b57600080fd5b5061027a611704565b3480156105b057600080fd5b506102e0611713565b3480156105c557600080fd5b5061036560a45481565b3480156105db57600080fd5b506102b06105ea366004612c7c565b611852565b3480156105fb57600080fd5b506102b061060a366004612c7c565b6118e8565b34801561061b57600080fd5b5061036560a25481565b34801561063157600080fd5b5061036560995481565b34801561064757600080fd5b506102e06118f6565b6102e0611a36565b34801561066457600080fd5b50610365610673366004612ca8565b60a56020526000908152604090205481565b34801561069157600080fd5b506102e0611c60565b3480156106a657600080fd5b5060975461055790600160a060020a031681565b3480156106c657600080fd5b50610365611c6a565b3480156106db57600080fd5b506103656106ea366004612f49565b611c91565b3480156106fb57600080fd5b5061036560a15481565b34801561071157600080fd5b50609f5461055790600160a060020a031681565b34801561073157600080fd5b5060a05461055790600160a060020a031681565b34801561075157600080fd5b506102e0611cbc565b34801561076657600080fd5b506105577398878b06940ae243284ca214f92bb71a2b032b8a81565b34801561078e57600080fd5b5060985461055790600160a060020a031681565b6060603680546107b190612f82565b80601f01602080910402602001604051908101604052809291908181526020018280546107dd90612f82565b801561082a5780601f106107ff5761010080835404028352916020019161082a565b820191906000526020600020905b81548152906001019060200180831161080d57829003601f168201915b5050505050905090565b600033610842818585611e61565b5060019392505050565b60a054600160a060020a031633146108825760405160e560020a62461bcd02815260040161087990612fbf565b60405180910390fd5b60a08054600160a060020a031916600160a060020a0392909216919091179055565b6001609e5460a060020a900460ff1660038111156108c4576108c4612f05565b146109145760405160e560020a62461bcd02815260206004820152601760248201527f6269643a61756374696f6e206973206e6f74206c6976650000000000000000006044820152606401610879565b609f54604080517f7c513c0f0000000000000000000000000000000000000000000000000000000081529051600092600160a060020a031691637c513c0f916004808301926020929190829003018187875af1158015610978573d6000803e3d6000fd5b505050506040513d601f19601f8201168201806040525081019061099c9190612ff6565b6109a8906103e8613028565b905080609d546109b89190613040565b6109c4346103e8613040565b1015610a155760405160e560020a62461bcd02815260206004820152600f60248201527f6269643a746f6f206c6f772062696400000000000000000000000000000000006044820152606401610879565b609a544210610a695760405160e560020a62461bcd02815260206004820152601160248201527f6269643a61756374696f6e20656e6465640000000000000000000000000000006044820152606401610879565b61038442609a54610a7a919061305f565b11610a9957610384609a6000828254610a939190613028565b90915550505b609e54609d54610ab291600160a060020a031690611fbf565b34609d819055609e8054600160a060020a03191633908117909155604051918252907fe684a55f31b79eca403df938249029212a5925ec6be8012e099b45bc1019e5d29060200160405180910390a250565b600033610b12858285612132565b610b1d8585856121af565b506001949350505050565b609f60009054906101000a9004600160a060020a0316600160a060020a0316638da5cb5b6040518163ffffffff1660e060020a028152600401602060405180830381865afa158015610b7e573d6000803e3d6000fd5b505050506040513d601f19601f82011682018060405250810190610ba29190613076565b600160a060020a031633600160a060020a0316146108825760405160e560020a62461bcd02815260206004820152600c60248201527f6b69636b3a6e6f7420676f7600000000000000000000000000000000000000006044820152606401610879565b60a054600160a060020a03163314610c325760405160e560020a62461bcd02815260040161087990612fbf565b609f60009054906101000a9004600160a060020a0316600160a060020a031663a0b335e36040518163ffffffff1660e060020a0281526004016020604051808303816000875af1158015610c8a573d6000803e3d6000fd5b505050506040513d601f19601f82011682018060405250810190610cae9190612ff6565b8110158015610d385750609f60009054906101000a9004600160a060020a0316600160a060020a0316630e519ef96040518163ffffffff1660e060020a0281526004016020604051808303816000875af1158015610d10573d6000803e3d6000fd5b505050506040513d601f19601f82011682018060405250810190610d349190612ff6565b8111155b610d875760405160e560020a62461bcd02815260206004820152601d60248201527f7570646174653a696e76616c69642061756374696f6e206c656e6774680000006044820152606401610879565b609b55565b600033610842818585610d9f8383611c91565b610da99190613028565b611e61565b6000610dba60016123c8565b90508015610dd2576000805461ff0019166101001790555b610ddc8383612456565b610de461248e565b60988054600160a060020a031916600160a060020a038a161790556099879055610e0e8686613040565b609c5562093a80609b5560a08054600160a060020a031916600160a060020a038b1617905560a18490554260a2558415610e485785610e4b565b60005b60a455609e805460a060020a60ff0219169055610e6889876124b8565b600160a060020a038916600090815260a5602052604090208590558015610ec9576000805461ff0019169055604051600181527f7f26b83ff96e1f2b6a682f133852f6798a09c465da95921460cefb38474024989060200160405180910390a15b505050505050505050565b6000609e5460a060020a900460ff166003811115610ef457610ef4612f05565b14610f145760405160e560020a62461bcd02815260040161087990613093565b33600090815260a56020526040902054808203610f465760405160e560020a62461bcd028152600401610879906130f0565b6000610f51336113d4565b905060a454600003610f745760a4819055610f6c8382613040565b609c55611383565b60a45481148015610f8457508115155b15610f9357610f6c8382613040565b8160000361116457600060a454609c54610fad9190613127565b905060006103e8609f60009054906101000a9004600160a060020a0316600160a060020a03166309990a966040518163ffffffff1660e060020a0281526004016020604051808303816000875af115801561100c573d6000803e3d6000fd5b505050506040513d601f19601f820116820180604052508101906110309190612ff6565b61103a9084613040565b6110449190613127565b9050808510156110695760405160e560020a62461bcd0281526004016108799061314c565b60006103e8609f60009054906101000a9004600160a060020a0316600160a060020a0316635410bfc96040518163ffffffff1660e060020a0281526004016020604051808303816000875af11580156110c6573d6000803e3d6000fd5b505050506040513d601f19601f820116820180604052508101906110ea9190612ff6565b6110f49085613040565b6110fe9190613127565b9050808611156111235760405160e560020a62461bcd02815260040161087990613183565b8360a460008282546111359190613028565b9091555061114590508685613040565b609c60008282546111569190613028565b909155506113839350505050565b826000036111aa578060a4600082825461117e919061305f565b9091555061118e90508282613040565b609c600082825461119f919061305f565b909155506113839050565b60008160a4546111ba919061305f565b6111c48385613040565b609c546111d1919061305f565b6111db9190613127565b905060006103e8609f60009054906101000a9004600160a060020a0316600160a060020a03166309990a966040518163ffffffff1660e060020a0281526004016020604051808303816000875af115801561123a573d6000803e3d6000fd5b505050506040513d601f19601f8201168201806040525081019061125e9190612ff6565b6112689084613040565b6112729190613127565b9050808510156112975760405160e560020a62461bcd0281526004016108799061314c565b60006103e8609f60009054906101000a9004600160a060020a0316600160a060020a0316635410bfc96040518163ffffffff1660e060020a0281526004016020604051808303816000875af11580156112f4573d6000803e3d6000fd5b505050506040513d601f19601f820116820180604052508101906113189190612ff6565b6113229085613040565b61132c9190613127565b9050808611156113515760405160e560020a62461bcd02815260040161087990613183565b61135b8585613040565b6113658786613040565b609c546113729190613028565b61137c919061305f565b609c555050505b33600081815260a5602052604090819020859055517f64e6e7bd72b853c4e62fd6ceaca05a104700c70a4cb567c75c7f2242ba7f037c906113c79086815260200190565b60405180910390a2505050565b600160a060020a031660009081526033602052604090205490565b609f60009054906101000a9004600160a060020a0316600160a060020a0316638da5cb5b6040518163ffffffff1660e060020a028152600401602060405180830381865afa158015611445573d6000803e3d6000fd5b505050506040513d601f19601f820116820180604052508101906114699190613076565b600160a060020a031633600160a060020a0316146114cc5760405160e560020a62461bcd02815260206004820152600e60248201527f72656d6f76653a6e6f7420676f760000000000000000000000000000000000006044820152606401610879565b6000609e5460a060020a900460ff1660038111156114ec576114ec612f05565b1461150c5760405160e560020a62461bcd02815260040161087990613093565b600160a060020a038116600090815260a56020526040812054908190036115485760405160e560020a62461bcd028152600401610879906130f0565b6000611553836113d4565b90508060a46000828254611567919061305f565b9091555061157790508282613040565b609c6000828254611588919061305f565b9091555050600160a060020a038316600081815260a560209081526040808320839055519182527f64e6e7bd72b853c4e62fd6ceaca05a104700c70a4cb567c75c7f2242ba7f037c91016113c7565b60a054600160a060020a031633146116045760405160e560020a62461bcd02815260040161087990612fbf565b609f60009054906101000a9004600160a060020a0316600160a060020a0316638a364bc16040518163ffffffff1660e060020a0281526004016020604051808303816000875af115801561165c573d6000803e3d6000fd5b505050506040513d601f19601f820116820180604052508101906116809190612ff6565b8111156116f75760405160e560020a62461bcd028152602060048201526024808201527f7570646174653a63616e6e6f7420696e6372656173652066656520746869732060448201527f68696768000000000000000000000000000000000000000000000000000000006064820152608401610879565b6116ff612594565b60a155565b6060603780546107b190612f82565b6002609e5460a060020a900460ff16600381111561173357611733612f05565b146117835760405160e560020a62461bcd02815260206004820152601960248201527f636173683a7661756c74206e6f7420636c6f73656420796574000000000000006044820152606401610879565b600061178e336113d4565b9050600081116117e35760405160e560020a62461bcd02815260206004820152601a60248201527f636173683a6e6f20746f6b656e7320746f2063617368206f75740000000000006044820152606401610879565b60006117ee60355490565b6117f9303184613040565b6118039190613127565b905061180f33836127f1565b6118193382612976565b60405181815233907f730831a1e4aa2d187ddd8e03d7beeac760a3927da5f112d645e0f8df7494b3679060200160405180910390a25050565b600033816118608286611c91565b9050838110156118db5760405160e560020a62461bcd02815260206004820152602560248201527f45524332303a2064656372656173656420616c6c6f77616e63652062656c6f7760448201527f207a65726f0000000000000000000000000000000000000000000000000000006064820152608401610879565b610b1d8286868403611e61565b6000336108428185856121af565b6000609e5460a060020a900460ff16600381111561191657611916612f05565b146119665760405160e560020a62461bcd02815260206004820152601360248201527f72656465656d3a6e6f2072656465656d696e67000000000000000000000000006044820152606401610879565b6119783361197360355490565b6127f1565b60985460995460405160e060020a6323b872dd028152600160a060020a03909216916323b872dd916119b091309133916004016131ba565b600060405180830381600087803b1580156119ca57600080fd5b505af11580156119de573d6000803e3d6000fd5b5050609e805460a060020a60ff02191674030000000000000000000000000000000000000000179055505060405133907fd1b5ea7fe0f1c2fa09d49c2aa9b2200664ba57a734f1d95481d95b7f99af991c90600090a2565b6000609e5460a060020a900460ff166003811115611a5657611a56612f05565b14611aa65760405160e560020a62461bcd02815260206004820152601760248201527f73746172743a6e6f2061756374696f6e207374617274730000000000000000006044820152606401610879565b611aae611c6a565b341015611b005760405160e560020a62461bcd02815260206004820152601160248201527f73746172743a746f6f206c6f77206269640000000000000000000000000000006044820152606401610879565b603554609f60009054906101000a9004600160a060020a0316600160a060020a03166332977c736040518163ffffffff1660e060020a0281526004016020604051808303816000875af1158015611b5b573d6000803e3d6000fd5b505050506040513d601f19601f82011682018060405250810190611b7f9190612ff6565b611b899190613040565b60a454611b98906103e8613040565b1015611be95760405160e560020a62461bcd02815260206004820152601760248201527f73746172743a6e6f7420656e6f75676820766f746572730000000000000000006044820152606401610879565b609b54611bf69042613028565b609a55609e805434609d81905574ffffffffffffffffffffffffffffffffffffffffff199091163390811760a060020a179092556040519081527fcfb9c5312b25ec7b809d61e638df25f749eae5d5c25399e1c93d1d319bfd5821906020015b60405180910390a2565b611c68612594565b565b600060a454600014611c8b5760a454609c54611c869190613127565b905090565b50600090565b600160a060020a03918216600090815260346020908152604080832093909416825291909152205490565b6001609e5460a060020a900460ff166003811115611cdc57611cdc612f05565b14611d2c5760405160e560020a62461bcd02815260206004820152601c60248201527f656e643a7661756c742068617320616c726561647920636c6f736564000000006044820152606401610879565b609a54421015611d815760405160e560020a62461bcd02815260206004820152601060248201527f656e643a61756374696f6e206c697665000000000000000000000000000000006044820152606401610879565b611d89612594565b609854609e5460995460405160e060020a6323b872dd028152600160a060020a03938416936323b872dd93611dc793309392909116916004016131ba565b600060405180830381600087803b158015611de157600080fd5b505af1158015611df5573d6000803e3d6000fd5b5050609e80547402000000000000000000000000000000000000000060a060020a60ff0219821617909155609d54604051908152600160a060020a0390911692507f8b01f9dd0400d6a1e84369a5fb8f6033934856ffa8ebadd707dca302ab5516959150602001611c56565b600160a060020a038316611edf5760405160e560020a62461bcd028152602060048201526024808201527f45524332303a20617070726f76652066726f6d20746865207a65726f2061646460448201527f72657373000000000000000000000000000000000000000000000000000000006064820152608401610879565b600160a060020a038216611f5e5760405160e560020a62461bcd02815260206004820152602260248201527f45524332303a20617070726f766520746f20746865207a65726f20616464726560448201527f73730000000000000000000000000000000000000000000000000000000000006064820152608401610879565b600160a060020a0383811660008181526034602090815260408083209487168084529482529182902085905590518481527f8c5be1e5ebec7d5bd14f71427d1e84f3dd0314c0f7b2291e5b200ac8c7c3b925910160405180910390a3505050565b7398878b06940ae243284ca214f92bb71a2b032b8a600160a060020a031663d0e30db0826040518263ffffffff1660e060020a0281526004016000604051808303818588803b15801561201157600080fd5b505af1158015612025573d6000803e3d6000fd5b50506040517f70a082310000000000000000000000000000000000000000000000000000000081523060048201527398878b06940ae243284ca214f92bb71a2b032b8a935063a9059cbb925085915083906370a0823190602401602060405180830381865afa15801561209c573d6000803e3d6000fd5b505050506040513d601f19601f820116820180604052508101906120c09190612ff6565b60405160e060020a63ffffffff8516028152600160a060020a03909216600483015260248201526044016020604051808303816000875af1158015612109573d6000803e3d6000fd5b505050506040513d601f19601f8201168201806040525081019061212d91906131de565b505050565b600061213e8484611c91565b905060001981146121a9578181101561219c5760405160e560020a62461bcd02815260206004820152601d60248201527f45524332303a20696e73756666696369656e7420616c6c6f77616e63650000006044820152606401610879565b6121a98484848403611e61565b50505050565b600160a060020a03831661222e5760405160e560020a62461bcd02815260206004820152602560248201527f45524332303a207472616e736665722066726f6d20746865207a65726f20616460448201527f64726573730000000000000000000000000000000000000000000000000000006064820152608401610879565b600160a060020a0382166122ad5760405160e560020a62461bcd02815260206004820152602360248201527f45524332303a207472616e7366657220746f20746865207a65726f206164647260448201527f65737300000000000000000000000000000000000000000000000000000000006064820152608401610879565b6122b8838383612a0e565b600160a060020a0383166000908152603360205260409020548181101561234a5760405160e560020a62461bcd02815260206004820152602660248201527f45524332303a207472616e7366657220616d6f756e742065786365656473206260448201527f616c616e636500000000000000000000000000000000000000000000000000006064820152608401610879565b600160a060020a03808516600090815260336020526040808220858503905591851681529081208054849290612381908490613028565b9250508190555082600160a060020a031684600160a060020a03166000805160206132bb833981519152846040516123bb91815260200190565b60405180910390a36121a9565b60008054610100900460ff1615612412578160ff1660011480156123eb5750303b155b61240a5760405160e560020a62461bcd02815260040161087990613200565b506000919050565b60005460ff80841691161061243c5760405160e560020a62461bcd02815260040161087990613200565b506000805460ff191660ff92909216919091179055600190565b600054610100900460ff166124805760405160e560020a62461bcd0281526004016108799061325d565b61248a8282612b29565b5050565b600054610100900460ff16611c685760405160e560020a62461bcd0281526004016108799061325d565b600160a060020a0382166125115760405160e560020a62461bcd02815260206004820152601f60248201527f45524332303a206d696e7420746f20746865207a65726f2061646472657373006044820152606401610879565b61251d60008383612a0e565b806035600082825461252f9190613028565b9091555050600160a060020a0382166000908152603360205260408120805483929061255c908490613028565b9091555050604051818152600160a060020a038316906000906000805160206132bb8339815191529060200160405180910390a35050565b6002609e5460a060020a900460ff1660038111156125b4576125b4612f05565b0361262a5760405160e560020a62461bcd02815260206004820152602560248201527f636c61696d3a63616e6e6f7420636c61696d2061667465722061756374696f6e60448201527f20656e64730000000000000000000000000000000000000000000000000000006064820152608401610879565b60006103e861263860355490565b60a1546126459190613040565b61264f9190613127565b905060006126616301e1338083613127565b9050600060a25442612673919061305f565b905060006126818383613040565b90506000609f60009054906101000a9004600160a060020a0316600160a060020a031663b3f006746040518163ffffffff1660e060020a0281526004016020604051808303816000875af11580156126dd573d6000803e3d6000fd5b505050506040513d601f19601f820116820180604052508101906127019190613076565b90506000609f60009054906101000a9004600160a060020a0316600160a060020a0316630ea90a126040518163ffffffff1660e060020a0281526004016020604051808303816000875af115801561275d573d6000803e3d6000fd5b505050506040513d601f19601f820116820180604052508101906127819190612ff6565b90506103e861278f60355490565b6127999083613040565b6127a39190613127565b95506127b36301e1338087613127565b945060006127c18686613040565b4260a25560a0549091506127de90600160a060020a0316856124b8565b6127e883826124b8565b50505050505050565b600160a060020a0382166128705760405160e560020a62461bcd02815260206004820152602160248201527f45524332303a206275726e2066726f6d20746865207a65726f2061646472657360448201527f73000000000000000000000000000000000000000000000000000000000000006064820152608401610879565b61287c82600083612a0e565b600160a060020a0382166000908152603360205260409020548181101561290e5760405160e560020a62461bcd02815260206004820152602260248201527f45524332303a206275726e20616d6f756e7420657863656564732062616c616e60448201527f63650000000000000000000000000000000000000000000000000000000000006064820152608401610879565b600160a060020a038316600090815260336020526040812083830390556035805484929061293d90849061305f565b9091555050604051828152600090600160a060020a038516906000805160206132bb8339815191529060200160405180910390a3505050565b600160a060020a0382163b156129d8577398878b06940ae243284ca214f92bb71a2b032b8a600160a060020a031663d0e30db0826040518263ffffffff1660e060020a0281526004016000604051808303818588803b15801561201157600080fd5b604051600160a060020a0383169082156108fc029083906000818181858888f1935050505015801561212d573d6000803e3d6000fd5b600160a060020a03831615801590612a4357506000609e5460a060020a900460ff166003811115612a4157612a41612f05565b145b1561212d57600160a060020a03808416600090815260a56020526040808220549285168252902054808214612b225780600003612ab8578260a46000828254612a8c919061305f565b90915550612a9c90508284613040565b609c6000828254612aad919061305f565b90915550612b229050565b81600003612af3578260a46000828254612ad29190613028565b90915550612ae290508184613040565b609c6000828254612aad9190613028565b612afd8284613040565b612b078285613040565b609c54612b149190613028565b612b1e919061305f565b609c555b5050505050565b600054610100900460ff16612b535760405160e560020a62461bcd0281526004016108799061325d565b8151612b66906036906020850190612b76565b50805161212d9060379060208401905b828054612b8290612f82565b90600052602060002090601f016020900481019282612ba45760008555612bea565b82601f10612bbd57805160ff1916838001178555612bea565b82800160010185558215612bea579182015b82811115612bea578251825591602001919060010190612bcf565b50612bf6929150612bfa565b5090565b5b80821115612bf65760008155600101612bfb565b600060208083528351808285015260005b81811015612c3c57858101830151858201604001528201612c20565b81811115612c4e576000604083870101525b50601f01601f1916929092016040019392505050565b600160a060020a0381168114612c7957600080fd5b50565b60008060408385031215612c8f57600080fd5b8235612c9a81612c64565b946020939093013593505050565b600060208284031215612cba57600080fd5b8135612cc581612c64565b9392505050565b60e060020a634e487b7102600052604160045260246000fd5b600067ffffffffffffffff80841115612d0057612d00612ccc565b604051601f8501601f19908116603f01168101908282118183101715612d2857612d28612ccc565b81604052809350858152868686011115612d4157600080fd5b858560208301376000602087830101525050509392505050565b60008060008060808587031215612d7157600080fd5b8435612d7c81612c64565b93506020850135612d8c81612c64565b925060408501359150606085013567ffffffffffffffff811115612daf57600080fd5b8501601f81018713612dc057600080fd5b612dcf87823560208401612ce5565b91505092959194509250565b600080600060608486031215612df057600080fd5b8335612dfb81612c64565b92506020840135612e0b81612c64565b929592945050506040919091013590565b600060208284031215612e2e57600080fd5b5035919050565b600082601f830112612e4657600080fd5b612cc583833560208501612ce5565b600080600080600080600080610100898b031215612e7257600080fd5b8835612e7d81612c64565b97506020890135612e8d81612c64565b965060408901359550606089013594506080890135935060a0890135925060c089013567ffffffffffffffff80821115612ec657600080fd5b612ed28c838d01612e35565b935060e08b0135915080821115612ee857600080fd5b50612ef58b828c01612e35565b9150509295985092959890939650565b60e060020a634e487b7102600052602160045260246000fd5b6020810160048310612f435760e060020a634e487b7102600052602160045260246000fd5b91905290565b60008060408385031215612f5c57600080fd5b8235612f6781612c64565b91506020830135612f7781612c64565b809150509250929050565b600281046001821680612f9657607f821691505b602082108103612fb95760e060020a634e487b7102600052602260045260246000fd5b50919050565b60208082526012908201527f7570646174653a6e6f742063757261746f720000000000000000000000000000604082015260600190565b60006020828403121561300857600080fd5b5051919050565b60e060020a634e487b7102600052601160045260246000fd5b6000821982111561303b5761303b61300f565b500190565b600081600019048311821515161561305a5761305a61300f565b500290565b6000828210156130715761307161300f565b500390565b60006020828403121561308857600080fd5b8151612cc581612c64565b60208082526027908201527f7570646174653a61756374696f6e206c6976652063616e6e6f7420757064617460408201527f6520707269636500000000000000000000000000000000000000000000000000606082015260800190565b60208082526014908201527f7570646174653a6e6f7420616e20757064617465000000000000000000000000604082015260600190565b6000826131475760e060020a634e487b7102600052601260045260246000fd5b500490565b6020808252601c908201527f7570646174653a7265736572766520707269636520746f6f206c6f7700000000604082015260600190565b6020808252601d908201527f7570646174653a7265736572766520707269636520746f6f2068696768000000604082015260600190565b600160a060020a039384168152919092166020820152604081019190915260600190565b6000602082840312156131f057600080fd5b81518015158114612cc557600080fd5b6020808252602e908201527f496e697469616c697a61626c653a20636f6e747261637420697320616c72656160408201527f647920696e697469616c697a6564000000000000000000000000000000000000606082015260800190565b6020808252602b908201527f496e697469616c697a61626c653a20636f6e7472616374206973206e6f74206960408201527f6e697469616c697a696e6700000000000000000000000000000000000000000060608201526080019056feddf252ad1be2c89b69c2b068fc378daa952ba7f163c4a11628f55a4df523b3efa2646970667358221220cdd95322408e8263f3a64ab36378e3b4d2fd7761c19e29b7709e7e8b491683de64736f6c634300080d0033",
  "immutableReferences": {
    "5018": [
      {
        "length": 32,
        "start": 453
      }
    ],
    "5021": [
      {
        "length": 32,
        "start": 413
      },
      {
        "length": 32,
        "start": 945
      }
    ]
  },
  "source": "//SPDX-License-Identifier: MIT\npragma solidity ^0.8.0;\n\nimport \"@openzeppelin/contracts/access/Ownable.sol\";\nimport \"@openzeppelin/contracts/security/Pausable.sol\";\n\nimport \"@openzeppelin/contracts/token/ERC721/ERC721.sol\";\nimport \"@openzeppelin/contracts/token/ERC721/utils/ERC721Holder.sol\";\n\nimport \"./InitializedProxy.sol\";\nimport \"./Settings.sol\";\nimport \"./ERC721TokenVault.sol\";\n\ncontract ERC721VaultFactory is Ownable, Pausable {\n  /// @notice the number of ERC721 vaults\n  uint256 public vaultCount;\n\n  /// @notice the mapping of vault number to vault contract\n  mapping(uint256 => address) public vaults;\n\n  /// @notice a settings contract controlled by governance\n  address public immutable settings;\n  /// @notice the TokenVault logic contract\n  address public immutable logic;\n\n  event Mint(\n    address indexed token,\n    uint256 id,\n    uint256 price,\n    address vault,\n    uint256 vaultId\n  );\n\n  constructor(address _settings) {\n    settings = _settings;\n    logic = address(new ERC721TokenVault(_settings));\n  }\n\n  /// @notice the function to mint a new vault\n  /// @param _name the desired name of the vault\n  /// @param _symbol the desired sumbol of the vault\n  /// @param _token the ERC721 token address fo the NFT\n  /// @param _id the uint256 ID of the token\n  /// @param _supply is the initial total supply of the token\n  /// @param _listPrice the initial price of the NFT\n  /// @param _fee is the curators fee on creation\n  /// @return the ID of the vault\n  function mint(\n    string memory _name,\n    string memory _symbol,\n    address _token,\n    uint256 _id,\n    uint256 _supply,\n    uint256 _listPrice,\n    uint256 _fee\n  ) external whenNotPaused returns (uint256) {\n    bytes memory _initializationCalldata = abi.encodeWithSignature(\n      \"initialize(address,address,uint256,uint256,uint256,uint256,string,string)\",\n      msg.sender,\n      _token,\n      _id,\n      _supply,\n      _listPrice,\n      _fee,\n      _name,\n      _symbol\n    );\n\n    address vault = address(\n      new InitializedProxy(logic, _initializationCalldata)\n    );\n\n    emit Mint(_token, _id, _listPrice, vault, vaultCount);\n\n    IERC721(_token).safeTransferFrom(msg.sender, vault, _id);\n\n    vaults[vaultCount] = vault;\n    vaultCount++;\n\n    return vaultCount - 1;\n  }\n\n  function pause() external onlyOwner {\n    _pause();\n  }\n\n  function unpause() external onlyOwner {\n    _unpause();\n  }\n}\n",
  "sourcePath": "/Users/drewhyte/Sites/SOLIDITY/openland-contract-moonriver/contracts/ERC721VaultFactory.sol",
  "compiler": {
    "name": "solc",
    "version": "0.8.13+commit.abaa5c0e.Emscripten.clang"
  },
  "schemaVersion": "3.4.6",
  "updatedAt": "2022-05-15T21:27:43.077Z",
  "networkType": "ethereum",
  "devdoc": {
    "kind": "dev",
    "methods": {
      "mint(string,string,address,uint256,uint256,uint256,uint256)": {
        "params": {
          "_fee": "is the curators fee on creation",
          "_id": "the uint256 ID of the token",
          "_listPrice": "the initial price of the NFT",
          "_name": "the desired name of the vault",
          "_supply": "is the initial total supply of the token",
          "_symbol": "the desired sumbol of the vault",
          "_token": "the ERC721 token address fo the NFT"
        },
        "returns": {
          "_0": "the ID of the vault"
        }
      },
      "owner()": {
        "details": "Returns the address of the current owner."
      },
      "paused()": {
        "details": "Returns true if the contract is paused, and false otherwise."
      },
      "renounceOwnership()": {
        "details": "Leaves the contract without owner. It will not be possible to call `onlyOwner` functions anymore. Can only be called by the current owner. NOTE: Renouncing ownership will leave the contract without an owner, thereby removing any functionality that is only available to the owner."
      },
      "transferOwnership(address)": {
        "details": "Transfers ownership of the contract to a new account (`newOwner`). Can only be called by the current owner."
      }
    },
    "version": 1
  },
  "userdoc": {
    "kind": "user",
    "methods": {
      "logic()": {
        "notice": "the TokenVault logic contract"
      },
      "mint(string,string,address,uint256,uint256,uint256,uint256)": {
        "notice": "the function to mint a new vault"
      },
      "settings()": {
        "notice": "a settings contract controlled by governance"
      },
      "vaultCount()": {
        "notice": "the number of ERC721 vaults"
      },
      "vaults(uint256)": {
        "notice": "the mapping of vault number to vault contract"
      }
    },
    "version": 1
  }
}