{
  "contractName": "InitializedProxy",
  "abi": [
    {
      "inputs": [
        {
          "internalType": "address",
          "name": "_logic",
          "type": "address"
        },
        {
          "internalType": "bytes",
          "name": "_initializationCalldata",
          "type": "bytes"
        }
      ],
      "stateMutability": "nonpayable",
      "type": "constructor"
    },
    {
      "anonymous": false,
      "inputs": [
        {
          "indexed": true,
          "internalType": "address",
          "name": "_data",
          "type": "address"
        }
      ],
      "name": "ShareTypeAddress",
      "type": "event"
    },
    {
      "anonymous": false,
      "inputs": [
        {
          "indexed": true,
          "internalType": "bool",
          "name": "_data",
          "type": "bool"
        }
      ],
      "name": "ShareTypeBool",
      "type": "event"
    },
    {
      "anonymous": false,
      "inputs": [
        {
          "indexed": true,
          "internalType": "uint256",
          "name": "_data",
          "type": "uint256"
        }
      ],
      "name": "ShareTypeUInt",
      "type": "event"
    },
    {
      "anonymous": false,
      "inputs": [
        {
          "indexed": true,
          "internalType": "uint8",
          "name": "_data",
          "type": "uint8"
        }
      ],
      "name": "ShareTypeUInt8",
      "type": "event"
    },
    {
      "stateMutability": "payable",
      "type": "fallback"
    },
    {
      "inputs": [],
      "name": "logic",
      "outputs": [
        {
          "internalType": "address",
          "name": "",
          "type": "address"
        }
      ],
      "stateMutability": "view",
      "type": "function"
    },
    {
      "stateMutability": "payable",
      "type": "receive"
    },
    {
      "inputs": [
        {
          "internalType": "uint8",
          "name": "dataType",
          "type": "uint8"
        },
        {
          "internalType": "bytes",
          "name": "data",
          "type": "bytes"
        }
      ],
      "name": "delegateTo",
      "outputs": [
        {
          "internalType": "bytes",
          "name": "",
          "type": "bytes"
        }
      ],
      "stateMutability": "nonpayable",
      "type": "function"
    }
  ],
  "bytecode": "0x608060405234801561001057600080fd5b506040516107f33803806107f383398101604081905261002f9161014e565b60008054600160a060020a031916600160a060020a038416908117825560405182919061005d90859061021d565b600060405180830381855af49150503d8060008114610098576040519150601f19603f3d011682016040523d82523d6000602084013e61009d565b606091505b50915091508181906100e5576040517f08c379a00000000000000000000000000000000000000000000000000000000081526004016100dc9190610239565b60405180910390fd5b505050505061026c565b7f4e487b7100000000000000000000000000000000000000000000000000000000600052604160045260246000fd5b60005b83811015610139578181015183820152602001610121565b83811115610148576000848401525b50505050565b6000806040838503121561016157600080fd5b8251600160a060020a038116811461017857600080fd5b602084015190925067ffffffffffffffff8082111561019657600080fd5b818501915085601f8301126101aa57600080fd5b8151818111156101bc576101bc6100ef565b604051601f8201601f19908116603f011681019083821181831017156101e4576101e46100ef565b816040528281528860208487010111156101fd57600080fd5b61020e83602083016020880161011e565b80955050505050509250929050565b6000825161022f81846020870161011e565b9190910192915050565b602081526000825180602084015261025881604085016020870161011e565b601f01601f19169190910160400192915050565b6105788061027b6000396000f3fe608060405260043610610049577c01000000000000000000000000000000000000000000000000000000006000350463d7dfa0dd8114610084578063e812ff75146100c157610050565b3661005057005b60008054604051600160a060020a0390911691369082376000803683855af43d806000843e818015610080578184f35b8184fd5b34801561009057600080fd5b506000546100a490600160a060020a031681565b604051600160a060020a0390911681526020015b60405180910390f35b3480156100cd57600080fd5b506100e16100dc366004610377565b6100ee565b6040516100b8919061046b565b60008054604051606092600160a060020a0390921691908190839061011490879061049e565b600060405180830381855af49150503d806000811461014f576040519150601f19603f3d011682016040523d82523d6000602084013e610154565b606091505b50915091508560ff166000036101b75760008180602001905181019061017a91906104ba565b604051909150600160a060020a038216907fb7882295b1d781eddcfd038eb53f3dbd39dd43f896c3bf68b21122d124233a7d90600090a250610321565b8560ff1660010361020c576000818060200190518101906101d891906104ea565b60405190915081907f6e645dac104d72443534d391ebf9941ec33ab5743685aa95b9bd87854706d63b90600090a250610321565b8560ff166002036102635760008180602001905181019061022d9190610503565b604051909150811515907f6578ae8a3600eb850cc00e2b156795dbac2dcb707789a45b10cc44a186f8ae8090600090a250610321565b8560ff166003036102bb576000818060200190518101906102849190610525565b60405190915060ff8216907f86e8c5b2faebf034f50e5544a4646fbf6214bd0cff1f74670284f081a201e15b90600090a250610321565b6040517f08c379a000000000000000000000000000000000000000000000000000000000815260206004820152601160248201527f496e76616c696420646174612074797065000000000000000000000000000000604482015260640160405180910390fd5b8161032d573d60208201fd5b95945050505050565b60ff8116811461034557600080fd5b50565b7f4e487b7100000000000000000000000000000000000000000000000000000000600052604160045260246000fd5b6000806040838503121561038a57600080fd5b823561039581610336565b9150602083013567ffffffffffffffff808211156103b257600080fd5b818501915085601f8301126103c657600080fd5b8135818111156103d8576103d8610348565b604051601f8201601f19908116603f0116810190838211818310171561040057610400610348565b8160405282815288602084870101111561041957600080fd5b8260208601602083013760006020848301015280955050505050509250929050565b60005b8381101561045657818101518382015260200161043e565b83811115610465576000848401525b50505050565b602081526000825180602084015261048a81604085016020870161043b565b601f01601f19169190910160400192915050565b600082516104b081846020870161043b565b9190910192915050565b6000602082840312156104cc57600080fd5b8151600160a060020a03811681146104e357600080fd5b9392505050565b6000602082840312156104fc57600080fd5b5051919050565b60006020828403121561051557600080fd5b815180151581146104e357600080fd5b60006020828403121561053757600080fd5b81516104e38161033656fea264697066735822122079674761b545567b6e2c89edecd11ee3949f30990a90cd29aeb5a0668d1dad7d64736f6c634300080d0033",
  "immutableReferences": {},
  "source": "// SPDX-License-Identifier: MIT\npragma solidity ^0.8.0;\n\n/**\n * @title InitializedProxy\n * @author Anna Carroll\n */\ncontract InitializedProxy {\n  // address of logic contract\n  address public logic;\n\n  event ShareTypeAddress(address indexed _data);\n  event ShareTypeUInt(uint256 indexed _data);\n  event ShareTypeBool(bool indexed _data);\n  event ShareTypeUInt8(uint8 indexed _data);\n\n  // ======== Constructor =========\n\n  constructor(address _logic, bytes memory _initializationCalldata) {\n    logic = _logic;\n    // Delegatecall into the logic contract, supplying initialization calldata\n    (bool _ok, bytes memory returnData) = _logic.delegatecall(\n      _initializationCalldata\n    );\n    // Revert if delegatecall to implementation reverts\n    require(_ok, string(returnData));\n  }\n\n  // ======== Fallback =========\n\n  fallback() external payable {\n    address _impl = logic;\n    assembly {\n      let ptr := mload(0x40)\n      calldatacopy(ptr, 0, calldatasize())\n      let result := delegatecall(gas(), _impl, ptr, calldatasize(), 0, 0)\n      let size := returndatasize()\n      returndatacopy(ptr, 0, size)\n\n      switch result\n      case 0 {\n        revert(ptr, size)\n      }\n      default {\n        return(ptr, size)\n      }\n    }\n  }\n\n  function delegateTo(uint8 dataType, bytes memory data)\n    public\n    returns (bytes memory)\n  {\n    address _impl = logic;\n\n    (bool success, bytes memory returnData) = _impl.delegatecall(data);\n\n    if (dataType == 0) {\n      address result = abi.decode(returnData, (address));\n      emit ShareTypeAddress(result);\n    } else if (dataType == 1) {\n      uint256 result = abi.decode(returnData, (uint256));\n      emit ShareTypeUInt(result);\n    } else if (dataType == 2) {\n      bool result = abi.decode(returnData, (bool));\n      emit ShareTypeBool(result);\n    } else if (dataType == 3) {\n      uint8 result = abi.decode(returnData, (uint8));\n      emit ShareTypeUInt8(result);\n    } else {\n      revert(\"Invalid data type\");\n    }\n\n    assembly {\n      if eq(success, 0) {\n        revert(add(returnData, 0x20), returndatasize())\n      }\n    }\n    return returnData;\n  }\n\n  // ======== Receive =========\n\n  receive() external payable {} // solhint-disable-line no-empty-blocks\n}\n",
  "sourcePath": "/Users/drewhyte/Sites/SOLIDITY/openland-contract-moonriver/contracts/InitializedProxy.sol",
  "compiler": {
    "name": "solc",
    "version": "0.8.13+commit.abaa5c0e.Emscripten.clang"
  },
  "schemaVersion": "3.4.6",
  "updatedAt": "2022-05-15T21:10:33.942Z",
  "devdoc": {
    "author": "Anna Carroll",
    "kind": "dev",
    "methods": {},
    "title": "InitializedProxy",
    "version": 1
  },
  "userdoc": {
    "kind": "user",
    "methods": {},
    "version": 1
  }
}