{
  "contractName": "OpenLandNFT",
  "abi": [
    {
      "inputs": [],
      "stateMutability": "nonpayable",
      "type": "constructor"
    },
    {
      "anonymous": false,
      "inputs": [
        {
          "indexed": true,
          "internalType": "address",
          "name": "owner",
          "type": "address"
        },
        {
          "indexed": true,
          "internalType": "address",
          "name": "approved",
          "type": "address"
        },
        {
          "indexed": true,
          "internalType": "uint256",
          "name": "tokenId",
          "type": "uint256"
        }
      ],
      "name": "Approval",
      "type": "event"
    },
    {
      "anonymous": false,
      "inputs": [
        {
          "indexed": true,
          "internalType": "address",
          "name": "owner",
          "type": "address"
        },
        {
          "indexed": true,
          "internalType": "address",
          "name": "operator",
          "type": "address"
        },
        {
          "indexed": false,
          "internalType": "bool",
          "name": "approved",
          "type": "bool"
        }
      ],
      "name": "ApprovalForAll",
      "type": "event"
    },
    {
      "anonymous": false,
      "inputs": [
        {
          "indexed": true,
          "internalType": "address",
          "name": "owner",
          "type": "address"
        },
        {
          "indexed": true,
          "internalType": "uint256",
          "name": "tokenId",
          "type": "uint256"
        }
      ],
      "name": "NewPropertyMinted",
      "type": "event"
    },
    {
      "anonymous": false,
      "inputs": [
        {
          "indexed": true,
          "internalType": "address",
          "name": "from",
          "type": "address"
        },
        {
          "indexed": true,
          "internalType": "address",
          "name": "to",
          "type": "address"
        },
        {
          "indexed": true,
          "internalType": "uint256",
          "name": "tokenId",
          "type": "uint256"
        }
      ],
      "name": "Transfer",
      "type": "event"
    },
    {
      "inputs": [
        {
          "internalType": "address",
          "name": "to",
          "type": "address"
        },
        {
          "internalType": "uint256",
          "name": "tokenId",
          "type": "uint256"
        }
      ],
      "name": "approve",
      "outputs": [],
      "stateMutability": "nonpayable",
      "type": "function"
    },
    {
      "inputs": [
        {
          "internalType": "address",
          "name": "owner",
          "type": "address"
        }
      ],
      "name": "balanceOf",
      "outputs": [
        {
          "internalType": "uint256",
          "name": "",
          "type": "uint256"
        }
      ],
      "stateMutability": "view",
      "type": "function",
      "constant": true
    },
    {
      "inputs": [
        {
          "internalType": "uint256",
          "name": "tokenId",
          "type": "uint256"
        }
      ],
      "name": "getApproved",
      "outputs": [
        {
          "internalType": "address",
          "name": "",
          "type": "address"
        }
      ],
      "stateMutability": "view",
      "type": "function",
      "constant": true
    },
    {
      "inputs": [
        {
          "internalType": "address",
          "name": "owner",
          "type": "address"
        },
        {
          "internalType": "address",
          "name": "operator",
          "type": "address"
        }
      ],
      "name": "isApprovedForAll",
      "outputs": [
        {
          "internalType": "bool",
          "name": "",
          "type": "bool"
        }
      ],
      "stateMutability": "view",
      "type": "function",
      "constant": true
    },
    {
      "inputs": [],
      "name": "name",
      "outputs": [
        {
          "internalType": "string",
          "name": "",
          "type": "string"
        }
      ],
      "stateMutability": "view",
      "type": "function",
      "constant": true
    },
    {
      "inputs": [
        {
          "internalType": "uint256",
          "name": "tokenId",
          "type": "uint256"
        }
      ],
      "name": "ownerOf",
      "outputs": [
        {
          "internalType": "address",
          "name": "",
          "type": "address"
        }
      ],
      "stateMutability": "view",
      "type": "function",
      "constant": true
    },
    {
      "inputs": [
        {
          "internalType": "address",
          "name": "from",
          "type": "address"
        },
        {
          "internalType": "address",
          "name": "to",
          "type": "address"
        },
        {
          "internalType": "uint256",
          "name": "tokenId",
          "type": "uint256"
        }
      ],
      "name": "safeTransferFrom",
      "outputs": [],
      "stateMutability": "nonpayable",
      "type": "function"
    },
    {
      "inputs": [
        {
          "internalType": "address",
          "name": "from",
          "type": "address"
        },
        {
          "internalType": "address",
          "name": "to",
          "type": "address"
        },
        {
          "internalType": "uint256",
          "name": "tokenId",
          "type": "uint256"
        },
        {
          "internalType": "bytes",
          "name": "_data",
          "type": "bytes"
        }
      ],
      "name": "safeTransferFrom",
      "outputs": [],
      "stateMutability": "nonpayable",
      "type": "function"
    },
    {
      "inputs": [
        {
          "internalType": "address",
          "name": "operator",
          "type": "address"
        },
        {
          "internalType": "bool",
          "name": "approved",
          "type": "bool"
        }
      ],
      "name": "setApprovalForAll",
      "outputs": [],
      "stateMutability": "nonpayable",
      "type": "function"
    },
    {
      "inputs": [
        {
          "internalType": "bytes4",
          "name": "interfaceId",
          "type": "bytes4"
        }
      ],
      "name": "supportsInterface",
      "outputs": [
        {
          "internalType": "bool",
          "name": "",
          "type": "bool"
        }
      ],
      "stateMutability": "view",
      "type": "function",
      "constant": true
    },
    {
      "inputs": [],
      "name": "symbol",
      "outputs": [
        {
          "internalType": "string",
          "name": "",
          "type": "string"
        }
      ],
      "stateMutability": "view",
      "type": "function",
      "constant": true
    },
    {
      "inputs": [
        {
          "internalType": "uint256",
          "name": "tokenId",
          "type": "uint256"
        }
      ],
      "name": "tokenURI",
      "outputs": [
        {
          "internalType": "string",
          "name": "",
          "type": "string"
        }
      ],
      "stateMutability": "view",
      "type": "function",
      "constant": true
    },
    {
      "inputs": [
        {
          "internalType": "address",
          "name": "from",
          "type": "address"
        },
        {
          "internalType": "address",
          "name": "to",
          "type": "address"
        },
        {
          "internalType": "uint256",
          "name": "tokenId",
          "type": "uint256"
        }
      ],
      "name": "transferFrom",
      "outputs": [],
      "stateMutability": "nonpayable",
      "type": "function"
    },
    {
      "inputs": [
        {
          "internalType": "string",
          "name": "ipfsUrl",
          "type": "string"
        }
      ],
      "name": "mintProperty",
      "outputs": [
        {
          "internalType": "uint256",
          "name": "",
          "type": "uint256"
        }
      ],
      "stateMutability": "nonpayable",
      "type": "function"
    }
  ],
  "bytecode": "0x60806040523480156200001157600080fd5b50604080518082018252600881527f4f70656e4c616e6400000000000000000000000000000000000000000000000060208083019182528351808501909452600584527f4f4c414e440000000000000000000000000000000000000000000000000000009084015281519192916200008c91600091620000ab565b508051620000a2906001906020840190620000ab565b505050620001a6565b828054620000b99062000151565b90600052602060002090601f016020900481019282620000dd576000855562000128565b82601f10620000f857805160ff191683800117855562000128565b8280016001018555821562000128579182015b82811115620001285782518255916020019190600101906200010b565b50620001369291506200013a565b5090565b5b808211156200013657600081556001016200013b565b6002810460018216806200016657607f821691505b602082108103620001a0577f4e487b7100000000000000000000000000000000000000000000000000000000600052602260045260246000fd5b50919050565b6118c480620001b66000396000f3fe608060405234801561001057600080fd5b50600436106100e7576000357c01000000000000000000000000000000000000000000000000000000009004806370a082311161009957806370a08231146101a257806395d89b41146101c3578063a22cb465146101cb578063b88d4fde146101de578063c87b56dd146101f1578063d850c94c14610204578063e985e9c51461021757600080fd5b806301ffc9a7146100ec57806306fdde0314610114578063081812fc14610129578063095ea7b31461015457806323b872dd1461016957806342842e0e1461017c5780636352211e1461018f575b600080fd5b6100ff6100fa366004611353565b61022a565b60405190151581526020015b60405180910390f35b61011c6102c7565b60405161010b91906113c8565b61013c6101373660046113db565b610359565b604051600160a060020a03909116815260200161010b565b610167610162366004611410565b6103fa565b005b61016761017736600461143a565b610531565b61016761018a36600461143a565b610565565b61013c61019d3660046113db565b610580565b6101b56101b0366004611476565b61060e565b60405190815260200161010b565b61011c6106ab565b6101676101d9366004611491565b6106ba565b6101676101ec36600461155c565b6106c9565b61011c6101ff3660046113db565b610704565b6101b56102123660046115d8565b610889565b6100ff610225366004611621565b6108ed565b6000600160e060020a031982167f80ac58cd00000000000000000000000000000000000000000000000000000000148061028d5750600160e060020a031982167f5b5e139f00000000000000000000000000000000000000000000000000000000145b806102c157507f01ffc9a700000000000000000000000000000000000000000000000000000000600160e060020a03198316145b92915050565b6060600080546102d690611654565b80601f016020809104026020016040519081016040528092919081815260200182805461030290611654565b801561034f5780601f106103245761010080835404028352916020019161034f565b820191906000526020600020905b81548152906001019060200180831161033257829003601f168201915b5050505050905090565b60006103648261091b565b6103de5760405160e560020a62461bcd02815260206004820152602c60248201527f4552433732313a20617070726f76656420717565727920666f72206e6f6e657860448201527f697374656e7420746f6b656e000000000000000000000000000000000000000060648201526084015b60405180910390fd5b50600090815260046020526040902054600160a060020a031690565b600061040582610580565b905080600160a060020a031683600160a060020a0316036104915760405160e560020a62461bcd02815260206004820152602160248201527f4552433732313a20617070726f76616c20746f2063757272656e74206f776e6560448201527f720000000000000000000000000000000000000000000000000000000000000060648201526084016103d5565b33600160a060020a03821614806104ad57506104ad81336108ed565b6105225760405160e560020a62461bcd02815260206004820152603860248201527f4552433732313a20617070726f76652063616c6c6572206973206e6f74206f7760448201527f6e6572206e6f7220617070726f76656420666f7220616c6c000000000000000060648201526084016103d5565b61052c8383610938565b505050565b61053b33826109b3565b61055a5760405160e560020a62461bcd0281526004016103d590611691565b61052c838383610a90565b61052c838383604051806020016040528060008152506106c9565b600081815260026020526040812054600160a060020a0316806102c15760405160e560020a62461bcd02815260206004820152602960248201527f4552433732313a206f776e657220717565727920666f72206e6f6e657869737460448201527f656e7420746f6b656e000000000000000000000000000000000000000000000060648201526084016103d5565b6000600160a060020a03821661068f5760405160e560020a62461bcd02815260206004820152602a60248201527f4552433732313a2062616c616e636520717565727920666f7220746865207a6560448201527f726f20616464726573730000000000000000000000000000000000000000000060648201526084016103d5565b50600160a060020a031660009081526003602052604090205490565b6060600180546102d690611654565b6106c5338383610c70565b5050565b6106d333836109b3565b6106f25760405160e560020a62461bcd0281526004016103d590611691565b6106fe84848484610d41565b50505050565b606061070f8261091b565b6107845760405160e560020a62461bcd02815260206004820152603160248201527f45524337323155524953746f726167653a2055524920717565727920666f722060448201527f6e6f6e6578697374656e7420746f6b656e00000000000000000000000000000060648201526084016103d5565b6000828152600660205260408120805461079d90611654565b80601f01602080910402602001604051908101604052809291908181526020018280546107c990611654565b80156108165780601f106107eb57610100808354040283529160200191610816565b820191906000526020600020905b8154815290600101906020018083116107f957829003601f168201915b50505050509050600061083460408051602081019091526000815290565b90508051600003610846575092915050565b8151156108785780826040516020016108609291906116ee565b60405160208183030381529060405292505050919050565b61088184610d77565b949350505050565b6000610899600780546001019055565b60006108a460075490565b90506108b03382610e60565b6108ba8184610fa6565b604051819033907f5bd0339dce38e156c81a936f583df0c0c2fd9246ec10571ded5acff566c1f11790600090a392915050565b600160a060020a03918216600090815260056020908152604080832093909416825291909152205460ff1690565b600090815260026020526040902054600160a060020a0316151590565b6000818152600460205260409020805473ffffffffffffffffffffffffffffffffffffffff1916600160a060020a038416908117909155819061097a82610580565b600160a060020a03167f8c5be1e5ebec7d5bd14f71427d1e84f3dd0314c0f7b2291e5b200ac8c7c3b92560405160405180910390a45050565b60006109be8261091b565b610a335760405160e560020a62461bcd02815260206004820152602c60248201527f4552433732313a206f70657261746f7220717565727920666f72206e6f6e657860448201527f697374656e7420746f6b656e000000000000000000000000000000000000000060648201526084016103d5565b6000610a3e83610580565b905080600160a060020a031684600160a060020a03161480610a655750610a6581856108ed565b80610881575083600160a060020a0316610a7e84610359565b600160a060020a031614949350505050565b82600160a060020a0316610aa382610580565b600160a060020a031614610b225760405160e560020a62461bcd02815260206004820152602560248201527f4552433732313a207472616e736665722066726f6d20696e636f72726563742060448201527f6f776e657200000000000000000000000000000000000000000000000000000060648201526084016103d5565b600160a060020a038216610ba05760405160e560020a62461bcd028152602060048201526024808201527f4552433732313a207472616e7366657220746f20746865207a65726f2061646460448201527f726573730000000000000000000000000000000000000000000000000000000060648201526084016103d5565b610bab600082610938565b600160a060020a0383166000908152600360205260408120805460019290610bd4908490611736565b9091555050600160a060020a0382166000908152600360205260408120805460019290610c0290849061174d565b9091555050600081815260026020526040808220805473ffffffffffffffffffffffffffffffffffffffff1916600160a060020a0386811691821790925591518493918716917fddf252ad1be2c89b69c2b068fc378daa952ba7f163c4a11628f55a4df523b3ef91a4505050565b81600160a060020a031683600160a060020a031603610cd45760405160e560020a62461bcd02815260206004820152601960248201527f4552433732313a20617070726f766520746f2063616c6c65720000000000000060448201526064016103d5565b600160a060020a03838116600081815260056020908152604080832094871680845294825291829020805460ff191686151590811790915591519182527f17307eab39ab6107e8899845ad3d59bd9653f200f220920489ca2b5937696c31910160405180910390a3505050565b610d4c848484610a90565b610d5884848484611043565b6106fe5760405160e560020a62461bcd0281526004016103d590611765565b6060610d828261091b565b610df75760405160e560020a62461bcd02815260206004820152602f60248201527f4552433732314d657461646174613a2055524920717565727920666f72206e6f60448201527f6e6578697374656e7420746f6b656e000000000000000000000000000000000060648201526084016103d5565b6000610e0e60408051602081019091526000815290565b90506000815111610e2e5760405180602001604052806000815250610e59565b80610e388461114d565b604051602001610e499291906116ee565b6040516020818303038152906040525b9392505050565b600160a060020a038216610eb95760405160e560020a62461bcd02815260206004820181905260248201527f4552433732313a206d696e7420746f20746865207a65726f206164647265737360448201526064016103d5565b610ec28161091b565b15610f125760405160e560020a62461bcd02815260206004820152601c60248201527f4552433732313a20746f6b656e20616c7265616479206d696e7465640000000060448201526064016103d5565b600160a060020a0382166000908152600360205260408120805460019290610f3b90849061174d565b9091555050600081815260026020526040808220805473ffffffffffffffffffffffffffffffffffffffff1916600160a060020a03861690811790915590518392907fddf252ad1be2c89b69c2b068fc378daa952ba7f163c4a11628f55a4df523b3ef908290a45050565b610faf8261091b565b6110245760405160e560020a62461bcd02815260206004820152602e60248201527f45524337323155524953746f726167653a2055524920736574206f66206e6f6e60448201527f6578697374656e7420746f6b656e00000000000000000000000000000000000060648201526084016103d5565b6000828152600660209081526040909120825161052c928401906112a1565b6000600160a060020a0384163b156111425760405160e160020a630a85bd01028152600160a060020a0385169063150b7a029061108a9033908990889088906004016117c2565b6020604051808303816000875af19250505080156110c5575060408051601f3d908101601f191682019092526110c2918101906117fe565b60015b611125573d8080156110f3576040519150601f19603f3d011682016040523d82523d6000602084013e6110f8565b606091505b50805160000361111d5760405160e560020a62461bcd0281526004016103d590611765565b805181602001fd5b600160e060020a03191660e160020a630a85bd0102149050610881565b506001949350505050565b60608160000361119057505060408051808201909152600181527f3000000000000000000000000000000000000000000000000000000000000000602082015290565b8160005b81156111ba57806111a48161181b565b91506111b39050600a8361184d565b9150611194565b60008167ffffffffffffffff8111156111d5576111d56114cd565b6040519080825280601f01601f1916602001820160405280156111ff576020820181803683370190505b5090505b841561088157611214600183611736565b9150611221600a86611861565b61122c90603061174d565b7f01000000000000000000000000000000000000000000000000000000000000000281838151811061126057611260611875565b60200101907effffffffffffffffffffffffffffffffffffffffffffffffffffffffffffff1916908160001a90535061129a600a8661184d565b9450611203565b8280546112ad90611654565b90600052602060002090601f0160209004810192826112cf5760008555611315565b82601f106112e857805160ff1916838001178555611315565b82800160010185558215611315579182015b828111156113155782518255916020019190600101906112fa565b50611321929150611325565b5090565b5b808211156113215760008155600101611326565b600160e060020a03198116811461135057600080fd5b50565b60006020828403121561136557600080fd5b8135610e598161133a565b60005b8381101561138b578181015183820152602001611373565b838111156106fe5750506000910152565b600081518084526113b4816020860160208601611370565b601f01601f19169290920160200192915050565b602081526000610e59602083018461139c565b6000602082840312156113ed57600080fd5b5035919050565b8035600160a060020a038116811461140b57600080fd5b919050565b6000806040838503121561142357600080fd5b61142c836113f4565b946020939093013593505050565b60008060006060848603121561144f57600080fd5b611458846113f4565b9250611466602085016113f4565b9150604084013590509250925092565b60006020828403121561148857600080fd5b610e59826113f4565b600080604083850312156114a457600080fd5b6114ad836113f4565b9150602083013580151581146114c257600080fd5b809150509250929050565b60e060020a634e487b7102600052604160045260246000fd5b600067ffffffffffffffff80841115611501576115016114cd565b604051601f8501601f19908116603f01168101908282118183101715611529576115296114cd565b8160405280935085815286868601111561154257600080fd5b858560208301376000602087830101525050509392505050565b6000806000806080858703121561157257600080fd5b61157b856113f4565b9350611589602086016113f4565b925060408501359150606085013567ffffffffffffffff8111156115ac57600080fd5b8501601f810187136115bd57600080fd5b6115cc878235602084016114e6565b91505092959194509250565b6000602082840312156115ea57600080fd5b813567ffffffffffffffff81111561160157600080fd5b8201601f8101841361161257600080fd5b610881848235602084016114e6565b6000806040838503121561163457600080fd5b61163d836113f4565b915061164b602084016113f4565b90509250929050565b60028104600182168061166857607f821691505b60208210810361168b5760e060020a634e487b7102600052602260045260246000fd5b50919050565b60208082526031908201527f4552433732313a207472616e736665722063616c6c6572206973206e6f74206f60408201527f776e6572206e6f7220617070726f766564000000000000000000000000000000606082015260800190565b60008351611700818460208801611370565b835190830190611714818360208801611370565b01949350505050565b60e060020a634e487b7102600052601160045260246000fd5b6000828210156117485761174861171d565b500390565b600082198211156117605761176061171d565b500190565b60208082526032908201527f4552433732313a207472616e7366657220746f206e6f6e20455243373231526560408201527f63656976657220696d706c656d656e7465720000000000000000000000000000606082015260800190565b6000600160a060020a038087168352808616602084015250836040830152608060608301526117f4608083018461139c565b9695505050505050565b60006020828403121561181057600080fd5b8151610e598161133a565b60006001820161182d5761182d61171d565b5060010190565b60e060020a634e487b7102600052601260045260246000fd5b60008261185c5761185c611834565b500490565b60008261187057611870611834565b500690565b60e060020a634e487b7102600052603260045260246000fdfea26469706673582212207b96ba374798e5f4bde486f7ce2977b80e02e589392200d634f9e665668aa13164736f6c634300080d0033",
  "immutableReferences": {},
  "source": "// SPDX-License-Identifier: MIT\npragma solidity ^0.8.0;\n\nimport \"@openzeppelin/contracts/token/ERC721/extensions/ERC721URIStorage.sol\";\nimport \"@openzeppelin/contracts/utils/Counters.sol\";\n\ncontract OpenLandNFT is ERC721URIStorage {\n  ////////////////////////////////////////\n  //                                    //\n  //         STATE VARIABLES            //\n  //                                    //\n  ////////////////////////////////////////\n\n  using Counters for Counters.Counter;\n  Counters.Counter private _tokenIds;\n\n  ////////////////////////////////////////\n  //                                    //\n  //              EVENTS                //\n  //                                    //\n  ////////////////////////////////////////\n  event NewPropertyMinted(address indexed owner, uint256 indexed tokenId);\n\n  ////////////////////////////////////////\n  //                                    //\n  //              FUNCTIONS             //\n  //                                    //\n  ////////////////////////////////////////\n\n  constructor() ERC721(\"OpenLand\", \"OLAND\") {}\n\n  /**\n   * @dev mint a new Property for a new event\n   * @param ipfsUrl of json object with media details (opensea compatible)\n   */\n  function mintProperty(string memory ipfsUrl) public returns (uint256) {\n    _tokenIds.increment();\n\n    uint256 newTokenId = _tokenIds.current();\n    _mint(address(msg.sender), newTokenId);\n    _setTokenURI(newTokenId, ipfsUrl);\n\n    emit NewPropertyMinted(msg.sender, newTokenId);\n\n    return newTokenId;\n  }\n}\n",
  "sourcePath": "/Users/drewhyte/Sites/SOLIDITY/openland-contract-moonriver/contracts/OpenLandNFT.sol",
  "compiler": {
    "name": "solc",
    "version": "0.8.13+commit.abaa5c0e.Emscripten.clang"
  },
  "schemaVersion": "3.4.6",
  "updatedAt": "2022-05-15T21:26:21.781Z",
  "networkType": "ethereum",
  "devdoc": {
    "kind": "dev",
    "methods": {
      "approve(address,uint256)": {
        "details": "See {IERC721-approve}."
      },
      "balanceOf(address)": {
        "details": "See {IERC721-balanceOf}."
      },
      "getApproved(uint256)": {
        "details": "See {IERC721-getApproved}."
      },
      "isApprovedForAll(address,address)": {
        "details": "See {IERC721-isApprovedForAll}."
      },
      "mintProperty(string)": {
        "details": "mint a new Property for a new event",
        "params": {
          "ipfsUrl": "of json object with media details (opensea compatible)"
        }
      },
      "name()": {
        "details": "See {IERC721Metadata-name}."
      },
      "ownerOf(uint256)": {
        "details": "See {IERC721-ownerOf}."
      },
      "safeTransferFrom(address,address,uint256)": {
        "details": "See {IERC721-safeTransferFrom}."
      },
      "safeTransferFrom(address,address,uint256,bytes)": {
        "details": "See {IERC721-safeTransferFrom}."
      },
      "setApprovalForAll(address,bool)": {
        "details": "See {IERC721-setApprovalForAll}."
      },
      "supportsInterface(bytes4)": {
        "details": "See {IERC165-supportsInterface}."
      },
      "symbol()": {
        "details": "See {IERC721Metadata-symbol}."
      },
      "tokenURI(uint256)": {
        "details": "See {IERC721Metadata-tokenURI}."
      },
      "transferFrom(address,address,uint256)": {
        "details": "See {IERC721-transferFrom}."
      }
    },
    "version": 1
  },
  "userdoc": {
    "kind": "user",
    "methods": {},
    "version": 1
  }
}