{
  "contractName": "OpenLandNFT",
  "abi": [
    {
      "inputs": [],
      "stateMutability": "nonpayable",
      "type": "constructor"
    },
    {
      "anonymous": false,
      "inputs": [
        {
          "indexed": true,
          "internalType": "address",
          "name": "owner",
          "type": "address"
        },
        {
          "indexed": true,
          "internalType": "address",
          "name": "approved",
          "type": "address"
        },
        {
          "indexed": true,
          "internalType": "uint256",
          "name": "tokenId",
          "type": "uint256"
        }
      ],
      "name": "Approval",
      "type": "event"
    },
    {
      "anonymous": false,
      "inputs": [
        {
          "indexed": true,
          "internalType": "address",
          "name": "owner",
          "type": "address"
        },
        {
          "indexed": true,
          "internalType": "address",
          "name": "operator",
          "type": "address"
        },
        {
          "indexed": false,
          "internalType": "bool",
          "name": "approved",
          "type": "bool"
        }
      ],
      "name": "ApprovalForAll",
      "type": "event"
    },
    {
      "anonymous": false,
      "inputs": [
        {
          "indexed": true,
          "internalType": "address",
          "name": "owner",
          "type": "address"
        },
        {
          "indexed": true,
          "internalType": "uint256",
          "name": "tokenId",
          "type": "uint256"
        }
      ],
      "name": "NewPropertyMinted",
      "type": "event"
    },
    {
      "anonymous": false,
      "inputs": [
        {
          "indexed": true,
          "internalType": "address",
          "name": "from",
          "type": "address"
        },
        {
          "indexed": true,
          "internalType": "address",
          "name": "to",
          "type": "address"
        },
        {
          "indexed": true,
          "internalType": "uint256",
          "name": "tokenId",
          "type": "uint256"
        }
      ],
      "name": "Transfer",
      "type": "event"
    },
    {
      "inputs": [
        {
          "internalType": "address",
          "name": "to",
          "type": "address"
        },
        {
          "internalType": "uint256",
          "name": "tokenId",
          "type": "uint256"
        }
      ],
      "name": "approve",
      "outputs": [],
      "stateMutability": "nonpayable",
      "type": "function"
    },
    {
      "inputs": [
        {
          "internalType": "address",
          "name": "owner",
          "type": "address"
        }
      ],
      "name": "balanceOf",
      "outputs": [
        {
          "internalType": "uint256",
          "name": "",
          "type": "uint256"
        }
      ],
      "stateMutability": "view",
      "type": "function"
    },
    {
      "inputs": [
        {
          "internalType": "uint256",
          "name": "tokenId",
          "type": "uint256"
        }
      ],
      "name": "getApproved",
      "outputs": [
        {
          "internalType": "address",
          "name": "",
          "type": "address"
        }
      ],
      "stateMutability": "view",
      "type": "function"
    },
    {
      "inputs": [
        {
          "internalType": "address",
          "name": "owner",
          "type": "address"
        },
        {
          "internalType": "address",
          "name": "operator",
          "type": "address"
        }
      ],
      "name": "isApprovedForAll",
      "outputs": [
        {
          "internalType": "bool",
          "name": "",
          "type": "bool"
        }
      ],
      "stateMutability": "view",
      "type": "function"
    },
    {
      "inputs": [],
      "name": "name",
      "outputs": [
        {
          "internalType": "string",
          "name": "",
          "type": "string"
        }
      ],
      "stateMutability": "view",
      "type": "function"
    },
    {
      "inputs": [
        {
          "internalType": "uint256",
          "name": "tokenId",
          "type": "uint256"
        }
      ],
      "name": "ownerOf",
      "outputs": [
        {
          "internalType": "address",
          "name": "",
          "type": "address"
        }
      ],
      "stateMutability": "view",
      "type": "function"
    },
    {
      "inputs": [
        {
          "internalType": "address",
          "name": "from",
          "type": "address"
        },
        {
          "internalType": "address",
          "name": "to",
          "type": "address"
        },
        {
          "internalType": "uint256",
          "name": "tokenId",
          "type": "uint256"
        }
      ],
      "name": "safeTransferFrom",
      "outputs": [],
      "stateMutability": "nonpayable",
      "type": "function"
    },
    {
      "inputs": [
        {
          "internalType": "address",
          "name": "from",
          "type": "address"
        },
        {
          "internalType": "address",
          "name": "to",
          "type": "address"
        },
        {
          "internalType": "uint256",
          "name": "tokenId",
          "type": "uint256"
        },
        {
          "internalType": "bytes",
          "name": "_data",
          "type": "bytes"
        }
      ],
      "name": "safeTransferFrom",
      "outputs": [],
      "stateMutability": "nonpayable",
      "type": "function"
    },
    {
      "inputs": [
        {
          "internalType": "address",
          "name": "operator",
          "type": "address"
        },
        {
          "internalType": "bool",
          "name": "approved",
          "type": "bool"
        }
      ],
      "name": "setApprovalForAll",
      "outputs": [],
      "stateMutability": "nonpayable",
      "type": "function"
    },
    {
      "inputs": [
        {
          "internalType": "bytes4",
          "name": "interfaceId",
          "type": "bytes4"
        }
      ],
      "name": "supportsInterface",
      "outputs": [
        {
          "internalType": "bool",
          "name": "",
          "type": "bool"
        }
      ],
      "stateMutability": "view",
      "type": "function"
    },
    {
      "inputs": [],
      "name": "symbol",
      "outputs": [
        {
          "internalType": "string",
          "name": "",
          "type": "string"
        }
      ],
      "stateMutability": "view",
      "type": "function"
    },
    {
      "inputs": [
        {
          "internalType": "uint256",
          "name": "tokenId",
          "type": "uint256"
        }
      ],
      "name": "tokenURI",
      "outputs": [
        {
          "internalType": "string",
          "name": "",
          "type": "string"
        }
      ],
      "stateMutability": "view",
      "type": "function"
    },
    {
      "inputs": [
        {
          "internalType": "address",
          "name": "from",
          "type": "address"
        },
        {
          "internalType": "address",
          "name": "to",
          "type": "address"
        },
        {
          "internalType": "uint256",
          "name": "tokenId",
          "type": "uint256"
        }
      ],
      "name": "transferFrom",
      "outputs": [],
      "stateMutability": "nonpayable",
      "type": "function"
    },
    {
      "inputs": [
        {
          "internalType": "string",
          "name": "ipfsUrl",
          "type": "string"
        }
      ],
      "name": "mintProperty",
      "outputs": [
        {
          "internalType": "uint256",
          "name": "",
          "type": "uint256"
        }
      ],
      "stateMutability": "nonpayable",
      "type": "function"
    }
  ],
  "bytecode": "0x60806040523480156200001157600080fd5b506040518060400160405280600881526020017f4f70656e4c616e640000000000000000000000000000000000000000000000008152506040518060400160405280600581526020017f4f4c414e44000000000000000000000000000000000000000000000000000000815250816000908051906020019062000096929190620000b8565b508060019080519060200190620000af929190620000b8565b505050620001cc565b828054620000c69062000197565b90600052602060002090601f016020900481019282620000ea576000855562000136565b82601f106200010557805160ff191683800117855562000136565b8280016001018555821562000136579182015b828111156200013557825182559160200191906001019062000118565b5b50905062000145919062000149565b5090565b5b80821115620001645760008160009055506001016200014a565b5090565b7f4e487b7100000000000000000000000000000000000000000000000000000000600052602260045260246000fd5b60006002820490506001821680620001b057607f821691505b602082108103620001c657620001c562000168565b5b50919050565b612c5b80620001dc6000396000f3fe608060405234801561001057600080fd5b5060043610610107576000357c01000000000000000000000000000000000000000000000000000000009004806370a08231116100a9578063b88d4fde11610083578063b88d4fde14610278578063c87b56dd14610294578063d850c94c146102c4578063e985e9c5146102f457610107565b806370a082311461020e57806395d89b411461023e578063a22cb4651461025c57610107565b8063095ea7b3116100e5578063095ea7b31461018a57806323b872dd146101a657806342842e0e146101c25780636352211e146101de57610107565b806301ffc9a71461010c57806306fdde031461013c578063081812fc1461015a575b600080fd5b610126600480360381019061012191906119d2565b610324565b6040516101339190611a1a565b60405180910390f35b610144610406565b6040516101519190611ace565b60405180910390f35b610174600480360381019061016f9190611b26565b610498565b6040516101819190611b94565b60405180910390f35b6101a4600480360381019061019f9190611bdb565b61051d565b005b6101c060048036038101906101bb9190611c1b565b610634565b005b6101dc60048036038101906101d79190611c1b565b610694565b005b6101f860048036038101906101f39190611b26565b6106b4565b6040516102059190611b94565b60405180910390f35b61022860048036038101906102239190611c6e565b610765565b6040516102359190611caa565b60405180910390f35b61024661081c565b6040516102539190611ace565b60405180910390f35b61027660048036038101906102719190611cf1565b6108ae565b005b610292600480360381019061028d9190611e66565b6108c4565b005b6102ae60048036038101906102a99190611b26565b610926565b6040516102bb9190611ace565b60405180910390f35b6102de60048036038101906102d99190611f8a565b610a77565b6040516102eb9190611caa565b60405180910390f35b61030e60048036038101906103099190611fd3565b610af2565b60405161031b9190611a1a565b60405180910390f35b60007f80ac58cd000000000000000000000000000000000000000000000000000000007bffffffffffffffffffffffffffffffffffffffffffffffffffffffff1916827bffffffffffffffffffffffffffffffffffffffffffffffffffffffff191614806103ef57507f5b5e139f000000000000000000000000000000000000000000000000000000007bffffffffffffffffffffffffffffffffffffffffffffffffffffffff1916827bffffffffffffffffffffffffffffffffffffffffffffffffffffffff1916145b806103ff57506103fe82610b86565b5b9050919050565b60606000805461041590612042565b80601f016020809104026020016040519081016040528092919081815260200182805461044190612042565b801561048e5780601f106104635761010080835404028352916020019161048e565b820191906000526020600020905b81548152906001019060200180831161047157829003601f168201915b5050505050905090565b60006104a382610bf0565b6104e2576040517f08c379a00000000000000000000000000000000000000000000000000000000081526004016104d9906120e5565b60405180910390fd5b6004600083815260200190815260200160002060009054906101000a900473ffffffffffffffffffffffffffffffffffffffff169050919050565b6000610528826106b4565b90508073ffffffffffffffffffffffffffffffffffffffff168373ffffffffffffffffffffffffffffffffffffffff1603610598576040517f08c379a000000000000000000000000000000000000000000000000000000000815260040161058f90612177565b60405180910390fd5b8073ffffffffffffffffffffffffffffffffffffffff166105b7610c5c565b73ffffffffffffffffffffffffffffffffffffffff1614806105e657506105e5816105e0610c5c565b610af2565b5b610625576040517f08c379a000000000000000000000000000000000000000000000000000000000815260040161061c90612209565b60405180910390fd5b61062f8383610c64565b505050565b61064561063f610c5c565b82610d1d565b610684576040517f08c379a000000000000000000000000000000000000000000000000000000000815260040161067b9061229b565b60405180910390fd5b61068f838383610dfb565b505050565b6106af838383604051806020016040528060008152506108c4565b505050565b6000806002600084815260200190815260200160002060009054906101000a900473ffffffffffffffffffffffffffffffffffffffff169050600073ffffffffffffffffffffffffffffffffffffffff168173ffffffffffffffffffffffffffffffffffffffff160361075c576040517f08c379a00000000000000000000000000000000000000000000000000000000081526004016107539061232d565b60405180910390fd5b80915050919050565b60008073ffffffffffffffffffffffffffffffffffffffff168273ffffffffffffffffffffffffffffffffffffffff16036107d5576040517f08c379a00000000000000000000000000000000000000000000000000000000081526004016107cc906123bf565b60405180910390fd5b600360008373ffffffffffffffffffffffffffffffffffffffff1673ffffffffffffffffffffffffffffffffffffffff168152602001908152602001600020549050919050565b60606001805461082b90612042565b80601f016020809104026020016040519081016040528092919081815260200182805461085790612042565b80156108a45780601f10610879576101008083540402835291602001916108a4565b820191906000526020600020905b81548152906001019060200180831161088757829003601f168201915b5050505050905090565b6108c06108b9610c5c565b8383611061565b5050565b6108d56108cf610c5c565b83610d1d565b610914576040517f08c379a000000000000000000000000000000000000000000000000000000000815260040161090b9061229b565b60405180910390fd5b610920848484846111cd565b50505050565b606061093182610bf0565b610970576040517f08c379a000000000000000000000000000000000000000000000000000000000815260040161096790612451565b60405180910390fd5b600060066000848152602001908152602001600020805461099090612042565b80601f01602080910402602001604051908101604052809291908181526020018280546109bc90612042565b8015610a095780601f106109de57610100808354040283529160200191610a09565b820191906000526020600020905b8154815290600101906020018083116109ec57829003601f168201915b505050505090506000610a1a611229565b90506000815103610a2f578192505050610a72565b600082511115610a64578082604051602001610a4c9291906124ad565b60405160208183030381529060405292505050610a72565b610a6d84611240565b925050505b919050565b6000610a8360076112e7565b6000610a8f60076112fd565b9050610a9b338261130b565b610aa581846114e4565b803373ffffffffffffffffffffffffffffffffffffffff167f5bd0339dce38e156c81a936f583df0c0c2fd9246ec10571ded5acff566c1f11760405160405180910390a380915050919050565b6000600560008473ffffffffffffffffffffffffffffffffffffffff1673ffffffffffffffffffffffffffffffffffffffff16815260200190815260200160002060008373ffffffffffffffffffffffffffffffffffffffff1673ffffffffffffffffffffffffffffffffffffffff16815260200190815260200160002060009054906101000a900460ff16905092915050565b60007f01ffc9a7000000000000000000000000000000000000000000000000000000007bffffffffffffffffffffffffffffffffffffffffffffffffffffffff1916827bffffffffffffffffffffffffffffffffffffffffffffffffffffffff1916149050919050565b60008073ffffffffffffffffffffffffffffffffffffffff166002600084815260200190815260200160002060009054906101000a900473ffffffffffffffffffffffffffffffffffffffff1673ffffffffffffffffffffffffffffffffffffffff1614159050919050565b600033905090565b816004600083815260200190815260200160002060006101000a81548173ffffffffffffffffffffffffffffffffffffffff021916908373ffffffffffffffffffffffffffffffffffffffff160217905550808273ffffffffffffffffffffffffffffffffffffffff16610cd7836106b4565b73ffffffffffffffffffffffffffffffffffffffff167f8c5be1e5ebec7d5bd14f71427d1e84f3dd0314c0f7b2291e5b200ac8c7c3b92560405160405180910390a45050565b6000610d2882610bf0565b610d67576040517f08c379a0000000000000000000000000000000000000000000000000000000008152600401610d5e90612543565b60405180910390fd5b6000610d72836106b4565b90508073ffffffffffffffffffffffffffffffffffffffff168473ffffffffffffffffffffffffffffffffffffffff161480610db45750610db38185610af2565b5b80610df257508373ffffffffffffffffffffffffffffffffffffffff16610dda84610498565b73ffffffffffffffffffffffffffffffffffffffff16145b91505092915050565b8273ffffffffffffffffffffffffffffffffffffffff16610e1b826106b4565b73ffffffffffffffffffffffffffffffffffffffff1614610e71576040517f08c379a0000000000000000000000000000000000000000000000000000000008152600401610e68906125d5565b60405180910390fd5b600073ffffffffffffffffffffffffffffffffffffffff168273ffffffffffffffffffffffffffffffffffffffff1603610ee0576040517f08c379a0000000000000000000000000000000000000000000000000000000008152600401610ed790612667565b60405180910390fd5b610eeb838383611558565b610ef6600082610c64565b6001600360008573ffffffffffffffffffffffffffffffffffffffff1673ffffffffffffffffffffffffffffffffffffffff1681526020019081526020016000206000828254610f4691906126b6565b925050819055506001600360008473ffffffffffffffffffffffffffffffffffffffff1673ffffffffffffffffffffffffffffffffffffffff1681526020019081526020016000206000828254610f9d91906126ea565b92505081905550816002600083815260200190815260200160002060006101000a81548173ffffffffffffffffffffffffffffffffffffffff021916908373ffffffffffffffffffffffffffffffffffffffff160217905550808273ffffffffffffffffffffffffffffffffffffffff168473ffffffffffffffffffffffffffffffffffffffff167fddf252ad1be2c89b69c2b068fc378daa952ba7f163c4a11628f55a4df523b3ef60405160405180910390a461105c83838361155d565b505050565b8173ffffffffffffffffffffffffffffffffffffffff168373ffffffffffffffffffffffffffffffffffffffff16036110cf576040517f08c379a00000000000000000000000000000000000000000000000000000000081526004016110c69061278c565b60405180910390fd5b80600560008573ffffffffffffffffffffffffffffffffffffffff1673ffffffffffffffffffffffffffffffffffffffff16815260200190815260200160002060008473ffffffffffffffffffffffffffffffffffffffff1673ffffffffffffffffffffffffffffffffffffffff16815260200190815260200160002060006101000a81548160ff0219169083151502179055508173ffffffffffffffffffffffffffffffffffffffff168373ffffffffffffffffffffffffffffffffffffffff167f17307eab39ab6107e8899845ad3d59bd9653f200f220920489ca2b5937696c31836040516111c09190611a1a565b60405180910390a3505050565b6111d8848484610dfb565b6111e484848484611562565b611223576040517f08c379a000000000000000000000000000000000000000000000000000000000815260040161121a9061281e565b60405180910390fd5b50505050565b606060405180602001604052806000815250905090565b606061124b82610bf0565b61128a576040517f08c379a0000000000000000000000000000000000000000000000000000000008152600401611281906128b0565b60405180910390fd5b6000611294611229565b905060008151116112b457604051806020016040528060008152506112df565b806112be84611721565b6040516020016112cf9291906124ad565b6040516020818303038152906040525b915050919050565b6001816000016000828254019250508190555050565b600081600001549050919050565b600073ffffffffffffffffffffffffffffffffffffffff168273ffffffffffffffffffffffffffffffffffffffff160361137a576040517f08c379a00000000000000000000000000000000000000000000000000000000081526004016113719061291c565b60405180910390fd5b61138381610bf0565b156113c3576040517f08c379a00000000000000000000000000000000000000000000000000000000081526004016113ba90612988565b60405180910390fd5b6113cf60008383611558565b6001600360008473ffffffffffffffffffffffffffffffffffffffff1673ffffffffffffffffffffffffffffffffffffffff168152602001908152602001600020600082825461141f91906126ea565b92505081905550816002600083815260200190815260200160002060006101000a81548173ffffffffffffffffffffffffffffffffffffffff021916908373ffffffffffffffffffffffffffffffffffffffff160217905550808273ffffffffffffffffffffffffffffffffffffffff16600073ffffffffffffffffffffffffffffffffffffffff167fddf252ad1be2c89b69c2b068fc378daa952ba7f163c4a11628f55a4df523b3ef60405160405180910390a46114e06000838361155d565b5050565b6114ed82610bf0565b61152c576040517f08c379a000000000000000000000000000000000000000000000000000000000815260040161152390612a1a565b60405180910390fd5b806006600084815260200190815260200160002090805190602001906115539291906118c3565b505050565b505050565b505050565b60006115838473ffffffffffffffffffffffffffffffffffffffff166118a0565b15611714578373ffffffffffffffffffffffffffffffffffffffff1663150b7a026115ac610c5c565b8786866040518563ffffffff167c01000000000000000000000000000000000000000000000000000000000281526004016115ea9493929190612a8f565b6020604051808303816000875af192505050801561162657506040513d601f19601f820116820180604052508101906116239190612af0565b60015b6116a8573d8060008114611656576040519150601f19603f3d011682016040523d82523d6000602084013e61165b565b606091505b5060008151036116a0576040517f08c379a00000000000000000000000000000000000000000000000000000000081526004016116979061281e565b60405180910390fd5b805181602001fd5b63150b7a027c0100000000000000000000000000000000000000000000000000000000027bffffffffffffffffffffffffffffffffffffffffffffffffffffffff1916817bffffffffffffffffffffffffffffffffffffffffffffffffffffffff191614915050611719565b600190505b949350505050565b606060008203611768576040518060400160405280600181526020017f3000000000000000000000000000000000000000000000000000000000000000815250905061189b565b600082905060005b6000821461179a57808061178390612b1d565b915050600a826117939190612b94565b9150611770565b60008167ffffffffffffffff8111156117b6576117b5611d3b565b5b6040519080825280601f01601f1916602001820160405280156117e85781602001600182028036833780820191505090505b5090505b600085146118945760018261180191906126b6565b9150600a856118109190612bc5565b603061181c91906126ea565b7f01000000000000000000000000000000000000000000000000000000000000000281838151811061185157611850612bf6565b5b60200101907effffffffffffffffffffffffffffffffffffffffffffffffffffffffffffff1916908160001a905350600a8561188d9190612b94565b94506117ec565b8093505050505b919050565b6000808273ffffffffffffffffffffffffffffffffffffffff163b119050919050565b8280546118cf90612042565b90600052602060002090601f0160209004810192826118f15760008555611938565b82601f1061190a57805160ff1916838001178555611938565b82800160010185558215611938579182015b8281111561193757825182559160200191906001019061191c565b5b5090506119459190611949565b5090565b5b8082111561196257600081600090555060010161194a565b5090565b6000604051905090565b600080fd5b600080fd5b60007fffffffff0000000000000000000000000000000000000000000000000000000082169050919050565b6119af8161197a565b81146119ba57600080fd5b50565b6000813590506119cc816119a6565b92915050565b6000602082840312156119e8576119e7611970565b5b60006119f6848285016119bd565b91505092915050565b60008115159050919050565b611a14816119ff565b82525050565b6000602082019050611a2f6000830184611a0b565b92915050565b600081519050919050565b600082825260208201905092915050565b60005b83811015611a6f578082015181840152602081019050611a54565b83811115611a7e576000848401525b50505050565b6000601f19601f8301169050919050565b6000611aa082611a35565b611aaa8185611a40565b9350611aba818560208601611a51565b611ac381611a84565b840191505092915050565b60006020820190508181036000830152611ae88184611a95565b905092915050565b6000819050919050565b611b0381611af0565b8114611b0e57600080fd5b50565b600081359050611b2081611afa565b92915050565b600060208284031215611b3c57611b3b611970565b5b6000611b4a84828501611b11565b91505092915050565b600073ffffffffffffffffffffffffffffffffffffffff82169050919050565b6000611b7e82611b53565b9050919050565b611b8e81611b73565b82525050565b6000602082019050611ba96000830184611b85565b92915050565b611bb881611b73565b8114611bc357600080fd5b50565b600081359050611bd581611baf565b92915050565b60008060408385031215611bf257611bf1611970565b5b6000611c0085828601611bc6565b9250506020611c1185828601611b11565b9150509250929050565b600080600060608486031215611c3457611c33611970565b5b6000611c4286828701611bc6565b9350506020611c5386828701611bc6565b9250506040611c6486828701611b11565b9150509250925092565b600060208284031215611c8457611c83611970565b5b6000611c9284828501611bc6565b91505092915050565b611ca481611af0565b82525050565b6000602082019050611cbf6000830184611c9b565b92915050565b611cce816119ff565b8114611cd957600080fd5b50565b600081359050611ceb81611cc5565b92915050565b60008060408385031215611d0857611d07611970565b5b6000611d1685828601611bc6565b9250506020611d2785828601611cdc565b9150509250929050565b600080fd5b600080fd5b7f4e487b7100000000000000000000000000000000000000000000000000000000600052604160045260246000fd5b611d7382611a84565b810181811067ffffffffffffffff82111715611d9257611d91611d3b565b5b80604052505050565b6000611da5611966565b9050611db18282611d6a565b919050565b600067ffffffffffffffff821115611dd157611dd0611d3b565b5b611dda82611a84565b9050602081019050919050565b82818337600083830152505050565b6000611e09611e0484611db6565b611d9b565b905082815260208101848484011115611e2557611e24611d36565b5b611e30848285611de7565b509392505050565b600082601f830112611e4d57611e4c611d31565b5b8135611e5d848260208601611df6565b91505092915050565b60008060008060808587031215611e8057611e7f611970565b5b6000611e8e87828801611bc6565b9450506020611e9f87828801611bc6565b9350506040611eb087828801611b11565b925050606085013567ffffffffffffffff811115611ed157611ed0611975565b5b611edd87828801611e38565b91505092959194509250565b600067ffffffffffffffff821115611f0457611f03611d3b565b5b611f0d82611a84565b9050602081019050919050565b6000611f2d611f2884611ee9565b611d9b565b905082815260208101848484011115611f4957611f48611d36565b5b611f54848285611de7565b509392505050565b600082601f830112611f7157611f70611d31565b5b8135611f81848260208601611f1a565b91505092915050565b600060208284031215611fa057611f9f611970565b5b600082013567ffffffffffffffff811115611fbe57611fbd611975565b5b611fca84828501611f5c565b91505092915050565b60008060408385031215611fea57611fe9611970565b5b6000611ff885828601611bc6565b925050602061200985828601611bc6565b9150509250929050565b7f4e487b7100000000000000000000000000000000000000000000000000000000600052602260045260246000fd5b6000600282049050600182168061205a57607f821691505b60208210810361206d5761206c612013565b5b50919050565b7f4552433732313a20617070726f76656420717565727920666f72206e6f6e657860008201527f697374656e7420746f6b656e0000000000000000000000000000000000000000602082015250565b60006120cf602c83611a40565b91506120da82612073565b604082019050919050565b600060208201905081810360008301526120fe816120c2565b9050919050565b7f4552433732313a20617070726f76616c20746f2063757272656e74206f776e6560008201527f7200000000000000000000000000000000000000000000000000000000000000602082015250565b6000612161602183611a40565b915061216c82612105565b604082019050919050565b6000602082019050818103600083015261219081612154565b9050919050565b7f4552433732313a20617070726f76652063616c6c6572206973206e6f74206f7760008201527f6e6572206e6f7220617070726f76656420666f7220616c6c0000000000000000602082015250565b60006121f3603883611a40565b91506121fe82612197565b604082019050919050565b60006020820190508181036000830152612222816121e6565b9050919050565b7f4552433732313a207472616e736665722063616c6c6572206973206e6f74206f60008201527f776e6572206e6f7220617070726f766564000000000000000000000000000000602082015250565b6000612285603183611a40565b915061229082612229565b604082019050919050565b600060208201905081810360008301526122b481612278565b9050919050565b7f4552433732313a206f776e657220717565727920666f72206e6f6e657869737460008201527f656e7420746f6b656e0000000000000000000000000000000000000000000000602082015250565b6000612317602983611a40565b9150612322826122bb565b604082019050919050565b600060208201905081810360008301526123468161230a565b9050919050565b7f4552433732313a2062616c616e636520717565727920666f7220746865207a6560008201527f726f206164647265737300000000000000000000000000000000000000000000602082015250565b60006123a9602a83611a40565b91506123b48261234d565b604082019050919050565b600060208201905081810360008301526123d88161239c565b9050919050565b7f45524337323155524953746f726167653a2055524920717565727920666f722060008201527f6e6f6e6578697374656e7420746f6b656e000000000000000000000000000000602082015250565b600061243b603183611a40565b9150612446826123df565b604082019050919050565b6000602082019050818103600083015261246a8161242e565b9050919050565b600081905092915050565b600061248782611a35565b6124918185612471565b93506124a1818560208601611a51565b80840191505092915050565b60006124b9828561247c565b91506124c5828461247c565b91508190509392505050565b7f4552433732313a206f70657261746f7220717565727920666f72206e6f6e657860008201527f697374656e7420746f6b656e0000000000000000000000000000000000000000602082015250565b600061252d602c83611a40565b9150612538826124d1565b604082019050919050565b6000602082019050818103600083015261255c81612520565b9050919050565b7f4552433732313a207472616e736665722066726f6d20696e636f72726563742060008201527f6f776e6572000000000000000000000000000000000000000000000000000000602082015250565b60006125bf602583611a40565b91506125ca82612563565b604082019050919050565b600060208201905081810360008301526125ee816125b2565b9050919050565b7f4552433732313a207472616e7366657220746f20746865207a65726f2061646460008201527f7265737300000000000000000000000000000000000000000000000000000000602082015250565b6000612651602483611a40565b915061265c826125f5565b604082019050919050565b6000602082019050818103600083015261268081612644565b9050919050565b7f4e487b7100000000000000000000000000000000000000000000000000000000600052601160045260246000fd5b60006126c182611af0565b91506126cc83611af0565b9250828210156126df576126de612687565b5b828203905092915050565b60006126f582611af0565b915061270083611af0565b9250827fffffffffffffffffffffffffffffffffffffffffffffffffffffffffffffffff0382111561273557612734612687565b5b828201905092915050565b7f4552433732313a20617070726f766520746f2063616c6c657200000000000000600082015250565b6000612776601983611a40565b915061278182612740565b602082019050919050565b600060208201905081810360008301526127a581612769565b9050919050565b7f4552433732313a207472616e7366657220746f206e6f6e20455243373231526560008201527f63656976657220696d706c656d656e7465720000000000000000000000000000602082015250565b6000612808603283611a40565b9150612813826127ac565b604082019050919050565b60006020820190508181036000830152612837816127fb565b9050919050565b7f4552433732314d657461646174613a2055524920717565727920666f72206e6f60008201527f6e6578697374656e7420746f6b656e0000000000000000000000000000000000602082015250565b600061289a602f83611a40565b91506128a58261283e565b604082019050919050565b600060208201905081810360008301526128c98161288d565b9050919050565b7f4552433732313a206d696e7420746f20746865207a65726f2061646472657373600082015250565b6000612906602083611a40565b9150612911826128d0565b602082019050919050565b60006020820190508181036000830152612935816128f9565b9050919050565b7f4552433732313a20746f6b656e20616c7265616479206d696e74656400000000600082015250565b6000612972601c83611a40565b915061297d8261293c565b602082019050919050565b600060208201905081810360008301526129a181612965565b9050919050565b7f45524337323155524953746f726167653a2055524920736574206f66206e6f6e60008201527f6578697374656e7420746f6b656e000000000000000000000000000000000000602082015250565b6000612a04602e83611a40565b9150612a0f826129a8565b604082019050919050565b60006020820190508181036000830152612a33816129f7565b9050919050565b600081519050919050565b600082825260208201905092915050565b6000612a6182612a3a565b612a6b8185612a45565b9350612a7b818560208601611a51565b612a8481611a84565b840191505092915050565b6000608082019050612aa46000830187611b85565b612ab16020830186611b85565b612abe6040830185611c9b565b8181036060830152612ad08184612a56565b905095945050505050565b600081519050612aea816119a6565b92915050565b600060208284031215612b0657612b05611970565b5b6000612b1484828501612adb565b91505092915050565b6000612b2882611af0565b91507fffffffffffffffffffffffffffffffffffffffffffffffffffffffffffffffff8203612b5a57612b59612687565b5b600182019050919050565b7f4e487b7100000000000000000000000000000000000000000000000000000000600052601260045260246000fd5b6000612b9f82611af0565b9150612baa83611af0565b925082612bba57612bb9612b65565b5b828204905092915050565b6000612bd082611af0565b9150612bdb83611af0565b925082612beb57612bea612b65565b5b828206905092915050565b7f4e487b7100000000000000000000000000000000000000000000000000000000600052603260045260246000fdfea264697066735822122028f1d107ebbacef323e71be895a20dba133dc22cc868b686641c12b39e0ded1364736f6c634300080d0033",
  "immutableReferences": {},
  "source": "// SPDX-License-Identifier: MIT\npragma solidity ^0.8.0;\n\nimport \"@openzeppelin/contracts/token/ERC721/extensions/ERC721URIStorage.sol\";\nimport \"@openzeppelin/contracts/utils/Counters.sol\";\n\ncontract OpenLandNFT is ERC721URIStorage {\n  ////////////////////////////////////////\n  //                                    //\n  //         STATE VARIABLES            //\n  //                                    //\n  ////////////////////////////////////////\n\n  using Counters for Counters.Counter;\n  Counters.Counter private _tokenIds;\n\n  ////////////////////////////////////////\n  //                                    //\n  //              EVENTS                //\n  //                                    //\n  ////////////////////////////////////////\n  event NewPropertyMinted(address indexed owner, uint256 indexed tokenId);\n\n  ////////////////////////////////////////\n  //                                    //\n  //              FUNCTIONS             //\n  //                                    //\n  ////////////////////////////////////////\n\n  constructor() ERC721(\"OpenLand\", \"OLAND\") {}\n\n  /**\n   * @dev mint a new Property for a new event\n   * @param ipfsUrl of json object with media details (opensea compatible)\n   */\n  function mintProperty(string memory ipfsUrl) public returns (uint256) {\n    _tokenIds.increment();\n\n    uint256 newTokenId = _tokenIds.current();\n    _mint(address(msg.sender), newTokenId);\n    _setTokenURI(newTokenId, ipfsUrl);\n\n    emit NewPropertyMinted(msg.sender, newTokenId);\n\n    return newTokenId;\n  }\n}\n",
  "sourcePath": "/Users/drewhyte/Sites/SOLIDITY/openland-contract-moonriver/contracts/OpenLandNFT.sol",
  "compiler": {
    "name": "solc",
    "version": "0.8.13+commit.abaa5c0e.Emscripten.clang"
  },
  "schemaVersion": "3.4.6",
  "updatedAt": "2022-05-09T23:52:56.592Z",
  "devdoc": {
    "kind": "dev",
    "methods": {
      "approve(address,uint256)": {
        "details": "See {IERC721-approve}."
      },
      "balanceOf(address)": {
        "details": "See {IERC721-balanceOf}."
      },
      "getApproved(uint256)": {
        "details": "See {IERC721-getApproved}."
      },
      "isApprovedForAll(address,address)": {
        "details": "See {IERC721-isApprovedForAll}."
      },
      "mintProperty(string)": {
        "details": "mint a new Property for a new event",
        "params": {
          "ipfsUrl": "of json object with media details (opensea compatible)"
        }
      },
      "name()": {
        "details": "See {IERC721Metadata-name}."
      },
      "ownerOf(uint256)": {
        "details": "See {IERC721-ownerOf}."
      },
      "safeTransferFrom(address,address,uint256)": {
        "details": "See {IERC721-safeTransferFrom}."
      },
      "safeTransferFrom(address,address,uint256,bytes)": {
        "details": "See {IERC721-safeTransferFrom}."
      },
      "setApprovalForAll(address,bool)": {
        "details": "See {IERC721-setApprovalForAll}."
      },
      "supportsInterface(bytes4)": {
        "details": "See {IERC165-supportsInterface}."
      },
      "symbol()": {
        "details": "See {IERC721Metadata-symbol}."
      },
      "tokenURI(uint256)": {
        "details": "See {IERC721Metadata-tokenURI}."
      },
      "transferFrom(address,address,uint256)": {
        "details": "See {IERC721-transferFrom}."
      }
    },
    "version": 1
  },
  "userdoc": {
    "kind": "user",
    "methods": {},
    "version": 1
  }
}