{
  "contractName": "Settings",
  "abi": [
    {
      "inputs": [],
      "stateMutability": "nonpayable",
      "type": "constructor"
    },
    {
      "anonymous": false,
      "inputs": [
        {
          "indexed": true,
          "internalType": "address",
          "name": "previousOwner",
          "type": "address"
        },
        {
          "indexed": true,
          "internalType": "address",
          "name": "newOwner",
          "type": "address"
        }
      ],
      "name": "OwnershipTransferred",
      "type": "event"
    },
    {
      "anonymous": false,
      "inputs": [
        {
          "indexed": false,
          "internalType": "uint256",
          "name": "_old",
          "type": "uint256"
        },
        {
          "indexed": false,
          "internalType": "uint256",
          "name": "_new",
          "type": "uint256"
        }
      ],
      "name": "UpdateCuratorFee",
      "type": "event"
    },
    {
      "anonymous": false,
      "inputs": [
        {
          "indexed": false,
          "internalType": "address",
          "name": "_old",
          "type": "address"
        },
        {
          "indexed": false,
          "internalType": "address",
          "name": "_new",
          "type": "address"
        }
      ],
      "name": "UpdateFeeReceiver",
      "type": "event"
    },
    {
      "anonymous": false,
      "inputs": [
        {
          "indexed": false,
          "internalType": "uint256",
          "name": "_old",
          "type": "uint256"
        },
        {
          "indexed": false,
          "internalType": "uint256",
          "name": "_new",
          "type": "uint256"
        }
      ],
      "name": "UpdateGovernanceFee",
      "type": "event"
    },
    {
      "anonymous": false,
      "inputs": [
        {
          "indexed": false,
          "internalType": "uint256",
          "name": "_old",
          "type": "uint256"
        },
        {
          "indexed": false,
          "internalType": "uint256",
          "name": "_new",
          "type": "uint256"
        }
      ],
      "name": "UpdateMaxAuctionLength",
      "type": "event"
    },
    {
      "anonymous": false,
      "inputs": [
        {
          "indexed": false,
          "internalType": "uint256",
          "name": "_old",
          "type": "uint256"
        },
        {
          "indexed": false,
          "internalType": "uint256",
          "name": "_new",
          "type": "uint256"
        }
      ],
      "name": "UpdateMaxReserveFactor",
      "type": "event"
    },
    {
      "anonymous": false,
      "inputs": [
        {
          "indexed": false,
          "internalType": "uint256",
          "name": "_old",
          "type": "uint256"
        },
        {
          "indexed": false,
          "internalType": "uint256",
          "name": "_new",
          "type": "uint256"
        }
      ],
      "name": "UpdateMinAuctionLength",
      "type": "event"
    },
    {
      "anonymous": false,
      "inputs": [
        {
          "indexed": false,
          "internalType": "uint256",
          "name": "_old",
          "type": "uint256"
        },
        {
          "indexed": false,
          "internalType": "uint256",
          "name": "_new",
          "type": "uint256"
        }
      ],
      "name": "UpdateMinBidIncrease",
      "type": "event"
    },
    {
      "anonymous": false,
      "inputs": [
        {
          "indexed": false,
          "internalType": "uint256",
          "name": "_old",
          "type": "uint256"
        },
        {
          "indexed": false,
          "internalType": "uint256",
          "name": "_new",
          "type": "uint256"
        }
      ],
      "name": "UpdateMinReserveFactor",
      "type": "event"
    },
    {
      "anonymous": false,
      "inputs": [
        {
          "indexed": false,
          "internalType": "uint256",
          "name": "_old",
          "type": "uint256"
        },
        {
          "indexed": false,
          "internalType": "uint256",
          "name": "_new",
          "type": "uint256"
        }
      ],
      "name": "UpdateMinVotePercentage",
      "type": "event"
    },
    {
      "inputs": [],
      "name": "feeReceiver",
      "outputs": [
        {
          "internalType": "address payable",
          "name": "",
          "type": "address"
        }
      ],
      "stateMutability": "view",
      "type": "function",
      "constant": true
    },
    {
      "inputs": [],
      "name": "governanceFee",
      "outputs": [
        {
          "internalType": "uint256",
          "name": "",
          "type": "uint256"
        }
      ],
      "stateMutability": "view",
      "type": "function",
      "constant": true
    },
    {
      "inputs": [],
      "name": "maxAuctionLength",
      "outputs": [
        {
          "internalType": "uint256",
          "name": "",
          "type": "uint256"
        }
      ],
      "stateMutability": "view",
      "type": "function",
      "constant": true
    },
    {
      "inputs": [],
      "name": "maxCuratorFee",
      "outputs": [
        {
          "internalType": "uint256",
          "name": "",
          "type": "uint256"
        }
      ],
      "stateMutability": "view",
      "type": "function",
      "constant": true
    },
    {
      "inputs": [],
      "name": "maxGovFee",
      "outputs": [
        {
          "internalType": "uint256",
          "name": "",
          "type": "uint256"
        }
      ],
      "stateMutability": "view",
      "type": "function",
      "constant": true
    },
    {
      "inputs": [],
      "name": "maxMaxAuctionLength",
      "outputs": [
        {
          "internalType": "uint256",
          "name": "",
          "type": "uint256"
        }
      ],
      "stateMutability": "view",
      "type": "function",
      "constant": true
    },
    {
      "inputs": [],
      "name": "maxMinBidIncrease",
      "outputs": [
        {
          "internalType": "uint256",
          "name": "",
          "type": "uint256"
        }
      ],
      "stateMutability": "view",
      "type": "function",
      "constant": true
    },
    {
      "inputs": [],
      "name": "maxReserveFactor",
      "outputs": [
        {
          "internalType": "uint256",
          "name": "",
          "type": "uint256"
        }
      ],
      "stateMutability": "view",
      "type": "function",
      "constant": true
    },
    {
      "inputs": [],
      "name": "minAuctionLength",
      "outputs": [
        {
          "internalType": "uint256",
          "name": "",
          "type": "uint256"
        }
      ],
      "stateMutability": "view",
      "type": "function",
      "constant": true
    },
    {
      "inputs": [],
      "name": "minBidIncrease",
      "outputs": [
        {
          "internalType": "uint256",
          "name": "",
          "type": "uint256"
        }
      ],
      "stateMutability": "view",
      "type": "function",
      "constant": true
    },
    {
      "inputs": [],
      "name": "minMinAuctionLength",
      "outputs": [
        {
          "internalType": "uint256",
          "name": "",
          "type": "uint256"
        }
      ],
      "stateMutability": "view",
      "type": "function",
      "constant": true
    },
    {
      "inputs": [],
      "name": "minMinBidIncrease",
      "outputs": [
        {
          "internalType": "uint256",
          "name": "",
          "type": "uint256"
        }
      ],
      "stateMutability": "view",
      "type": "function",
      "constant": true
    },
    {
      "inputs": [],
      "name": "minReserveFactor",
      "outputs": [
        {
          "internalType": "uint256",
          "name": "",
          "type": "uint256"
        }
      ],
      "stateMutability": "view",
      "type": "function",
      "constant": true
    },
    {
      "inputs": [],
      "name": "minVotePercentage",
      "outputs": [
        {
          "internalType": "uint256",
          "name": "",
          "type": "uint256"
        }
      ],
      "stateMutability": "view",
      "type": "function",
      "constant": true
    },
    {
      "inputs": [],
      "name": "owner",
      "outputs": [
        {
          "internalType": "address",
          "name": "",
          "type": "address"
        }
      ],
      "stateMutability": "view",
      "type": "function",
      "constant": true
    },
    {
      "inputs": [],
      "name": "renounceOwnership",
      "outputs": [],
      "stateMutability": "nonpayable",
      "type": "function"
    },
    {
      "inputs": [
        {
          "internalType": "address",
          "name": "newOwner",
          "type": "address"
        }
      ],
      "name": "transferOwnership",
      "outputs": [],
      "stateMutability": "nonpayable",
      "type": "function"
    },
    {
      "inputs": [
        {
          "internalType": "uint256",
          "name": "_length",
          "type": "uint256"
        }
      ],
      "name": "setMaxAuctionLength",
      "outputs": [],
      "stateMutability": "nonpayable",
      "type": "function"
    },
    {
      "inputs": [
        {
          "internalType": "uint256",
          "name": "_length",
          "type": "uint256"
        }
      ],
      "name": "setMinAuctionLength",
      "outputs": [],
      "stateMutability": "nonpayable",
      "type": "function"
    },
    {
      "inputs": [
        {
          "internalType": "uint256",
          "name": "_fee",
          "type": "uint256"
        }
      ],
      "name": "setGovernanceFee",
      "outputs": [],
      "stateMutability": "nonpayable",
      "type": "function"
    },
    {
      "inputs": [
        {
          "internalType": "uint256",
          "name": "_fee",
          "type": "uint256"
        }
      ],
      "name": "setMaxCuratorFee",
      "outputs": [],
      "stateMutability": "nonpayable",
      "type": "function"
    },
    {
      "inputs": [
        {
          "internalType": "uint256",
          "name": "_min",
          "type": "uint256"
        }
      ],
      "name": "setMinBidIncrease",
      "outputs": [],
      "stateMutability": "nonpayable",
      "type": "function"
    },
    {
      "inputs": [
        {
          "internalType": "uint256",
          "name": "_min",
          "type": "uint256"
        }
      ],
      "name": "setMinVotePercentage",
      "outputs": [],
      "stateMutability": "nonpayable",
      "type": "function"
    },
    {
      "inputs": [
        {
          "internalType": "uint256",
          "name": "_factor",
          "type": "uint256"
        }
      ],
      "name": "setMaxReserveFactor",
      "outputs": [],
      "stateMutability": "nonpayable",
      "type": "function"
    },
    {
      "inputs": [
        {
          "internalType": "uint256",
          "name": "_factor",
          "type": "uint256"
        }
      ],
      "name": "setMinReserveFactor",
      "outputs": [],
      "stateMutability": "nonpayable",
      "type": "function"
    },
    {
      "inputs": [
        {
          "internalType": "address payable",
          "name": "_receiver",
          "type": "address"
        }
      ],
      "name": "setFeeReceiver",
      "outputs": [],
      "stateMutability": "nonpayable",
      "type": "function"
    }
  ],
  "bytecode": "0x608060405234801561001057600080fd5b50610033610025640100000000610073810204565b640100000000610077810204565b621275006001556203f48060025560098054600160a060020a031916331790556101f460088190556107d0600755603260055560646004556006556100c7565b3390565b60008054600160a060020a03838116600160a060020a0319831681178455604051919092169283917f8be0079c531659141344cd1fd0a4f28419497f9722a3daafe3b4186f6b6457e09190a35050565b610d1d806100d66000396000f3fe608060405234801561001057600080fd5b506004361061018b576000357c0100000000000000000000000000000000000000000000000000000000900480637c513c0f116100eb578063a0b335e3116100a4578063a0b335e3146102ab578063affdafd8146102b4578063b3f00674146102c7578063d213b900146102da578063efdcd974146102e4578063f2fde38b146102f7578063fcd81e321461025457600080fd5b80637c513c0f1461024b578063846a4dd214610254578063848103091461025c5780638a364bc11461026f5780638da5cb5b146102785780639665eb0f1461029857600080fd5b806332a693301161014857806332a69330146101e6578063339f87ed146101f95780635410bfc91461020157806357c74c6c1461020a5780636109f5b51461021d5780636fc83db314610230578063715018a61461024357600080fd5b806309990a96146101905780630e519ef9146101ac5780630ea90a12146101b557806318fee3bf146101be5780631a58364c146101d357806332977c73146101dd575b600080fd5b61019960085481565b6040519081526020015b60405180910390f35b61019960015481565b61019960035481565b6101d16101cc366004610c60565b61030a565b005b6101996249d40081565b61019960065481565b6101d16101f4366004610c60565b6103da565b610199600a81565b61019960075481565b6101d1610218366004610c60565b6104a1565b6101d161022b366004610c60565b610569565b6101d161023e366004610c60565b6105dc565b6101d16106f9565b61019960055481565b610199606481565b6101d161026a366004610c60565b610737565b61019960045481565b6102806107fe565b604051600160a060020a0390911681526020016101a3565b6101d16102a6366004610c60565b61080d565b61019960025481565b6101d16102c2366004610c60565b610928565b60095461028090600160a060020a031681565b6101996201518081565b6101d16102f2366004610c8e565b610a45565b6101d1610305366004610c8e565b610b46565b336103136107fe565b600160a060020a0316146103455760405160e560020a62461bcd02815260040161033c90610cb2565b60405180910390fd5b60075481106103995760405160e560020a62461bcd02815260206004820152601b60248201527f6d696e207265736572766520666163746f7220746f6f20686967680000000000604482015260640161033c565b60085460408051918252602082018390527fa93910a1e82dcd753b639a2ff1def7bf84d6bb1bf6fe79212d0d9ae72afc6cfa910160405180910390a1600855565b336103e36107fe565b600160a060020a03161461040c5760405160e560020a62461bcd02815260040161033c90610cb2565b60648111156104605760405160e560020a62461bcd02815260206004820152600c60248201527f66656520746f6f20686967680000000000000000000000000000000000000000604482015260640161033c565b60035460408051918252602082018390527f11b96af861c45de0c17127383516c92fc2a9d50eff86ea831b69e76a3fa87e2f910160405180910390a1600355565b336104aa6107fe565b600160a060020a0316146104d35760405160e560020a62461bcd02815260040161033c90610cb2565b6103e88111156105285760405160e560020a62461bcd02815260206004820152601c60248201527f6d696e20766f74652070657263656e7461676520746f6f206869676800000000604482015260640161033c565b60065460408051918252602082018390527ff8298d9709c2527c6ec1e2c605c5a163b44b0520bdd80335d5faba17e3f38fb8910160405180910390a1600655565b336105726107fe565b600160a060020a03161461059b5760405160e560020a62461bcd02815260040161033c90610cb2565b60035460408051918252602082018390527f283f7179cc13a8f90c3123b415b98ca8a0ca9619eed3c981db52809ab62700f9910160405180910390a1600455565b336105e56107fe565b600160a060020a03161461060e5760405160e560020a62461bcd02815260040161033c90610cb2565b620151808110156106645760405160e560020a62461bcd02815260206004820152601a60248201527f6d696e2061756374696f6e206c656e67746820746f6f206c6f77000000000000604482015260640161033c565b60015481106106b85760405160e560020a62461bcd02815260206004820152601b60248201527f6d696e2061756374696f6e206c656e67746820746f6f20686967680000000000604482015260640161033c565b60025460408051918252602082018390527f055017e5b2f20973817c668e2f744e7c1b68a6f20332f25bb7b9bbb2f0c7eca7910160405180910390a1600255565b336107026107fe565b600160a060020a03161461072b5760405160e560020a62461bcd02815260040161033c90610cb2565b6107356000610c03565b565b336107406107fe565b600160a060020a0316146107695760405160e560020a62461bcd02815260040161033c90610cb2565b60085481116107bd5760405160e560020a62461bcd02815260206004820152601a60248201527f6d6178207265736572766520666163746f7220746f6f206c6f77000000000000604482015260640161033c565b60075460408051918252602082018390527febec08ac4f5f91f0463f6e09a9b1729f1cbea09d240d8a1807ed6b9cd171ef19910160405180910390a1600755565b600054600160a060020a031690565b336108166107fe565b600160a060020a03161461083f5760405160e560020a62461bcd02815260040161033c90610cb2565b60648111156108935760405160e560020a62461bcd02815260206004820152601960248201527f6d696e2062696420696e63726561736520746f6f206869676800000000000000604482015260640161033c565b600a8110156108e75760405160e560020a62461bcd02815260206004820152601860248201527f6d696e2062696420696e63726561736520746f6f206c6f770000000000000000604482015260640161033c565b60055460408051918252602082018390527f3995c181714327dbf0232c3b20873e87ca6978b6418eec0f97a1447c5a4c43fc910160405180910390a1600555565b336109316107fe565b600160a060020a03161461095a5760405160e560020a62461bcd02815260040161033c90610cb2565b6249d4008111156109b05760405160e560020a62461bcd02815260206004820152601b60248201527f6d61782061756374696f6e206c656e67746820746f6f20686967680000000000604482015260640161033c565b6002548111610a045760405160e560020a62461bcd02815260206004820152601a60248201527f6d61782061756374696f6e206c656e67746820746f6f206c6f77000000000000604482015260640161033c565b60015460408051918252602082018390527f06684837277f012a4c3a13c8ec0e53d85b843e328a811a8f5f25f5e1456d9f59910160405180910390a1600155565b33610a4e6107fe565b600160a060020a031614610a775760405160e560020a62461bcd02815260040161033c90610cb2565b600160a060020a038116610ad05760405160e560020a62461bcd02815260206004820152601b60248201527f666565732063616e6e6f7420676f20746f203020616464726573730000000000604482015260640161033c565b60095460408051600160a060020a03928316815291831660208301527f2861448678f0be67f11bfb5481b3e3b4cfeb3acc6126ad60a05f95bfc6530666910160405180910390a16009805473ffffffffffffffffffffffffffffffffffffffff1916600160a060020a0392909216919091179055565b33610b4f6107fe565b600160a060020a031614610b785760405160e560020a62461bcd02815260040161033c90610cb2565b600160a060020a038116610bf75760405160e560020a62461bcd02815260206004820152602660248201527f4f776e61626c653a206e6577206f776e657220697320746865207a65726f206160448201527f6464726573730000000000000000000000000000000000000000000000000000606482015260840161033c565b610c0081610c03565b50565b60008054600160a060020a0383811673ffffffffffffffffffffffffffffffffffffffff19831681178455604051919092169283917f8be0079c531659141344cd1fd0a4f28419497f9722a3daafe3b4186f6b6457e09190a35050565b600060208284031215610c7257600080fd5b5035919050565b600160a060020a0381168114610c0057600080fd5b600060208284031215610ca057600080fd5b8135610cab81610c79565b9392505050565b6020808252818101527f4f776e61626c653a2063616c6c6572206973206e6f7420746865206f776e657260408201526060019056fea264697066735822122080ebf7f4a2a9f9ea57495c5ee1864823347ecb99e04f7aafbafccf1618da627564736f6c634300080d0033",
  "immutableReferences": {},
  "source": "//SPDX-License-Identifier: MIT\npragma solidity ^0.8.0;\n\nimport \"@openzeppelin/contracts/access/Ownable.sol\";\nimport \"./Interfaces/ISettings.sol\";\n\ncontract Settings is Ownable, ISettings {\n  /// @notice the maximum auction length\n  uint256 public override maxAuctionLength;\n\n  /// @notice the longest an auction can ever be\n  uint256 public constant maxMaxAuctionLength = 8 weeks;\n\n  /// @notice the minimum auction length\n  uint256 public override minAuctionLength;\n\n  /// @notice the shortest an auction can ever be\n  uint256 public constant minMinAuctionLength = 1 days;\n\n  /// @notice governance fee max\n  uint256 public override governanceFee;\n\n  /// @notice 10% fee is max\n  uint256 public constant maxGovFee = 100;\n\n  /// @notice max curator fee\n  uint256 public override maxCuratorFee;\n\n  /// @notice the % bid increase required for a new bid\n  uint256 public override minBidIncrease;\n\n  /// @notice 10% bid increase is max\n  uint256 public constant maxMinBidIncrease = 100;\n\n  /// @notice 1% bid increase is min\n  uint256 public constant minMinBidIncrease = 10;\n\n  /// @notice the % of tokens required to be voting for an auction to start\n  uint256 public override minVotePercentage;\n\n  /// @notice the max % increase over the initial\n  uint256 public override maxReserveFactor;\n\n  /// @notice the max % decrease from the initial\n  uint256 public override minReserveFactor;\n\n  /// @notice the address who receives auction fees\n  address payable public override feeReceiver;\n\n  event UpdateMaxAuctionLength(uint256 _old, uint256 _new);\n\n  event UpdateMinAuctionLength(uint256 _old, uint256 _new);\n\n  event UpdateGovernanceFee(uint256 _old, uint256 _new);\n\n  event UpdateCuratorFee(uint256 _old, uint256 _new);\n\n  event UpdateMinBidIncrease(uint256 _old, uint256 _new);\n\n  event UpdateMinVotePercentage(uint256 _old, uint256 _new);\n\n  event UpdateMaxReserveFactor(uint256 _old, uint256 _new);\n\n  event UpdateMinReserveFactor(uint256 _old, uint256 _new);\n\n  event UpdateFeeReceiver(address _old, address _new);\n\n  constructor() {\n    maxAuctionLength = 2 weeks;\n    minAuctionLength = 3 days;\n    feeReceiver = payable(msg.sender);\n    minReserveFactor = 500; // 50%\n    maxReserveFactor = 2000; // 200%\n    minBidIncrease = 50; // 5%\n    maxCuratorFee = 100;\n    minVotePercentage = 500; // 50%\n  }\n\n  function setMaxAuctionLength(uint256 _length) external onlyOwner {\n    require(_length <= maxMaxAuctionLength, \"max auction length too high\");\n    require(_length > minAuctionLength, \"max auction length too low\");\n\n    emit UpdateMaxAuctionLength(maxAuctionLength, _length);\n\n    maxAuctionLength = _length;\n  }\n\n  function setMinAuctionLength(uint256 _length) external onlyOwner {\n    require(_length >= minMinAuctionLength, \"min auction length too low\");\n    require(_length < maxAuctionLength, \"min auction length too high\");\n\n    emit UpdateMinAuctionLength(minAuctionLength, _length);\n\n    minAuctionLength = _length;\n  }\n\n  function setGovernanceFee(uint256 _fee) external onlyOwner {\n    require(_fee <= maxGovFee, \"fee too high\");\n\n    emit UpdateGovernanceFee(governanceFee, _fee);\n\n    governanceFee = _fee;\n  }\n\n  function setMaxCuratorFee(uint256 _fee) external onlyOwner {\n    emit UpdateCuratorFee(governanceFee, _fee);\n\n    maxCuratorFee = _fee;\n  }\n\n  function setMinBidIncrease(uint256 _min) external onlyOwner {\n    require(_min <= maxMinBidIncrease, \"min bid increase too high\");\n    require(_min >= minMinBidIncrease, \"min bid increase too low\");\n\n    emit UpdateMinBidIncrease(minBidIncrease, _min);\n\n    minBidIncrease = _min;\n  }\n\n  function setMinVotePercentage(uint256 _min) external onlyOwner {\n    // 1000 is 100%\n    require(_min <= 1000, \"min vote percentage too high\");\n\n    emit UpdateMinVotePercentage(minVotePercentage, _min);\n\n    minVotePercentage = _min;\n  }\n\n  function setMaxReserveFactor(uint256 _factor) external onlyOwner {\n    require(_factor > minReserveFactor, \"max reserve factor too low\");\n\n    emit UpdateMaxReserveFactor(maxReserveFactor, _factor);\n\n    maxReserveFactor = _factor;\n  }\n\n  function setMinReserveFactor(uint256 _factor) external onlyOwner {\n    require(_factor < maxReserveFactor, \"min reserve factor too high\");\n\n    emit UpdateMinReserveFactor(minReserveFactor, _factor);\n\n    minReserveFactor = _factor;\n  }\n\n  function setFeeReceiver(address payable _receiver) external onlyOwner {\n    require(_receiver != address(0), \"fees cannot go to 0 address\");\n\n    emit UpdateFeeReceiver(feeReceiver, _receiver);\n\n    feeReceiver = _receiver;\n  }\n}\n",
  "sourcePath": "/Users/drewhyte/Sites/SOLIDITY/openland-contract-moonriver/contracts/Settings.sol",
  "compiler": {
    "name": "solc",
    "version": "0.8.13+commit.abaa5c0e.Emscripten.clang"
  },
  "schemaVersion": "3.4.6",
  "updatedAt": "2022-05-15T21:27:43.086Z",
  "networkType": "ethereum",
  "devdoc": {
    "kind": "dev",
    "methods": {
      "owner()": {
        "details": "Returns the address of the current owner."
      },
      "renounceOwnership()": {
        "details": "Leaves the contract without owner. It will not be possible to call `onlyOwner` functions anymore. Can only be called by the current owner. NOTE: Renouncing ownership will leave the contract without an owner, thereby removing any functionality that is only available to the owner."
      },
      "transferOwnership(address)": {
        "details": "Transfers ownership of the contract to a new account (`newOwner`). Can only be called by the current owner."
      }
    },
    "version": 1
  },
  "userdoc": {
    "kind": "user",
    "methods": {
      "feeReceiver()": {
        "notice": "the address who receives auction fees"
      },
      "governanceFee()": {
        "notice": "governance fee max"
      },
      "maxAuctionLength()": {
        "notice": "the maximum auction length"
      },
      "maxCuratorFee()": {
        "notice": "max curator fee"
      },
      "maxGovFee()": {
        "notice": "10% fee is max"
      },
      "maxMaxAuctionLength()": {
        "notice": "the longest an auction can ever be"
      },
      "maxMinBidIncrease()": {
        "notice": "10% bid increase is max"
      },
      "maxReserveFactor()": {
        "notice": "the max % increase over the initial"
      },
      "minAuctionLength()": {
        "notice": "the minimum auction length"
      },
      "minBidIncrease()": {
        "notice": "the % bid increase required for a new bid"
      },
      "minMinAuctionLength()": {
        "notice": "the shortest an auction can ever be"
      },
      "minMinBidIncrease()": {
        "notice": "1% bid increase is min"
      },
      "minReserveFactor()": {
        "notice": "the max % decrease from the initial"
      },
      "minVotePercentage()": {
        "notice": "the % of tokens required to be voting for an auction to start"
      }
    },
    "version": 1
  }
}