{
  "contractName": "Settings",
  "abi": [
    {
      "inputs": [],
      "stateMutability": "nonpayable",
      "type": "constructor"
    },
    {
      "anonymous": false,
      "inputs": [
        {
          "indexed": true,
          "internalType": "address",
          "name": "previousOwner",
          "type": "address"
        },
        {
          "indexed": true,
          "internalType": "address",
          "name": "newOwner",
          "type": "address"
        }
      ],
      "name": "OwnershipTransferred",
      "type": "event"
    },
    {
      "anonymous": false,
      "inputs": [
        {
          "indexed": false,
          "internalType": "uint256",
          "name": "_old",
          "type": "uint256"
        },
        {
          "indexed": false,
          "internalType": "uint256",
          "name": "_new",
          "type": "uint256"
        }
      ],
      "name": "UpdateCuratorFee",
      "type": "event"
    },
    {
      "anonymous": false,
      "inputs": [
        {
          "indexed": false,
          "internalType": "address",
          "name": "_old",
          "type": "address"
        },
        {
          "indexed": false,
          "internalType": "address",
          "name": "_new",
          "type": "address"
        }
      ],
      "name": "UpdateFeeReceiver",
      "type": "event"
    },
    {
      "anonymous": false,
      "inputs": [
        {
          "indexed": false,
          "internalType": "uint256",
          "name": "_old",
          "type": "uint256"
        },
        {
          "indexed": false,
          "internalType": "uint256",
          "name": "_new",
          "type": "uint256"
        }
      ],
      "name": "UpdateGovernanceFee",
      "type": "event"
    },
    {
      "anonymous": false,
      "inputs": [
        {
          "indexed": false,
          "internalType": "uint256",
          "name": "_old",
          "type": "uint256"
        },
        {
          "indexed": false,
          "internalType": "uint256",
          "name": "_new",
          "type": "uint256"
        }
      ],
      "name": "UpdateMaxAuctionLength",
      "type": "event"
    },
    {
      "anonymous": false,
      "inputs": [
        {
          "indexed": false,
          "internalType": "uint256",
          "name": "_old",
          "type": "uint256"
        },
        {
          "indexed": false,
          "internalType": "uint256",
          "name": "_new",
          "type": "uint256"
        }
      ],
      "name": "UpdateMaxReserveFactor",
      "type": "event"
    },
    {
      "anonymous": false,
      "inputs": [
        {
          "indexed": false,
          "internalType": "uint256",
          "name": "_old",
          "type": "uint256"
        },
        {
          "indexed": false,
          "internalType": "uint256",
          "name": "_new",
          "type": "uint256"
        }
      ],
      "name": "UpdateMinAuctionLength",
      "type": "event"
    },
    {
      "anonymous": false,
      "inputs": [
        {
          "indexed": false,
          "internalType": "uint256",
          "name": "_old",
          "type": "uint256"
        },
        {
          "indexed": false,
          "internalType": "uint256",
          "name": "_new",
          "type": "uint256"
        }
      ],
      "name": "UpdateMinBidIncrease",
      "type": "event"
    },
    {
      "anonymous": false,
      "inputs": [
        {
          "indexed": false,
          "internalType": "uint256",
          "name": "_old",
          "type": "uint256"
        },
        {
          "indexed": false,
          "internalType": "uint256",
          "name": "_new",
          "type": "uint256"
        }
      ],
      "name": "UpdateMinReserveFactor",
      "type": "event"
    },
    {
      "anonymous": false,
      "inputs": [
        {
          "indexed": false,
          "internalType": "uint256",
          "name": "_old",
          "type": "uint256"
        },
        {
          "indexed": false,
          "internalType": "uint256",
          "name": "_new",
          "type": "uint256"
        }
      ],
      "name": "UpdateMinVotePercentage",
      "type": "event"
    },
    {
      "inputs": [],
      "name": "feeReceiver",
      "outputs": [
        {
          "internalType": "address payable",
          "name": "",
          "type": "address"
        }
      ],
      "stateMutability": "view",
      "type": "function"
    },
    {
      "inputs": [],
      "name": "governanceFee",
      "outputs": [
        {
          "internalType": "uint256",
          "name": "",
          "type": "uint256"
        }
      ],
      "stateMutability": "view",
      "type": "function"
    },
    {
      "inputs": [],
      "name": "maxAuctionLength",
      "outputs": [
        {
          "internalType": "uint256",
          "name": "",
          "type": "uint256"
        }
      ],
      "stateMutability": "view",
      "type": "function"
    },
    {
      "inputs": [],
      "name": "maxCuratorFee",
      "outputs": [
        {
          "internalType": "uint256",
          "name": "",
          "type": "uint256"
        }
      ],
      "stateMutability": "view",
      "type": "function"
    },
    {
      "inputs": [],
      "name": "maxGovFee",
      "outputs": [
        {
          "internalType": "uint256",
          "name": "",
          "type": "uint256"
        }
      ],
      "stateMutability": "view",
      "type": "function"
    },
    {
      "inputs": [],
      "name": "maxMaxAuctionLength",
      "outputs": [
        {
          "internalType": "uint256",
          "name": "",
          "type": "uint256"
        }
      ],
      "stateMutability": "view",
      "type": "function"
    },
    {
      "inputs": [],
      "name": "maxMinBidIncrease",
      "outputs": [
        {
          "internalType": "uint256",
          "name": "",
          "type": "uint256"
        }
      ],
      "stateMutability": "view",
      "type": "function"
    },
    {
      "inputs": [],
      "name": "maxReserveFactor",
      "outputs": [
        {
          "internalType": "uint256",
          "name": "",
          "type": "uint256"
        }
      ],
      "stateMutability": "view",
      "type": "function"
    },
    {
      "inputs": [],
      "name": "minAuctionLength",
      "outputs": [
        {
          "internalType": "uint256",
          "name": "",
          "type": "uint256"
        }
      ],
      "stateMutability": "view",
      "type": "function"
    },
    {
      "inputs": [],
      "name": "minBidIncrease",
      "outputs": [
        {
          "internalType": "uint256",
          "name": "",
          "type": "uint256"
        }
      ],
      "stateMutability": "view",
      "type": "function"
    },
    {
      "inputs": [],
      "name": "minMinAuctionLength",
      "outputs": [
        {
          "internalType": "uint256",
          "name": "",
          "type": "uint256"
        }
      ],
      "stateMutability": "view",
      "type": "function"
    },
    {
      "inputs": [],
      "name": "minMinBidIncrease",
      "outputs": [
        {
          "internalType": "uint256",
          "name": "",
          "type": "uint256"
        }
      ],
      "stateMutability": "view",
      "type": "function"
    },
    {
      "inputs": [],
      "name": "minReserveFactor",
      "outputs": [
        {
          "internalType": "uint256",
          "name": "",
          "type": "uint256"
        }
      ],
      "stateMutability": "view",
      "type": "function"
    },
    {
      "inputs": [],
      "name": "minVotePercentage",
      "outputs": [
        {
          "internalType": "uint256",
          "name": "",
          "type": "uint256"
        }
      ],
      "stateMutability": "view",
      "type": "function"
    },
    {
      "inputs": [],
      "name": "owner",
      "outputs": [
        {
          "internalType": "address",
          "name": "",
          "type": "address"
        }
      ],
      "stateMutability": "view",
      "type": "function"
    },
    {
      "inputs": [],
      "name": "renounceOwnership",
      "outputs": [],
      "stateMutability": "nonpayable",
      "type": "function"
    },
    {
      "inputs": [
        {
          "internalType": "address",
          "name": "newOwner",
          "type": "address"
        }
      ],
      "name": "transferOwnership",
      "outputs": [],
      "stateMutability": "nonpayable",
      "type": "function"
    },
    {
      "inputs": [
        {
          "internalType": "uint256",
          "name": "_length",
          "type": "uint256"
        }
      ],
      "name": "setMaxAuctionLength",
      "outputs": [],
      "stateMutability": "nonpayable",
      "type": "function"
    },
    {
      "inputs": [
        {
          "internalType": "uint256",
          "name": "_length",
          "type": "uint256"
        }
      ],
      "name": "setMinAuctionLength",
      "outputs": [],
      "stateMutability": "nonpayable",
      "type": "function"
    },
    {
      "inputs": [
        {
          "internalType": "uint256",
          "name": "_fee",
          "type": "uint256"
        }
      ],
      "name": "setGovernanceFee",
      "outputs": [],
      "stateMutability": "nonpayable",
      "type": "function"
    },
    {
      "inputs": [
        {
          "internalType": "uint256",
          "name": "_fee",
          "type": "uint256"
        }
      ],
      "name": "setMaxCuratorFee",
      "outputs": [],
      "stateMutability": "nonpayable",
      "type": "function"
    },
    {
      "inputs": [
        {
          "internalType": "uint256",
          "name": "_min",
          "type": "uint256"
        }
      ],
      "name": "setMinBidIncrease",
      "outputs": [],
      "stateMutability": "nonpayable",
      "type": "function"
    },
    {
      "inputs": [
        {
          "internalType": "uint256",
          "name": "_min",
          "type": "uint256"
        }
      ],
      "name": "setMinVotePercentage",
      "outputs": [],
      "stateMutability": "nonpayable",
      "type": "function"
    },
    {
      "inputs": [
        {
          "internalType": "uint256",
          "name": "_factor",
          "type": "uint256"
        }
      ],
      "name": "setMaxReserveFactor",
      "outputs": [],
      "stateMutability": "nonpayable",
      "type": "function"
    },
    {
      "inputs": [
        {
          "internalType": "uint256",
          "name": "_factor",
          "type": "uint256"
        }
      ],
      "name": "setMinReserveFactor",
      "outputs": [],
      "stateMutability": "nonpayable",
      "type": "function"
    },
    {
      "inputs": [
        {
          "internalType": "address payable",
          "name": "_receiver",
          "type": "address"
        }
      ],
      "name": "setFeeReceiver",
      "outputs": [],
      "stateMutability": "nonpayable",
      "type": "function"
    }
  ],
  "bytecode": "0x608060405234801561001057600080fd5b5061003f61002b6100c4640100000000026401000000009004565b6100cc640100000000026401000000009004565b621275006001819055506203f48060028190555033600960006101000a81548173ffffffffffffffffffffffffffffffffffffffff021916908373ffffffffffffffffffffffffffffffffffffffff1602179055506101f46008819055506107d0600781905550603260058190555060646004819055506101f4600681905550610190565b600033905090565b60008060009054906101000a900473ffffffffffffffffffffffffffffffffffffffff169050816000806101000a81548173ffffffffffffffffffffffffffffffffffffffff021916908373ffffffffffffffffffffffffffffffffffffffff1602179055508173ffffffffffffffffffffffffffffffffffffffff168173ffffffffffffffffffffffffffffffffffffffff167f8be0079c531659141344cd1fd0a4f28419497f9722a3daafe3b4186f6b6457e060405160405180910390a35050565b611a308061019f6000396000f3fe608060405234801561001057600080fd5b50600436106101ab576000357c0100000000000000000000000000000000000000000000000000000000900480637c513c0f116100fb578063a0b335e3116100b4578063d213b9001161008e578063d213b90014610420578063efdcd9741461043e578063f2fde38b1461045a578063fcd81e3214610476576101ab565b8063a0b335e3146103c8578063affdafd8146103e6578063b3f0067414610402576101ab565b80637c513c0f14610318578063846a4dd21461033657806384810309146103545780638a364bc1146103705780638da5cb5b1461038e5780639665eb0f146103ac576101ab565b806332a693301161016857806357c74c6c1161014257806357c74c6c146102ba5780636109f5b5146102d65780636fc83db3146102f2578063715018a61461030e576101ab565b806332a6933014610262578063339f87ed1461027e5780635410bfc91461029c576101ab565b806309990a96146101b05780630e519ef9146101ce5780630ea90a12146101ec57806318fee3bf1461020a5780631a58364c1461022657806332977c7314610244575b600080fd5b6101b8610494565b6040516101c591906111d3565b60405180910390f35b6101d661049a565b6040516101e391906111d3565b60405180910390f35b6101f46104a0565b60405161020191906111d3565b60405180910390f35b610224600480360381019061021f919061121f565b6104a6565b005b61022e6105ab565b60405161023b91906111d3565b60405180910390f35b61024c6105b2565b60405161025991906111d3565b60405180910390f35b61027c6004803603810190610277919061121f565b6105b8565b005b6102866106bd565b60405161029391906111d3565b60405180910390f35b6102a46106c2565b6040516102b191906111d3565b60405180910390f35b6102d460048036038101906102cf919061121f565b6106c8565b005b6102f060048036038101906102eb919061121f565b6107ce565b005b61030c6004803603810190610307919061121f565b61088f565b005b6103166109da565b005b610320610a62565b60405161032d91906111d3565b60405180910390f35b61033e610a68565b60405161034b91906111d3565b60405180910390f35b61036e6004803603810190610369919061121f565b610a6d565b005b610378610b72565b60405161038591906111d3565b60405180910390f35b610396610b78565b6040516103a3919061128d565b60405180910390f35b6103c660048036038101906103c1919061121f565b610ba1565b005b6103d0610cea565b6040516103dd91906111d3565b60405180910390f35b61040060048036038101906103fb919061121f565b610cf0565b005b61040a610e3b565b60405161041791906112c9565b60405180910390f35b610428610e61565b60405161043591906111d3565b60405180910390f35b61045860048036038101906104539190611310565b610e68565b005b610474600480360381019061046f9190611369565b610ff2565b005b61047e6110e9565b60405161048b91906111d3565b60405180910390f35b60085481565b60015481565b60035481565b6104ae6110ee565b73ffffffffffffffffffffffffffffffffffffffff166104cc610b78565b73ffffffffffffffffffffffffffffffffffffffff1614610522576040517f08c379a0000000000000000000000000000000000000000000000000000000008152600401610519906113f3565b60405180910390fd5b6007548110610566576040517f08c379a000000000000000000000000000000000000000000000000000000000815260040161055d9061145f565b60405180910390fd5b7fa93910a1e82dcd753b639a2ff1def7bf84d6bb1bf6fe79212d0d9ae72afc6cfa6008548260405161059992919061147f565b60405180910390a18060088190555050565b6249d40081565b60065481565b6105c06110ee565b73ffffffffffffffffffffffffffffffffffffffff166105de610b78565b73ffffffffffffffffffffffffffffffffffffffff1614610634576040517f08c379a000000000000000000000000000000000000000000000000000000000815260040161062b906113f3565b60405180910390fd5b6064811115610678576040517f08c379a000000000000000000000000000000000000000000000000000000000815260040161066f906114f4565b60405180910390fd5b7f11b96af861c45de0c17127383516c92fc2a9d50eff86ea831b69e76a3fa87e2f600354826040516106ab92919061147f565b60405180910390a18060038190555050565b600a81565b60075481565b6106d06110ee565b73ffffffffffffffffffffffffffffffffffffffff166106ee610b78565b73ffffffffffffffffffffffffffffffffffffffff1614610744576040517f08c379a000000000000000000000000000000000000000000000000000000000815260040161073b906113f3565b60405180910390fd5b6103e8811115610789576040517f08c379a000000000000000000000000000000000000000000000000000000000815260040161078090611560565b60405180910390fd5b7ff8298d9709c2527c6ec1e2c605c5a163b44b0520bdd80335d5faba17e3f38fb8600654826040516107bc92919061147f565b60405180910390a18060068190555050565b6107d66110ee565b73ffffffffffffffffffffffffffffffffffffffff166107f4610b78565b73ffffffffffffffffffffffffffffffffffffffff161461084a576040517f08c379a0000000000000000000000000000000000000000000000000000000008152600401610841906113f3565b60405180910390fd5b7f283f7179cc13a8f90c3123b415b98ca8a0ca9619eed3c981db52809ab62700f96003548260405161087d92919061147f565b60405180910390a18060048190555050565b6108976110ee565b73ffffffffffffffffffffffffffffffffffffffff166108b5610b78565b73ffffffffffffffffffffffffffffffffffffffff161461090b576040517f08c379a0000000000000000000000000000000000000000000000000000000008152600401610902906113f3565b60405180910390fd5b62015180811015610951576040517f08c379a0000000000000000000000000000000000000000000000000000000008152600401610948906115cc565b60405180910390fd5b6001548110610995576040517f08c379a000000000000000000000000000000000000000000000000000000000815260040161098c90611638565b60405180910390fd5b7f055017e5b2f20973817c668e2f744e7c1b68a6f20332f25bb7b9bbb2f0c7eca7600254826040516109c892919061147f565b60405180910390a18060028190555050565b6109e26110ee565b73ffffffffffffffffffffffffffffffffffffffff16610a00610b78565b73ffffffffffffffffffffffffffffffffffffffff1614610a56576040517f08c379a0000000000000000000000000000000000000000000000000000000008152600401610a4d906113f3565b60405180910390fd5b610a6060006110f6565b565b60055481565b606481565b610a756110ee565b73ffffffffffffffffffffffffffffffffffffffff16610a93610b78565b73ffffffffffffffffffffffffffffffffffffffff1614610ae9576040517f08c379a0000000000000000000000000000000000000000000000000000000008152600401610ae0906113f3565b60405180910390fd5b6008548111610b2d576040517f08c379a0000000000000000000000000000000000000000000000000000000008152600401610b24906116a4565b60405180910390fd5b7febec08ac4f5f91f0463f6e09a9b1729f1cbea09d240d8a1807ed6b9cd171ef1960075482604051610b6092919061147f565b60405180910390a18060078190555050565b60045481565b60008060009054906101000a900473ffffffffffffffffffffffffffffffffffffffff16905090565b610ba96110ee565b73ffffffffffffffffffffffffffffffffffffffff16610bc7610b78565b73ffffffffffffffffffffffffffffffffffffffff1614610c1d576040517f08c379a0000000000000000000000000000000000000000000000000000000008152600401610c14906113f3565b60405180910390fd5b6064811115610c61576040517f08c379a0000000000000000000000000000000000000000000000000000000008152600401610c5890611710565b60405180910390fd5b600a811015610ca5576040517f08c379a0000000000000000000000000000000000000000000000000000000008152600401610c9c9061177c565b60405180910390fd5b7f3995c181714327dbf0232c3b20873e87ca6978b6418eec0f97a1447c5a4c43fc60055482604051610cd892919061147f565b60405180910390a18060058190555050565b60025481565b610cf86110ee565b73ffffffffffffffffffffffffffffffffffffffff16610d16610b78565b73ffffffffffffffffffffffffffffffffffffffff1614610d6c576040517f08c379a0000000000000000000000000000000000000000000000000000000008152600401610d63906113f3565b60405180910390fd5b6249d400811115610db2576040517f08c379a0000000000000000000000000000000000000000000000000000000008152600401610da9906117e8565b60405180910390fd5b6002548111610df6576040517f08c379a0000000000000000000000000000000000000000000000000000000008152600401610ded90611854565b60405180910390fd5b7f06684837277f012a4c3a13c8ec0e53d85b843e328a811a8f5f25f5e1456d9f5960015482604051610e2992919061147f565b60405180910390a18060018190555050565b600960009054906101000a900473ffffffffffffffffffffffffffffffffffffffff1681565b6201518081565b610e706110ee565b73ffffffffffffffffffffffffffffffffffffffff16610e8e610b78565b73ffffffffffffffffffffffffffffffffffffffff1614610ee4576040517f08c379a0000000000000000000000000000000000000000000000000000000008152600401610edb906113f3565b60405180910390fd5b600073ffffffffffffffffffffffffffffffffffffffff168173ffffffffffffffffffffffffffffffffffffffff1603610f53576040517f08c379a0000000000000000000000000000000000000000000000000000000008152600401610f4a906118c0565b60405180910390fd5b7f2861448678f0be67f11bfb5481b3e3b4cfeb3acc6126ad60a05f95bfc6530666600960009054906101000a900473ffffffffffffffffffffffffffffffffffffffff1682604051610fa692919061193f565b60405180910390a180600960006101000a81548173ffffffffffffffffffffffffffffffffffffffff021916908373ffffffffffffffffffffffffffffffffffffffff16021790555050565b610ffa6110ee565b73ffffffffffffffffffffffffffffffffffffffff16611018610b78565b73ffffffffffffffffffffffffffffffffffffffff161461106e576040517f08c379a0000000000000000000000000000000000000000000000000000000008152600401611065906113f3565b60405180910390fd5b600073ffffffffffffffffffffffffffffffffffffffff168173ffffffffffffffffffffffffffffffffffffffff16036110dd576040517f08c379a00000000000000000000000000000000000000000000000000000000081526004016110d4906119da565b60405180910390fd5b6110e6816110f6565b50565b606481565b600033905090565b60008060009054906101000a900473ffffffffffffffffffffffffffffffffffffffff169050816000806101000a81548173ffffffffffffffffffffffffffffffffffffffff021916908373ffffffffffffffffffffffffffffffffffffffff1602179055508173ffffffffffffffffffffffffffffffffffffffff168173ffffffffffffffffffffffffffffffffffffffff167f8be0079c531659141344cd1fd0a4f28419497f9722a3daafe3b4186f6b6457e060405160405180910390a35050565b6000819050919050565b6111cd816111ba565b82525050565b60006020820190506111e860008301846111c4565b92915050565b600080fd5b6111fc816111ba565b811461120757600080fd5b50565b600081359050611219816111f3565b92915050565b600060208284031215611235576112346111ee565b5b60006112438482850161120a565b91505092915050565b600073ffffffffffffffffffffffffffffffffffffffff82169050919050565b60006112778261124c565b9050919050565b6112878161126c565b82525050565b60006020820190506112a2600083018461127e565b92915050565b60006112b38261124c565b9050919050565b6112c3816112a8565b82525050565b60006020820190506112de60008301846112ba565b92915050565b6112ed816112a8565b81146112f857600080fd5b50565b60008135905061130a816112e4565b92915050565b600060208284031215611326576113256111ee565b5b6000611334848285016112fb565b91505092915050565b6113468161126c565b811461135157600080fd5b50565b6000813590506113638161133d565b92915050565b60006020828403121561137f5761137e6111ee565b5b600061138d84828501611354565b91505092915050565b600082825260208201905092915050565b7f4f776e61626c653a2063616c6c6572206973206e6f7420746865206f776e6572600082015250565b60006113dd602083611396565b91506113e8826113a7565b602082019050919050565b6000602082019050818103600083015261140c816113d0565b9050919050565b7f6d696e207265736572766520666163746f7220746f6f20686967680000000000600082015250565b6000611449601b83611396565b915061145482611413565b602082019050919050565b600060208201905081810360008301526114788161143c565b9050919050565b600060408201905061149460008301856111c4565b6114a160208301846111c4565b9392505050565b7f66656520746f6f20686967680000000000000000000000000000000000000000600082015250565b60006114de600c83611396565b91506114e9826114a8565b602082019050919050565b6000602082019050818103600083015261150d816114d1565b9050919050565b7f6d696e20766f74652070657263656e7461676520746f6f206869676800000000600082015250565b600061154a601c83611396565b915061155582611514565b602082019050919050565b600060208201905081810360008301526115798161153d565b9050919050565b7f6d696e2061756374696f6e206c656e67746820746f6f206c6f77000000000000600082015250565b60006115b6601a83611396565b91506115c182611580565b602082019050919050565b600060208201905081810360008301526115e5816115a9565b9050919050565b7f6d696e2061756374696f6e206c656e67746820746f6f20686967680000000000600082015250565b6000611622601b83611396565b915061162d826115ec565b602082019050919050565b6000602082019050818103600083015261165181611615565b9050919050565b7f6d6178207265736572766520666163746f7220746f6f206c6f77000000000000600082015250565b600061168e601a83611396565b915061169982611658565b602082019050919050565b600060208201905081810360008301526116bd81611681565b9050919050565b7f6d696e2062696420696e63726561736520746f6f206869676800000000000000600082015250565b60006116fa601983611396565b9150611705826116c4565b602082019050919050565b60006020820190508181036000830152611729816116ed565b9050919050565b7f6d696e2062696420696e63726561736520746f6f206c6f770000000000000000600082015250565b6000611766601883611396565b915061177182611730565b602082019050919050565b6000602082019050818103600083015261179581611759565b9050919050565b7f6d61782061756374696f6e206c656e67746820746f6f20686967680000000000600082015250565b60006117d2601b83611396565b91506117dd8261179c565b602082019050919050565b60006020820190508181036000830152611801816117c5565b9050919050565b7f6d61782061756374696f6e206c656e67746820746f6f206c6f77000000000000600082015250565b600061183e601a83611396565b915061184982611808565b602082019050919050565b6000602082019050818103600083015261186d81611831565b9050919050565b7f666565732063616e6e6f7420676f20746f203020616464726573730000000000600082015250565b60006118aa601b83611396565b91506118b582611874565b602082019050919050565b600060208201905081810360008301526118d98161189d565b9050919050565b6000819050919050565b60006119056119006118fb8461124c565b6118e0565b61124c565b9050919050565b6000611917826118ea565b9050919050565b60006119298261190c565b9050919050565b6119398161191e565b82525050565b60006040820190506119546000830185611930565b6119616020830184611930565b9392505050565b7f4f776e61626c653a206e6577206f776e657220697320746865207a65726f206160008201527f6464726573730000000000000000000000000000000000000000000000000000602082015250565b60006119c4602683611396565b91506119cf82611968565b604082019050919050565b600060208201905081810360008301526119f3816119b7565b905091905056fea2646970667358221220407c45ce2f087057149caa71aee381aced968657bb2ee2b762032097fce6049e64736f6c634300080d0033",
  "immutableReferences": {},
  "source": "//SPDX-License-Identifier: MIT\npragma solidity ^0.8.0;\n\nimport \"@openzeppelin/contracts/access/Ownable.sol\";\nimport \"./Interfaces/ISettings.sol\";\n\ncontract Settings is Ownable, ISettings {\n  /// @notice the maximum auction length\n  uint256 public override maxAuctionLength;\n\n  /// @notice the longest an auction can ever be\n  uint256 public constant maxMaxAuctionLength = 8 weeks;\n\n  /// @notice the minimum auction length\n  uint256 public override minAuctionLength;\n\n  /// @notice the shortest an auction can ever be\n  uint256 public constant minMinAuctionLength = 1 days;\n\n  /// @notice governance fee max\n  uint256 public override governanceFee;\n\n  /// @notice 10% fee is max\n  uint256 public constant maxGovFee = 100;\n\n  /// @notice max curator fee\n  uint256 public override maxCuratorFee;\n\n  /// @notice the % bid increase required for a new bid\n  uint256 public override minBidIncrease;\n\n  /// @notice 10% bid increase is max\n  uint256 public constant maxMinBidIncrease = 100;\n\n  /// @notice 1% bid increase is min\n  uint256 public constant minMinBidIncrease = 10;\n\n  /// @notice the % of tokens required to be voting for an auction to start\n  uint256 public override minVotePercentage;\n\n  /// @notice the max % increase over the initial\n  uint256 public override maxReserveFactor;\n\n  /// @notice the max % decrease from the initial\n  uint256 public override minReserveFactor;\n\n  /// @notice the address who receives auction fees\n  address payable public override feeReceiver;\n\n  event UpdateMaxAuctionLength(uint256 _old, uint256 _new);\n\n  event UpdateMinAuctionLength(uint256 _old, uint256 _new);\n\n  event UpdateGovernanceFee(uint256 _old, uint256 _new);\n\n  event UpdateCuratorFee(uint256 _old, uint256 _new);\n\n  event UpdateMinBidIncrease(uint256 _old, uint256 _new);\n\n  event UpdateMinVotePercentage(uint256 _old, uint256 _new);\n\n  event UpdateMaxReserveFactor(uint256 _old, uint256 _new);\n\n  event UpdateMinReserveFactor(uint256 _old, uint256 _new);\n\n  event UpdateFeeReceiver(address _old, address _new);\n\n  constructor() {\n    maxAuctionLength = 2 weeks;\n    minAuctionLength = 3 days;\n    feeReceiver = payable(msg.sender);\n    minReserveFactor = 500; // 50%\n    maxReserveFactor = 2000; // 200%\n    minBidIncrease = 50; // 5%\n    maxCuratorFee = 100;\n    minVotePercentage = 500; // 50%\n  }\n\n  function setMaxAuctionLength(uint256 _length) external onlyOwner {\n    require(_length <= maxMaxAuctionLength, \"max auction length too high\");\n    require(_length > minAuctionLength, \"max auction length too low\");\n\n    emit UpdateMaxAuctionLength(maxAuctionLength, _length);\n\n    maxAuctionLength = _length;\n  }\n\n  function setMinAuctionLength(uint256 _length) external onlyOwner {\n    require(_length >= minMinAuctionLength, \"min auction length too low\");\n    require(_length < maxAuctionLength, \"min auction length too high\");\n\n    emit UpdateMinAuctionLength(minAuctionLength, _length);\n\n    minAuctionLength = _length;\n  }\n\n  function setGovernanceFee(uint256 _fee) external onlyOwner {\n    require(_fee <= maxGovFee, \"fee too high\");\n\n    emit UpdateGovernanceFee(governanceFee, _fee);\n\n    governanceFee = _fee;\n  }\n\n  function setMaxCuratorFee(uint256 _fee) external onlyOwner {\n    emit UpdateCuratorFee(governanceFee, _fee);\n\n    maxCuratorFee = _fee;\n  }\n\n  function setMinBidIncrease(uint256 _min) external onlyOwner {\n    require(_min <= maxMinBidIncrease, \"min bid increase too high\");\n    require(_min >= minMinBidIncrease, \"min bid increase too low\");\n\n    emit UpdateMinBidIncrease(minBidIncrease, _min);\n\n    minBidIncrease = _min;\n  }\n\n  function setMinVotePercentage(uint256 _min) external onlyOwner {\n    // 1000 is 100%\n    require(_min <= 1000, \"min vote percentage too high\");\n\n    emit UpdateMinVotePercentage(minVotePercentage, _min);\n\n    minVotePercentage = _min;\n  }\n\n  function setMaxReserveFactor(uint256 _factor) external onlyOwner {\n    require(_factor > minReserveFactor, \"max reserve factor too low\");\n\n    emit UpdateMaxReserveFactor(maxReserveFactor, _factor);\n\n    maxReserveFactor = _factor;\n  }\n\n  function setMinReserveFactor(uint256 _factor) external onlyOwner {\n    require(_factor < maxReserveFactor, \"min reserve factor too high\");\n\n    emit UpdateMinReserveFactor(minReserveFactor, _factor);\n\n    minReserveFactor = _factor;\n  }\n\n  function setFeeReceiver(address payable _receiver) external onlyOwner {\n    require(_receiver != address(0), \"fees cannot go to 0 address\");\n\n    emit UpdateFeeReceiver(feeReceiver, _receiver);\n\n    feeReceiver = _receiver;\n  }\n}\n",
  "sourcePath": "/Users/drewhyte/Sites/SOLIDITY/openland-contract-moonriver/contracts/Settings.sol",
  "compiler": {
    "name": "solc",
    "version": "0.8.13+commit.abaa5c0e.Emscripten.clang"
  },
  "schemaVersion": "3.4.6",
  "updatedAt": "2022-05-09T23:52:56.604Z",
  "devdoc": {
    "kind": "dev",
    "methods": {
      "owner()": {
        "details": "Returns the address of the current owner."
      },
      "renounceOwnership()": {
        "details": "Leaves the contract without owner. It will not be possible to call `onlyOwner` functions anymore. Can only be called by the current owner. NOTE: Renouncing ownership will leave the contract without an owner, thereby removing any functionality that is only available to the owner."
      },
      "transferOwnership(address)": {
        "details": "Transfers ownership of the contract to a new account (`newOwner`). Can only be called by the current owner."
      }
    },
    "version": 1
  },
  "userdoc": {
    "kind": "user",
    "methods": {
      "feeReceiver()": {
        "notice": "the address who receives auction fees"
      },
      "governanceFee()": {
        "notice": "governance fee max"
      },
      "maxAuctionLength()": {
        "notice": "the maximum auction length"
      },
      "maxCuratorFee()": {
        "notice": "max curator fee"
      },
      "maxGovFee()": {
        "notice": "10% fee is max"
      },
      "maxMaxAuctionLength()": {
        "notice": "the longest an auction can ever be"
      },
      "maxMinBidIncrease()": {
        "notice": "10% bid increase is max"
      },
      "maxReserveFactor()": {
        "notice": "the max % increase over the initial"
      },
      "minAuctionLength()": {
        "notice": "the minimum auction length"
      },
      "minBidIncrease()": {
        "notice": "the % bid increase required for a new bid"
      },
      "minMinAuctionLength()": {
        "notice": "the shortest an auction can ever be"
      },
      "minMinBidIncrease()": {
        "notice": "1% bid increase is min"
      },
      "minReserveFactor()": {
        "notice": "the max % decrease from the initial"
      },
      "minVotePercentage()": {
        "notice": "the % of tokens required to be voting for an auction to start"
      }
    },
    "version": 1
  }
}