{
  "contractName": "SharedStorage",
  "abi": [
    {
      "anonymous": false,
      "inputs": [
        {
          "indexed": true,
          "internalType": "address",
          "name": "buyer",
          "type": "address"
        },
        {
          "indexed": false,
          "internalType": "uint256",
          "name": "price",
          "type": "uint256"
        }
      ],
      "name": "Bid",
      "type": "event"
    },
    {
      "anonymous": false,
      "inputs": [
        {
          "indexed": true,
          "internalType": "address",
          "name": "owner",
          "type": "address"
        },
        {
          "indexed": false,
          "internalType": "uint256",
          "name": "shares",
          "type": "uint256"
        }
      ],
      "name": "Cash",
      "type": "event"
    },
    {
      "anonymous": false,
      "inputs": [
        {
          "indexed": true,
          "internalType": "address",
          "name": "user",
          "type": "address"
        },
        {
          "indexed": false,
          "internalType": "uint256",
          "name": "price",
          "type": "uint256"
        }
      ],
      "name": "PriceUpdate",
      "type": "event"
    },
    {
      "anonymous": false,
      "inputs": [
        {
          "indexed": true,
          "internalType": "address",
          "name": "redeemer",
          "type": "address"
        }
      ],
      "name": "Redeem",
      "type": "event"
    },
    {
      "anonymous": false,
      "inputs": [
        {
          "indexed": true,
          "internalType": "address",
          "name": "buyer",
          "type": "address"
        },
        {
          "indexed": false,
          "internalType": "uint256",
          "name": "price",
          "type": "uint256"
        }
      ],
      "name": "Start",
      "type": "event"
    },
    {
      "anonymous": false,
      "inputs": [
        {
          "indexed": true,
          "internalType": "address",
          "name": "buyer",
          "type": "address"
        },
        {
          "indexed": false,
          "internalType": "uint256",
          "name": "price",
          "type": "uint256"
        }
      ],
      "name": "Won",
      "type": "event"
    },
    {
      "inputs": [],
      "name": "auctionEnd",
      "outputs": [
        {
          "internalType": "uint256",
          "name": "",
          "type": "uint256"
        }
      ],
      "stateMutability": "view",
      "type": "function"
    },
    {
      "inputs": [],
      "name": "auctionLength",
      "outputs": [
        {
          "internalType": "uint256",
          "name": "",
          "type": "uint256"
        }
      ],
      "stateMutability": "view",
      "type": "function"
    },
    {
      "inputs": [],
      "name": "auctionState",
      "outputs": [
        {
          "internalType": "enum SharedStorage.State",
          "name": "",
          "type": "uint8"
        }
      ],
      "stateMutability": "view",
      "type": "function"
    },
    {
      "inputs": [],
      "name": "curator",
      "outputs": [
        {
          "internalType": "address",
          "name": "",
          "type": "address"
        }
      ],
      "stateMutability": "view",
      "type": "function"
    },
    {
      "inputs": [],
      "name": "fee",
      "outputs": [
        {
          "internalType": "uint256",
          "name": "",
          "type": "uint256"
        }
      ],
      "stateMutability": "view",
      "type": "function"
    },
    {
      "inputs": [],
      "name": "id",
      "outputs": [
        {
          "internalType": "uint256",
          "name": "",
          "type": "uint256"
        }
      ],
      "stateMutability": "view",
      "type": "function"
    },
    {
      "inputs": [],
      "name": "lastClaimed",
      "outputs": [
        {
          "internalType": "uint256",
          "name": "",
          "type": "uint256"
        }
      ],
      "stateMutability": "view",
      "type": "function"
    },
    {
      "inputs": [],
      "name": "livePrice",
      "outputs": [
        {
          "internalType": "uint256",
          "name": "",
          "type": "uint256"
        }
      ],
      "stateMutability": "view",
      "type": "function"
    },
    {
      "inputs": [],
      "name": "logic",
      "outputs": [
        {
          "internalType": "address",
          "name": "",
          "type": "address"
        }
      ],
      "stateMutability": "view",
      "type": "function"
    },
    {
      "inputs": [],
      "name": "reserveTotal",
      "outputs": [
        {
          "internalType": "uint256",
          "name": "",
          "type": "uint256"
        }
      ],
      "stateMutability": "view",
      "type": "function"
    },
    {
      "inputs": [],
      "name": "settings",
      "outputs": [
        {
          "internalType": "address",
          "name": "",
          "type": "address"
        }
      ],
      "stateMutability": "view",
      "type": "function"
    },
    {
      "inputs": [],
      "name": "token",
      "outputs": [
        {
          "internalType": "address",
          "name": "",
          "type": "address"
        }
      ],
      "stateMutability": "view",
      "type": "function"
    },
    {
      "inputs": [
        {
          "internalType": "address",
          "name": "",
          "type": "address"
        }
      ],
      "name": "userPrices",
      "outputs": [
        {
          "internalType": "uint256",
          "name": "",
          "type": "uint256"
        }
      ],
      "stateMutability": "view",
      "type": "function"
    },
    {
      "inputs": [],
      "name": "vaultClosed",
      "outputs": [
        {
          "internalType": "bool",
          "name": "",
          "type": "bool"
        }
      ],
      "stateMutability": "view",
      "type": "function"
    },
    {
      "inputs": [],
      "name": "votingTokens",
      "outputs": [
        {
          "internalType": "uint256",
          "name": "",
          "type": "uint256"
        }
      ],
      "stateMutability": "view",
      "type": "function"
    },
    {
      "inputs": [],
      "name": "weth",
      "outputs": [
        {
          "internalType": "address",
          "name": "",
          "type": "address"
        }
      ],
      "stateMutability": "view",
      "type": "function"
    },
    {
      "inputs": [],
      "name": "winning",
      "outputs": [
        {
          "internalType": "address payable",
          "name": "",
          "type": "address"
        }
      ],
      "stateMutability": "view",
      "type": "function"
    }
  ],
  "bytecode": "0x608060405234801561001057600080fd5b50610310806100206000396000f3fe608060405234801561001057600080fd5b5060043610610108576000357c0100000000000000000000000000000000000000000000000000000000900480639a4e6d34116100af5780639a4e6d34146101d9578063adc1b956146101e2578063af640d0f146101eb578063c91de649146101f4578063d7dfa0dd14610214578063ddca3f4314610227578063e06174e414610230578063e66f53b714610243578063fc0c546a1461025657600080fd5b80632a24f46c1461010d578063325c25a2146101295780633fc8cef3146101325780635c9920fc146101655780636da84e6c146101825780637b5581ed1461018b5780637fb4509914610194578063853a1b90146101c6575b600080fd5b61011660035481565b6040519081526020015b60405180910390f35b61011660045481565b61014d73c02aaa39b223fe8d0a0e5c4f27ead9083c756cc281565b604051600160a060020a039091168152602001610120565b600c546101729060ff1681565b6040519015158152602001610120565b61011660065481565b61011660055481565b6007546101b99074010000000000000000000000000000000000000000900460ff1681565b6040516101209190610269565b60075461014d90600160a060020a031681565b610116600d5481565b610116600b5481565b61011660025481565b6101166102023660046102aa565b600e6020526000908152604090205481565b60005461014d90600160a060020a031681565b610116600a5481565b60085461014d90600160a060020a031681565b60095461014d90600160a060020a031681565b60015461014d90600160a060020a031681565b60208101600483106102a4577f4e487b7100000000000000000000000000000000000000000000000000000000600052602160045260246000fd5b91905290565b6000602082840312156102bc57600080fd5b8135600160a060020a03811681146102d357600080fd5b939250505056fea2646970667358221220e44c4f9a037b2a1e8c75ee775d5dec6ef5b904b650336d4f96df17e31bf78e1764736f6c634300080d0033",
  "immutableReferences": {},
  "source": "// SPDX-License-Identifier: MIT\npragma solidity ^0.8.0;\n\ncontract SharedStorage {\n  // address of logic contract\n  address public logic;\n\n  /// -----------------------------------\n  /// -------- BASIC INFORMATION --------\n  /// -----------------------------------\n\n  /// @notice weth address\n  address public constant weth = 0xC02aaA39b223FE8D0A0e5C4F27eAD9083C756Cc2;\n\n  /// -----------------------------------\n  /// -------- TOKEN INFORMATION --------\n  /// -----------------------------------\n\n  /// @notice the ERC721 token address of the vault's token\n  address public token;\n\n  /// @notice the ERC721 token ID of the vault's token\n  uint256 public id;\n\n  /// -------------------------------------\n  /// -------- AUCTION INFORMATION --------\n  /// -------------------------------------\n\n  /// @notice the unix timestamp end time of the token auction\n  uint256 public auctionEnd;\n\n  /// @notice the length of auctions\n  uint256 public auctionLength;\n\n  /// @notice reservePrice * votingTokens\n  uint256 public reserveTotal;\n\n  /// @notice the current price of the token during an auction\n  uint256 public livePrice;\n\n  /// @notice the current user winning the token auction\n  address payable public winning;\n\n  enum State {\n    inactive,\n    live,\n    ended,\n    redeemed\n  }\n\n  State public auctionState;\n\n  /// -----------------------------------\n  /// -------- VAULT INFORMATION --------\n  /// -----------------------------------\n\n  /// @notice the governance contract which gets paid in ETH\n  address public settings;\n\n  /// @notice the address who initially deposited the NFT\n  address public curator;\n\n  /// @notice the AUM fee paid to the curator yearly. 3 decimals. ie. 100 = 10%\n  uint256 public fee;\n\n  /// @notice the last timestamp where fees were claimed\n  uint256 public lastClaimed;\n\n  /// @notice a boolean to indicate if the vault has closed\n  bool public vaultClosed;\n\n  /// @notice the number of ownership tokens voting on the reserve price at any given time\n  uint256 public votingTokens;\n\n  /// @notice a mapping of users to their desired token price\n  mapping(address => uint256) public userPrices;\n\n  /// ------------------------\n  /// -------- EVENTS --------\n  /// ------------------------\n\n  /// @notice An event emitted when a user updates their price\n  event PriceUpdate(address indexed user, uint256 price);\n\n  /// @notice An event emitted when an auction starts\n  event Start(address indexed buyer, uint256 price);\n\n  /// @notice An event emitted when a bid is made\n  event Bid(address indexed buyer, uint256 price);\n\n  /// @notice An event emitted when an auction is won\n  event Won(address indexed buyer, uint256 price);\n\n  /// @notice An event emitted when someone redeems all tokens for the NFT\n  event Redeem(address indexed redeemer);\n\n  /// @notice An event emitted when someone cashes in ERC20 tokens for ETH from an ERC721 token sale\n  event Cash(address indexed owner, uint256 shares);\n}\n",
  "sourcePath": "/Users/drewhyte/Sites/SOLIDITY/openland-contract-moonriver/contracts/SharedStorage.sol",
  "compiler": {
    "name": "solc",
    "version": "0.8.13+commit.abaa5c0e.Emscripten.clang"
  },
  "schemaVersion": "3.4.6",
  "updatedAt": "2022-05-15T21:10:33.975Z",
  "devdoc": {
    "kind": "dev",
    "methods": {},
    "version": 1
  },
  "userdoc": {
    "events": {
      "Bid(address,uint256)": {
        "notice": "An event emitted when a bid is made"
      },
      "Cash(address,uint256)": {
        "notice": "An event emitted when someone cashes in ERC20 tokens for ETH from an ERC721 token sale"
      },
      "PriceUpdate(address,uint256)": {
        "notice": "An event emitted when a user updates their price"
      },
      "Redeem(address)": {
        "notice": "An event emitted when someone redeems all tokens for the NFT"
      },
      "Start(address,uint256)": {
        "notice": "An event emitted when an auction starts"
      },
      "Won(address,uint256)": {
        "notice": "An event emitted when an auction is won"
      }
    },
    "kind": "user",
    "methods": {
      "auctionEnd()": {
        "notice": "the unix timestamp end time of the token auction"
      },
      "auctionLength()": {
        "notice": "the length of auctions"
      },
      "curator()": {
        "notice": "the address who initially deposited the NFT"
      },
      "fee()": {
        "notice": "the AUM fee paid to the curator yearly. 3 decimals. ie. 100 = 10%"
      },
      "id()": {
        "notice": "the ERC721 token ID of the vault's token"
      },
      "lastClaimed()": {
        "notice": "the last timestamp where fees were claimed"
      },
      "livePrice()": {
        "notice": "the current price of the token during an auction"
      },
      "reserveTotal()": {
        "notice": "reservePrice * votingTokens"
      },
      "settings()": {
        "notice": "the governance contract which gets paid in ETH"
      },
      "token()": {
        "notice": "the ERC721 token address of the vault's token"
      },
      "userPrices(address)": {
        "notice": "a mapping of users to their desired token price"
      },
      "vaultClosed()": {
        "notice": "a boolean to indicate if the vault has closed"
      },
      "votingTokens()": {
        "notice": "the number of ownership tokens voting on the reserve price at any given time"
      },
      "weth()": {
        "notice": "weth address"
      },
      "winning()": {
        "notice": "the current user winning the token auction"
      }
    },
    "version": 1
  }
}